{
  "_format": "hh-sol-artifact-1",
  "contractName": "NFTixLaunchpad",
  "sourceName": "contracts/NFTixLaunchpad.sol",
  "abi": [
    {
      "inputs": [],
      "stateMutability": "nonpayable",
      "type": "constructor"
    },
    {
      "inputs": [],
      "name": "FallbackDisabled",
      "type": "error"
    },
    {
      "inputs": [],
      "name": "SameAddress",
      "type": "error"
    },
    {
      "inputs": [],
      "name": "ZeroAddress",
      "type": "error"
    },
    {
      "anonymous": false,
      "inputs": [
        {
          "indexed": true,
          "internalType": "address",
          "name": "ERC721Base",
          "type": "address"
        }
      ],
      "name": "ImplementationERC721Changed",
      "type": "event"
    },
    {
      "anonymous": false,
      "inputs": [
        {
          "indexed": false,
          "internalType": "uint8",
          "name": "version",
          "type": "uint8"
        }
      ],
      "name": "Initialized",
      "type": "event"
    },
    {
      "anonymous": false,
      "inputs": [
        {
          "indexed": true,
          "internalType": "address",
          "name": "_newClone",
          "type": "address"
        },
        {
          "indexed": true,
          "internalType": "address",
          "name": "_owner",
          "type": "address"
        }
      ],
      "name": "NewClone",
      "type": "event"
    },
    {
      "anonymous": false,
      "inputs": [
        {
          "indexed": true,
          "internalType": "address",
          "name": "previousOwner",
          "type": "address"
        },
        {
          "indexed": true,
          "internalType": "address",
          "name": "newOwner",
          "type": "address"
        }
      ],
      "name": "OwnershipTransferred",
      "type": "event"
    },
    {
      "anonymous": false,
      "inputs": [
        {
          "indexed": true,
          "internalType": "bytes32",
          "name": "role",
          "type": "bytes32"
        },
        {
          "indexed": true,
          "internalType": "bytes32",
          "name": "previousAdminRole",
          "type": "bytes32"
        },
        {
          "indexed": true,
          "internalType": "bytes32",
          "name": "newAdminRole",
          "type": "bytes32"
        }
      ],
      "name": "RoleAdminChanged",
      "type": "event"
    },
    {
      "anonymous": false,
      "inputs": [
        {
          "indexed": true,
          "internalType": "bytes32",
          "name": "role",
          "type": "bytes32"
        },
        {
          "indexed": true,
          "internalType": "address",
          "name": "account",
          "type": "address"
        },
        {
          "indexed": true,
          "internalType": "address",
          "name": "sender",
          "type": "address"
        }
      ],
      "name": "RoleGranted",
      "type": "event"
    },
    {
      "anonymous": false,
      "inputs": [
        {
          "indexed": true,
          "internalType": "bytes32",
          "name": "role",
          "type": "bytes32"
        },
        {
          "indexed": true,
          "internalType": "address",
          "name": "account",
          "type": "address"
        },
        {
          "indexed": true,
          "internalType": "address",
          "name": "sender",
          "type": "address"
        }
      ],
      "name": "RoleRevoked",
      "type": "event"
    },
    {
      "stateMutability": "payable",
      "type": "fallback"
    },
    {
      "inputs": [],
      "name": "Base",
      "outputs": [
        {
          "internalType": "address",
          "name": "",
          "type": "address"
        }
      ],
      "stateMutability": "view",
      "type": "function"
    },
    {
      "inputs": [],
      "name": "DEFAULT_ADMIN_ROLE",
      "outputs": [
        {
          "internalType": "bytes32",
          "name": "",
          "type": "bytes32"
        }
      ],
      "stateMutability": "view",
      "type": "function"
    },
    {
      "inputs": [
        {
          "internalType": "address",
          "name": "_newDefaultAdminAddress",
          "type": "address"
        }
      ],
      "name": "changeDefaultPlatformAdmin",
      "outputs": [],
      "stateMutability": "nonpayable",
      "type": "function"
    },
    {
      "inputs": [
        {
          "internalType": "address",
          "name": "_newAddress",
          "type": "address"
        }
      ],
      "name": "changeERC721Implementation",
      "outputs": [],
      "stateMutability": "nonpayable",
      "type": "function"
    },
    {
      "inputs": [
        {
          "internalType": "uint256",
          "name": "",
          "type": "uint256"
        }
      ],
      "name": "clones",
      "outputs": [
        {
          "internalType": "address",
          "name": "",
          "type": "address"
        }
      ],
      "stateMutability": "view",
      "type": "function"
    },
    {
      "inputs": [
        {
          "internalType": "string",
          "name": "_name",
          "type": "string"
        },
        {
          "internalType": "string",
          "name": "_symbol",
          "type": "string"
        },
        {
          "internalType": "string",
          "name": "_uri",
          "type": "string"
        },
        {
          "internalType": "uint256[]",
          "name": "_ticketPrices",
          "type": "uint256[]"
        },
        {
          "internalType": "uint256[]",
          "name": "_ticketRanges",
          "type": "uint256[]"
        },
        {
          "internalType": "address[]",
          "name": "_payees",
          "type": "address[]"
        },
        {
          "internalType": "uint256[]",
          "name": "_shares",
          "type": "uint256[]"
        },
        {
          "internalType": "bytes32",
          "name": "_root",
          "type": "bytes32"
        }
      ],
      "name": "createERC721",
      "outputs": [
        {
          "internalType": "address",
          "name": "",
          "type": "address"
        }
      ],
      "stateMutability": "nonpayable",
      "type": "function"
    },
    {
      "inputs": [],
      "name": "defaultPlatformAdmin",
      "outputs": [
        {
          "internalType": "address",
          "name": "",
          "type": "address"
        }
      ],
      "stateMutability": "view",
      "type": "function"
    },
    {
      "inputs": [
        {
          "internalType": "bytes32",
          "name": "role",
          "type": "bytes32"
        }
      ],
      "name": "getRoleAdmin",
      "outputs": [
        {
          "internalType": "bytes32",
          "name": "",
          "type": "bytes32"
        }
      ],
      "stateMutability": "view",
      "type": "function"
    },
    {
      "inputs": [
        {
          "internalType": "bytes32",
          "name": "role",
          "type": "bytes32"
        },
        {
          "internalType": "address",
          "name": "account",
          "type": "address"
        }
      ],
      "name": "grantRole",
      "outputs": [],
      "stateMutability": "nonpayable",
      "type": "function"
    },
    {
      "inputs": [
        {
          "internalType": "bytes32",
          "name": "role",
          "type": "bytes32"
        },
        {
          "internalType": "address",
          "name": "account",
          "type": "address"
        }
      ],
      "name": "hasRole",
      "outputs": [
        {
          "internalType": "bool",
          "name": "",
          "type": "bool"
        }
      ],
      "stateMutability": "view",
      "type": "function"
    },
    {
      "inputs": [
        {
          "internalType": "address",
          "name": "BaseERC721",
          "type": "address"
        },
        {
          "internalType": "address",
          "name": "defaultPlatformAdmin_",
          "type": "address"
        }
      ],
      "name": "initialize",
      "outputs": [],
      "stateMutability": "nonpayable",
      "type": "function"
    },
    {
      "inputs": [],
      "name": "owner",
      "outputs": [
        {
          "internalType": "address",
          "name": "",
          "type": "address"
        }
      ],
      "stateMutability": "view",
      "type": "function"
    },
    {
      "inputs": [],
      "name": "renounceOwnership",
      "outputs": [],
      "stateMutability": "nonpayable",
      "type": "function"
    },
    {
      "inputs": [
        {
          "internalType": "bytes32",
          "name": "role",
          "type": "bytes32"
        },
        {
          "internalType": "address",
          "name": "account",
          "type": "address"
        }
      ],
      "name": "renounceRole",
      "outputs": [],
      "stateMutability": "nonpayable",
      "type": "function"
    },
    {
      "inputs": [
        {
          "internalType": "bytes32",
          "name": "role",
          "type": "bytes32"
        },
        {
          "internalType": "address",
          "name": "account",
          "type": "address"
        }
      ],
      "name": "revokeRole",
      "outputs": [],
      "stateMutability": "nonpayable",
      "type": "function"
    },
    {
      "inputs": [
        {
          "internalType": "bytes4",
          "name": "interfaceId",
          "type": "bytes4"
        }
      ],
      "name": "supportsInterface",
      "outputs": [
        {
          "internalType": "bool",
          "name": "",
          "type": "bool"
        }
      ],
      "stateMutability": "view",
      "type": "function"
    },
    {
      "inputs": [
        {
          "internalType": "address",
          "name": "newOwner",
          "type": "address"
        }
      ],
      "name": "transferOwnership",
      "outputs": [],
      "stateMutability": "nonpayable",
      "type": "function"
    },
    {
      "stateMutability": "payable",
      "type": "receive"
    }
  ],
  "bytecode": "0x608060405234801561001057600080fd5b50611797806100206000396000f3fe6080604052600436106101125760003560e01c80635ea102b0116100a5578063a217fddf11610074578063c7b5139111610059578063c7b5139114610396578063d547741f146103b6578063f2fde38b146103d657610149565b8063a217fddf14610361578063a306b6e81461037657610149565b80635ea102b0146102c8578063715018a6146102e85780638da5cb5b146102fd57806391d148541461031b57610149565b80632f2ff15d116100e15780632f2ff15d1461024857806336568abe146102685780633b7d526e14610288578063485cc955146102a857610149565b806301ffc9a71461017b5780630e039916146101b0578063248a9ca3146101e85780632677b9941461022657610149565b36610149576040517f687b764e00000000000000000000000000000000000000000000000000000000815260040160405180910390fd5b6040517f687b764e00000000000000000000000000000000000000000000000000000000815260040160405180910390fd5b34801561018757600080fd5b5061019b610196366004611121565b6103f6565b60405190151581526020015b60405180910390f35b3480156101bc57600080fd5b506101d06101cb366004611163565b61048f565b6040516001600160a01b0390911681526020016101a7565b3480156101f457600080fd5b50610218610203366004611163565b60009081526097602052604090206001015490565b6040519081526020016101a7565b34801561023257600080fd5b50610246610241366004611193565b6104b9565b005b34801561025457600080fd5b506102466102633660046111ae565b610531565b34801561027457600080fd5b506102466102833660046111ae565b61055b565b34801561029457600080fd5b506101d06102a3366004611382565b6105ec565b3480156102b457600080fd5b506102466102c33660046114a7565b61073a565b3480156102d457600080fd5b5060fb546101d0906001600160a01b031681565b3480156102f457600080fd5b506102466108e6565b34801561030957600080fd5b506033546001600160a01b03166101d0565b34801561032757600080fd5b5061019b6103363660046111ae565b60009182526097602090815260408084206001600160a01b0393909316845291905290205460ff1690565b34801561036d57600080fd5b50610218600081565b34801561038257600080fd5b5060fd546101d0906001600160a01b031681565b3480156103a257600080fd5b506102466103b1366004611193565b6108fa565b3480156103c257600080fd5b506102466103d13660046111ae565b6109c8565b3480156103e257600080fd5b506102466103f1366004611193565b6109ed565b60007fffffffff0000000000000000000000000000000000000000000000000000000082167f7965db0b00000000000000000000000000000000000000000000000000000000148061048957507f01ffc9a7000000000000000000000000000000000000000000000000000000007fffffffff000000000000000000000000000000000000000000000000000000008316145b92915050565b60fc818154811061049f57600080fd5b6000918252602090912001546001600160a01b0316905081565b6104c1610a7d565b6001600160a01b03811615806104e4575060fd546001600160a01b038281169116145b156105025760405163d92e233d60e01b815260040160405180910390fd5b60fd805473ffffffffffffffffffffffffffffffffffffffff19166001600160a01b0392909216919091179055565b60008281526097602052604090206001015461054c81610ad7565b6105568383610ae1565b505050565b6001600160a01b03811633146105de5760405162461bcd60e51b815260206004820152602f60248201527f416363657373436f6e74726f6c3a2063616e206f6e6c792072656e6f756e636560448201527f20726f6c657320666f722073656c66000000000000000000000000000000000060648201526084015b60405180910390fd5b6105e88282610b83565b5050565b60006105f6610c06565b60fb5460009061060e906001600160a01b0316610c5f565b60fd546040517f2e6a172c0000000000000000000000000000000000000000000000000000000081529192506001600160a01b0380841692632e6a172c9261066b928f928f928f928f928f928f928f929116908e9060040161155c565b600060405180830381600087803b15801561068557600080fd5b505af1158015610699573d6000803e3d6000fd5b505060fc805460018101825560009182527f371f36870d18f32a11fea0f144b021c8b407bb50f8e0267c711123f454b963c001805473ffffffffffffffffffffffffffffffffffffffff19166001600160a01b0386169081179091556040513394509092507f3bf919a220a0f12ddcaf77fd06ffa4b9c728617774936f0d78b452010319c8249190a3905061072e600160c955565b98975050505050505050565b600054610100900460ff161580801561075a5750600054600160ff909116105b806107745750303b158015610774575060005460ff166001145b6107e65760405162461bcd60e51b815260206004820152602e60248201527f496e697469616c697a61626c653a20636f6e747261637420697320616c72656160448201527f647920696e697469616c697a656400000000000000000000000000000000000060648201526084016105d5565b6000805460ff191660011790558015610809576000805461ff0019166101001790555b6001600160a01b0383166108305760405163d92e233d60e01b815260040160405180910390fd5b6001600160a01b0382166108575760405163d92e233d60e01b815260040160405180910390fd5b60fd80546001600160a01b0380851673ffffffffffffffffffffffffffffffffffffffff199283161790925560fb80549286169290911691909117905561089c610d00565b8015610556576000805461ff0019169055604051600181527f7f26b83ff96e1f2b6a682f133852f6798a09c465da95921460cefb38474024989060200160405180910390a1505050565b6108ee610a7d565b6108f86000610d85565b565b610902610a7d565b6001600160a01b0381166109295760405163d92e233d60e01b815260040160405180910390fd5b60fb546001600160a01b0390811690821603610971576040517f367558c300000000000000000000000000000000000000000000000000000000815260040160405180910390fd5b60fb805473ffffffffffffffffffffffffffffffffffffffff19166001600160a01b0383169081179091556040517fd04f10b610233a1d4a7c6405e91287680343094a50b8ff2ca0759a62fc07a86790600090a250565b6000828152609760205260409020600101546109e381610ad7565b6105568383610b83565b6109f5610a7d565b6001600160a01b038116610a715760405162461bcd60e51b815260206004820152602660248201527f4f776e61626c653a206e6577206f776e657220697320746865207a65726f206160448201527f646472657373000000000000000000000000000000000000000000000000000060648201526084016105d5565b610a7a81610d85565b50565b6033546001600160a01b031633146108f85760405162461bcd60e51b815260206004820181905260248201527f4f776e61626c653a2063616c6c6572206973206e6f7420746865206f776e657260448201526064016105d5565b610a7a8133610de4565b60008281526097602090815260408083206001600160a01b038516845290915290205460ff166105e85760008281526097602090815260408083206001600160a01b03851684529091529020805460ff19166001179055610b3f3390565b6001600160a01b0316816001600160a01b0316837f2f8788117e7eff1d82e926ec794901d17c78024a50270940304540a733656f0d60405160405180910390a45050565b60008281526097602090815260408083206001600160a01b038516845290915290205460ff16156105e85760008281526097602090815260408083206001600160a01b0385168085529252808320805460ff1916905551339285917ff6391f5c32d9c69d2a47ea670b442974b53935d1edc7fd64eb21e047a839171b9190a45050565b600260c95403610c585760405162461bcd60e51b815260206004820152601f60248201527f5265656e7472616e637947756172643a207265656e7472616e742063616c6c0060448201526064016105d5565b600260c955565b6000763d602d80600a3d3981f3363d3d373d3d3d363d730000008260601b60e81c176000526e5af43d82803e903d91602b57fd5bf38260781b17602052603760096000f090506001600160a01b038116610cfb5760405162461bcd60e51b815260206004820152601660248201527f455243313136373a20637265617465206661696c65640000000000000000000060448201526064016105d5565b919050565b600054610100900460ff16610d7d5760405162461bcd60e51b815260206004820152602b60248201527f496e697469616c697a61626c653a20636f6e7472616374206973206e6f74206960448201527f6e697469616c697a696e6700000000000000000000000000000000000000000060648201526084016105d5565b6108f8610e59565b603380546001600160a01b0383811673ffffffffffffffffffffffffffffffffffffffff19831681179093556040519116919082907f8be0079c531659141344cd1fd0a4f28419497f9722a3daafe3b4186f6b6457e090600090a35050565b60008281526097602090815260408083206001600160a01b038516845290915290205460ff166105e857610e1781610edf565b610e22836020610ef1565b604051602001610e33929190611642565b60408051601f198184030181529082905262461bcd60e51b82526105d5916004016116c3565b600054610100900460ff16610ed65760405162461bcd60e51b815260206004820152602b60248201527f496e697469616c697a61626c653a20636f6e7472616374206973206e6f74206960448201527f6e697469616c697a696e6700000000000000000000000000000000000000000060648201526084016105d5565b6108f833610d85565b60606104896001600160a01b03831660145b60606000610f008360026116ec565b610f0b906002611703565b67ffffffffffffffff811115610f2357610f236111da565b6040519080825280601f01601f191660200182016040528015610f4d576020820181803683370190505b5090507f300000000000000000000000000000000000000000000000000000000000000081600081518110610f8457610f84611716565b60200101907effffffffffffffffffffffffffffffffffffffffffffffffffffffffffffff1916908160001a9053507f780000000000000000000000000000000000000000000000000000000000000081600181518110610fe757610fe7611716565b60200101907effffffffffffffffffffffffffffffffffffffffffffffffffffffffffffff1916908160001a90535060006110238460026116ec565b61102e906001611703565b90505b60018111156110cb577f303132333435363738396162636465660000000000000000000000000000000085600f166010811061106f5761106f611716565b1a60f81b82828151811061108557611085611716565b60200101907effffffffffffffffffffffffffffffffffffffffffffffffffffffffffffff1916908160001a90535060049490941c936110c48161172c565b9050611031565b50831561111a5760405162461bcd60e51b815260206004820181905260248201527f537472696e67733a20686578206c656e67746820696e73756666696369656e7460448201526064016105d5565b9392505050565b60006020828403121561113357600080fd5b81357fffffffff000000000000000000000000000000000000000000000000000000008116811461111a57600080fd5b60006020828403121561117557600080fd5b5035919050565b80356001600160a01b0381168114610cfb57600080fd5b6000602082840312156111a557600080fd5b61111a8261117c565b600080604083850312156111c157600080fd5b823591506111d16020840161117c565b90509250929050565b634e487b7160e01b600052604160045260246000fd5b604051601f8201601f1916810167ffffffffffffffff81118282101715611219576112196111da565b604052919050565b600082601f83011261123257600080fd5b813567ffffffffffffffff81111561124c5761124c6111da565b61125f6020601f19601f840116016111f0565b81815284602083860101111561127457600080fd5b816020850160208301376000918101602001919091529392505050565b600067ffffffffffffffff8211156112ab576112ab6111da565b5060051b60200190565b600082601f8301126112c657600080fd5b813560206112db6112d683611291565b6111f0565b82815260059290921b840181019181810190868411156112fa57600080fd5b8286015b8481101561131557803583529183019183016112fe565b509695505050505050565b600082601f83011261133157600080fd5b813560206113416112d683611291565b82815260059290921b8401810191818101908684111561136057600080fd5b8286015b84811015611315576113758161117c565b8352918301918301611364565b600080600080600080600080610100898b03121561139f57600080fd5b883567ffffffffffffffff808211156113b757600080fd5b6113c38c838d01611221565b995060208b01359150808211156113d957600080fd5b6113e58c838d01611221565b985060408b01359150808211156113fb57600080fd5b6114078c838d01611221565b975060608b013591508082111561141d57600080fd5b6114298c838d016112b5565b965060808b013591508082111561143f57600080fd5b61144b8c838d016112b5565b955060a08b013591508082111561146157600080fd5b61146d8c838d01611320565b945060c08b013591508082111561148357600080fd5b506114908b828c016112b5565b92505060e089013590509295985092959890939650565b600080604083850312156114ba57600080fd5b6114c38361117c565b91506111d16020840161117c565b60005b838110156114ec5781810151838201526020016114d4565b50506000910152565b6000815180845261150d8160208601602086016114d1565b601f01601f19169290920160200192915050565b600081518084526020808501945080840160005b8381101561155157815187529582019590820190600101611535565b509495945050505050565b60006101208083526115708184018d6114f5565b9050602083820381850152611585828d6114f5565b91508382036040850152611599828c6114f5565b915083820360608501526115ad828b611521565b915083820360808501526115c1828a611521565b84810360a08601528851808252828a0193509082019060005b818110156115ff5784516001600160a01b0316835293830193918301916001016115da565b505084810360c08601526116138189611521565b935050505061162d60e08301856001600160a01b03169052565b826101008301529a9950505050505050505050565b7f416363657373436f6e74726f6c3a206163636f756e742000000000000000000081526000835161167a8160178501602088016114d1565b7f206973206d697373696e6720726f6c652000000000000000000000000000000060179184019182015283516116b78160288401602088016114d1565b01602801949350505050565b60208152600061111a60208301846114f5565b634e487b7160e01b600052601160045260246000fd5b8082028115828204841417610489576104896116d6565b80820180821115610489576104896116d6565b634e487b7160e01b600052603260045260246000fd5b60008161173b5761173b6116d6565b507fffffffffffffffffffffffffffffffffffffffffffffffffffffffffffffffff019056fea26469706673582212201ed1235065ff47069571ca92dd81c4de314fbe7e98c48df5b71a12b72c83f0ed64736f6c63430008110033",
  "linkReferences": {},
  "deployedLinkReferences": {}
}