{
  "_format": "hh-sol-artifact-1",
  "contractName": "NFTix721",
  "sourceName": "contracts/NFTix721.sol",
  "abi": [
    {
      "inputs": [
        {
          "internalType": "bool",
          "name": "isBase_",
          "type": "bool"
        },
        {
          "internalType": "string",
          "name": "name_",
          "type": "string"
        },
        {
          "internalType": "string",
          "name": "symbol_",
          "type": "string"
        }
      ],
      "stateMutability": "nonpayable",
      "type": "constructor"
    },
    {
      "inputs": [],
      "name": "FallbackDisabled",
      "type": "error"
    },
    {
      "anonymous": false,
      "inputs": [
        {
          "indexed": true,
          "internalType": "address",
          "name": "to",
          "type": "address"
        },
        {
          "indexed": false,
          "internalType": "uint256[]",
          "name": "ticketTypeCounts",
          "type": "uint256[]"
        }
      ],
      "name": "AdminMint",
      "type": "event"
    },
    {
      "anonymous": false,
      "inputs": [
        {
          "indexed": true,
          "internalType": "address",
          "name": "owner",
          "type": "address"
        },
        {
          "indexed": true,
          "internalType": "address",
          "name": "approved",
          "type": "address"
        },
        {
          "indexed": true,
          "internalType": "uint256",
          "name": "tokenId",
          "type": "uint256"
        }
      ],
      "name": "Approval",
      "type": "event"
    },
    {
      "anonymous": false,
      "inputs": [
        {
          "indexed": true,
          "internalType": "address",
          "name": "owner",
          "type": "address"
        },
        {
          "indexed": true,
          "internalType": "address",
          "name": "operator",
          "type": "address"
        },
        {
          "indexed": false,
          "internalType": "bool",
          "name": "approved",
          "type": "bool"
        }
      ],
      "name": "ApprovalForAll",
      "type": "event"
    },
    {
      "anonymous": false,
      "inputs": [
        {
          "indexed": true,
          "internalType": "contract IERC20",
          "name": "token",
          "type": "address"
        },
        {
          "indexed": false,
          "internalType": "address",
          "name": "to",
          "type": "address"
        },
        {
          "indexed": false,
          "internalType": "uint256",
          "name": "amount",
          "type": "uint256"
        }
      ],
      "name": "ERC20PaymentReleased",
      "type": "event"
    },
    {
      "anonymous": false,
      "inputs": [
        {
          "indexed": false,
          "internalType": "uint8",
          "name": "version",
          "type": "uint8"
        }
      ],
      "name": "Initialized",
      "type": "event"
    },
    {
      "anonymous": false,
      "inputs": [
        {
          "indexed": false,
          "internalType": "address",
          "name": "account",
          "type": "address"
        }
      ],
      "name": "Paused",
      "type": "event"
    },
    {
      "anonymous": false,
      "inputs": [
        {
          "indexed": false,
          "internalType": "address",
          "name": "account",
          "type": "address"
        },
        {
          "indexed": false,
          "internalType": "uint256",
          "name": "shares",
          "type": "uint256"
        }
      ],
      "name": "PayeeAdded",
      "type": "event"
    },
    {
      "anonymous": false,
      "inputs": [
        {
          "indexed": false,
          "internalType": "address",
          "name": "from",
          "type": "address"
        },
        {
          "indexed": false,
          "internalType": "uint256",
          "name": "amount",
          "type": "uint256"
        }
      ],
      "name": "PaymentReceived",
      "type": "event"
    },
    {
      "anonymous": false,
      "inputs": [
        {
          "indexed": false,
          "internalType": "address",
          "name": "to",
          "type": "address"
        },
        {
          "indexed": false,
          "internalType": "uint256",
          "name": "amount",
          "type": "uint256"
        }
      ],
      "name": "PaymentReleased",
      "type": "event"
    },
    {
      "anonymous": false,
      "inputs": [
        {
          "indexed": false,
          "internalType": "enum NFTix721.Phase",
          "name": "phase",
          "type": "uint8"
        },
        {
          "indexed": false,
          "internalType": "uint256[]",
          "name": "mintPrice",
          "type": "uint256[]"
        },
        {
          "indexed": false,
          "internalType": "uint256",
          "name": "mintingLimit",
          "type": "uint256"
        }
      ],
      "name": "PhaseChange",
      "type": "event"
    },
    {
      "anonymous": false,
      "inputs": [
        {
          "indexed": true,
          "internalType": "address",
          "name": "from",
          "type": "address"
        },
        {
          "indexed": true,
          "internalType": "address",
          "name": "to",
          "type": "address"
        },
        {
          "indexed": true,
          "internalType": "uint256",
          "name": "tokenId",
          "type": "uint256"
        }
      ],
      "name": "Transfer",
      "type": "event"
    },
    {
      "anonymous": false,
      "inputs": [
        {
          "indexed": false,
          "internalType": "address",
          "name": "account",
          "type": "address"
        }
      ],
      "name": "Unpaused",
      "type": "event"
    },
    {
      "anonymous": false,
      "inputs": [
        {
          "indexed": true,
          "internalType": "address",
          "name": "to",
          "type": "address"
        },
        {
          "indexed": false,
          "internalType": "uint256[]",
          "name": "ticketTypeCounts",
          "type": "uint256[]"
        }
      ],
      "name": "UserMint",
      "type": "event"
    },
    {
      "stateMutability": "payable",
      "type": "fallback"
    },
    {
      "inputs": [
        {
          "internalType": "uint256[]",
          "name": "ticketRanges_",
          "type": "uint256[]"
        },
        {
          "internalType": "uint256[]",
          "name": "ticketPrices_",
          "type": "uint256[]"
        }
      ],
      "name": "addTicketTypes",
      "outputs": [],
      "stateMutability": "nonpayable",
      "type": "function"
    },
    {
      "inputs": [
        {
          "internalType": "address",
          "name": "to",
          "type": "address"
        },
        {
          "internalType": "uint256[]",
          "name": "amount",
          "type": "uint256[]"
        }
      ],
      "name": "adminMint",
      "outputs": [],
      "stateMutability": "nonpayable",
      "type": "function"
    },
    {
      "inputs": [
        {
          "internalType": "address",
          "name": "to",
          "type": "address"
        },
        {
          "internalType": "uint256",
          "name": "tokenId",
          "type": "uint256"
        }
      ],
      "name": "approve",
      "outputs": [],
      "stateMutability": "nonpayable",
      "type": "function"
    },
    {
      "inputs": [
        {
          "internalType": "address",
          "name": "owner",
          "type": "address"
        }
      ],
      "name": "balanceOf",
      "outputs": [
        {
          "internalType": "uint256",
          "name": "",
          "type": "uint256"
        }
      ],
      "stateMutability": "view",
      "type": "function"
    },
    {
      "inputs": [
        {
          "internalType": "uint256",
          "name": "tokenId",
          "type": "uint256"
        }
      ],
      "name": "burn",
      "outputs": [],
      "stateMutability": "nonpayable",
      "type": "function"
    },
    {
      "inputs": [
        {
          "internalType": "string",
          "name": "newBaseURI",
          "type": "string"
        }
      ],
      "name": "changeBaseURI",
      "outputs": [],
      "stateMutability": "nonpayable",
      "type": "function"
    },
    {
      "inputs": [
        {
          "internalType": "bytes32",
          "name": "merkleRoot",
          "type": "bytes32"
        }
      ],
      "name": "changeMerkleRoot",
      "outputs": [],
      "stateMutability": "nonpayable",
      "type": "function"
    },
    {
      "inputs": [
        {
          "internalType": "uint32",
          "name": "mintingLimit_",
          "type": "uint32"
        }
      ],
      "name": "changeMintingLimit",
      "outputs": [],
      "stateMutability": "nonpayable",
      "type": "function"
    },
    {
      "inputs": [
        {
          "internalType": "address",
          "name": "newAdmin",
          "type": "address"
        }
      ],
      "name": "changeTicketPlatformAdmin",
      "outputs": [],
      "stateMutability": "nonpayable",
      "type": "function"
    },
    {
      "inputs": [
        {
          "internalType": "uint256",
          "name": "tokenTypeId",
          "type": "uint256"
        },
        {
          "internalType": "uint256",
          "name": "price",
          "type": "uint256"
        }
      ],
      "name": "changeTicketPrice",
      "outputs": [],
      "stateMutability": "nonpayable",
      "type": "function"
    },
    {
      "inputs": [
        {
          "internalType": "uint256[]",
          "name": "amount",
          "type": "uint256[]"
        }
      ],
      "name": "checkMaxSupplyPerTicketType",
      "outputs": [
        {
          "internalType": "bool",
          "name": "",
          "type": "bool"
        }
      ],
      "stateMutability": "view",
      "type": "function"
    },
    {
      "inputs": [
        {
          "internalType": "uint256",
          "name": "tokenId",
          "type": "uint256"
        }
      ],
      "name": "getApproved",
      "outputs": [
        {
          "internalType": "address",
          "name": "",
          "type": "address"
        }
      ],
      "stateMutability": "view",
      "type": "function"
    },
    {
      "inputs": [
        {
          "internalType": "address",
          "name": "account_",
          "type": "address"
        }
      ],
      "name": "getDuePayment",
      "outputs": [
        {
          "internalType": "uint256",
          "name": "",
          "type": "uint256"
        }
      ],
      "stateMutability": "view",
      "type": "function"
    },
    {
      "inputs": [
        {
          "internalType": "uint256",
          "name": "ticketTypeId",
          "type": "uint256"
        }
      ],
      "name": "getNextTicketId",
      "outputs": [
        {
          "internalType": "uint256",
          "name": "",
          "type": "uint256"
        }
      ],
      "stateMutability": "view",
      "type": "function"
    },
    {
      "inputs": [],
      "name": "getPayees",
      "outputs": [
        {
          "internalType": "address[]",
          "name": "",
          "type": "address[]"
        }
      ],
      "stateMutability": "view",
      "type": "function"
    },
    {
      "inputs": [],
      "name": "getPhase",
      "outputs": [
        {
          "internalType": "enum NFTix721.Phase",
          "name": "",
          "type": "uint8"
        }
      ],
      "stateMutability": "view",
      "type": "function"
    },
    {
      "inputs": [
        {
          "internalType": "uint256",
          "name": "tokenId",
          "type": "uint256"
        }
      ],
      "name": "getTicket",
      "outputs": [
        {
          "components": [
            {
              "internalType": "uint256",
              "name": "ticketType",
              "type": "uint256"
            },
            {
              "internalType": "uint256",
              "name": "tokenId",
              "type": "uint256"
            }
          ],
          "internalType": "struct NFTix721.Ticket",
          "name": "",
          "type": "tuple"
        }
      ],
      "stateMutability": "view",
      "type": "function"
    },
    {
      "inputs": [
        {
          "internalType": "uint256",
          "name": "ticketTypeId",
          "type": "uint256"
        }
      ],
      "name": "getTicketPrice",
      "outputs": [
        {
          "internalType": "uint256",
          "name": "",
          "type": "uint256"
        }
      ],
      "stateMutability": "view",
      "type": "function"
    },
    {
      "inputs": [
        {
          "internalType": "string",
          "name": "name_",
          "type": "string"
        },
        {
          "internalType": "string",
          "name": "symbol_",
          "type": "string"
        },
        {
          "internalType": "string",
          "name": "uri_",
          "type": "string"
        },
        {
          "internalType": "uint256[]",
          "name": "ticketPrices_",
          "type": "uint256[]"
        },
        {
          "internalType": "uint256[]",
          "name": "ticketRanges_",
          "type": "uint256[]"
        },
        {
          "internalType": "address[]",
          "name": "payees_",
          "type": "address[]"
        },
        {
          "internalType": "uint256[]",
          "name": "shares_",
          "type": "uint256[]"
        },
        {
          "internalType": "address",
          "name": "defaultPlatformAdmin",
          "type": "address"
        },
        {
          "internalType": "address",
          "name": "owner_",
          "type": "address"
        },
        {
          "internalType": "uint32",
          "name": "mintingLimit_",
          "type": "uint32"
        },
        {
          "internalType": "bytes32",
          "name": "root_",
          "type": "bytes32"
        }
      ],
      "name": "initialize",
      "outputs": [],
      "stateMutability": "nonpayable",
      "type": "function"
    },
    {
      "inputs": [
        {
          "internalType": "address",
          "name": "owner",
          "type": "address"
        },
        {
          "internalType": "address",
          "name": "operator",
          "type": "address"
        }
      ],
      "name": "isApprovedForAll",
      "outputs": [
        {
          "internalType": "bool",
          "name": "",
          "type": "bool"
        }
      ],
      "stateMutability": "view",
      "type": "function"
    },
    {
      "inputs": [],
      "name": "isBase",
      "outputs": [
        {
          "internalType": "bool",
          "name": "",
          "type": "bool"
        }
      ],
      "stateMutability": "view",
      "type": "function"
    },
    {
      "inputs": [],
      "name": "maxId",
      "outputs": [
        {
          "internalType": "uint256",
          "name": "",
          "type": "uint256"
        }
      ],
      "stateMutability": "view",
      "type": "function"
    },
    {
      "inputs": [
        {
          "internalType": "address",
          "name": "to",
          "type": "address"
        },
        {
          "internalType": "bytes32[]",
          "name": "_proof",
          "type": "bytes32[]"
        },
        {
          "internalType": "uint256[]",
          "name": "ticketTypeCounts",
          "type": "uint256[]"
        }
      ],
      "name": "mint",
      "outputs": [],
      "stateMutability": "payable",
      "type": "function"
    },
    {
      "inputs": [],
      "name": "mintingLimit",
      "outputs": [
        {
          "internalType": "uint32",
          "name": "",
          "type": "uint32"
        }
      ],
      "stateMutability": "view",
      "type": "function"
    },
    {
      "inputs": [
        {
          "internalType": "address",
          "name": "",
          "type": "address"
        }
      ],
      "name": "mintsPerUser",
      "outputs": [
        {
          "internalType": "uint256",
          "name": "",
          "type": "uint256"
        }
      ],
      "stateMutability": "view",
      "type": "function"
    },
    {
      "inputs": [
        {
          "internalType": "uint256",
          "name": "",
          "type": "uint256"
        },
        {
          "internalType": "address",
          "name": "",
          "type": "address"
        }
      ],
      "name": "mintsPerUserPerType",
      "outputs": [
        {
          "internalType": "uint256",
          "name": "",
          "type": "uint256"
        }
      ],
      "stateMutability": "view",
      "type": "function"
    },
    {
      "inputs": [],
      "name": "name",
      "outputs": [
        {
          "internalType": "string",
          "name": "",
          "type": "string"
        }
      ],
      "stateMutability": "view",
      "type": "function"
    },
    {
      "inputs": [],
      "name": "owner",
      "outputs": [
        {
          "internalType": "address",
          "name": "",
          "type": "address"
        }
      ],
      "stateMutability": "view",
      "type": "function"
    },
    {
      "inputs": [
        {
          "internalType": "uint256",
          "name": "tokenId",
          "type": "uint256"
        }
      ],
      "name": "ownerOf",
      "outputs": [
        {
          "internalType": "address",
          "name": "",
          "type": "address"
        }
      ],
      "stateMutability": "view",
      "type": "function"
    },
    {
      "inputs": [],
      "name": "pause",
      "outputs": [],
      "stateMutability": "nonpayable",
      "type": "function"
    },
    {
      "inputs": [],
      "name": "paused",
      "outputs": [
        {
          "internalType": "bool",
          "name": "",
          "type": "bool"
        }
      ],
      "stateMutability": "view",
      "type": "function"
    },
    {
      "inputs": [
        {
          "internalType": "bool",
          "name": "activate",
          "type": "bool"
        }
      ],
      "name": "paymentStatus",
      "outputs": [],
      "stateMutability": "nonpayable",
      "type": "function"
    },
    {
      "inputs": [
        {
          "internalType": "address payable",
          "name": "account",
          "type": "address"
        }
      ],
      "name": "release",
      "outputs": [],
      "stateMutability": "nonpayable",
      "type": "function"
    },
    {
      "inputs": [
        {
          "internalType": "contract IERC20",
          "name": "token",
          "type": "address"
        },
        {
          "internalType": "address",
          "name": "account",
          "type": "address"
        }
      ],
      "name": "release",
      "outputs": [],
      "stateMutability": "nonpayable",
      "type": "function"
    },
    {
      "inputs": [
        {
          "internalType": "contract IERC20",
          "name": "token",
          "type": "address"
        },
        {
          "internalType": "address",
          "name": "account",
          "type": "address"
        }
      ],
      "name": "released",
      "outputs": [
        {
          "internalType": "uint256",
          "name": "",
          "type": "uint256"
        }
      ],
      "stateMutability": "view",
      "type": "function"
    },
    {
      "inputs": [
        {
          "internalType": "address",
          "name": "account",
          "type": "address"
        }
      ],
      "name": "released",
      "outputs": [
        {
          "internalType": "uint256",
          "name": "",
          "type": "uint256"
        }
      ],
      "stateMutability": "view",
      "type": "function"
    },
    {
      "inputs": [
        {
          "internalType": "address",
          "name": "from",
          "type": "address"
        },
        {
          "internalType": "address",
          "name": "to",
          "type": "address"
        },
        {
          "internalType": "uint256",
          "name": "tokenId",
          "type": "uint256"
        }
      ],
      "name": "safeTransferFrom",
      "outputs": [],
      "stateMutability": "nonpayable",
      "type": "function"
    },
    {
      "inputs": [
        {
          "internalType": "address",
          "name": "from",
          "type": "address"
        },
        {
          "internalType": "address",
          "name": "to",
          "type": "address"
        },
        {
          "internalType": "uint256",
          "name": "tokenId",
          "type": "uint256"
        },
        {
          "internalType": "bytes",
          "name": "data",
          "type": "bytes"
        }
      ],
      "name": "safeTransferFrom",
      "outputs": [],
      "stateMutability": "nonpayable",
      "type": "function"
    },
    {
      "inputs": [
        {
          "internalType": "address",
          "name": "operator",
          "type": "address"
        },
        {
          "internalType": "bool",
          "name": "approved",
          "type": "bool"
        }
      ],
      "name": "setApprovalForAll",
      "outputs": [],
      "stateMutability": "nonpayable",
      "type": "function"
    },
    {
      "inputs": [
        {
          "internalType": "enum NFTix721.Phase",
          "name": "phase",
          "type": "uint8"
        },
        {
          "internalType": "uint256[]",
          "name": "mintCost",
          "type": "uint256[]"
        },
        {
          "internalType": "uint32",
          "name": "mintingLimit_",
          "type": "uint32"
        }
      ],
      "name": "setPhase",
      "outputs": [],
      "stateMutability": "nonpayable",
      "type": "function"
    },
    {
      "inputs": [
        {
          "internalType": "address",
          "name": "account",
          "type": "address"
        }
      ],
      "name": "shares",
      "outputs": [
        {
          "internalType": "uint256",
          "name": "",
          "type": "uint256"
        }
      ],
      "stateMutability": "view",
      "type": "function"
    },
    {
      "inputs": [
        {
          "internalType": "bytes4",
          "name": "interfaceId",
          "type": "bytes4"
        }
      ],
      "name": "supportsInterface",
      "outputs": [
        {
          "internalType": "bool",
          "name": "",
          "type": "bool"
        }
      ],
      "stateMutability": "view",
      "type": "function"
    },
    {
      "inputs": [],
      "name": "symbol",
      "outputs": [
        {
          "internalType": "string",
          "name": "",
          "type": "string"
        }
      ],
      "stateMutability": "view",
      "type": "function"
    },
    {
      "inputs": [],
      "name": "ticketPlatformAdmin",
      "outputs": [
        {
          "internalType": "address",
          "name": "",
          "type": "address"
        }
      ],
      "stateMutability": "view",
      "type": "function"
    },
    {
      "inputs": [
        {
          "internalType": "uint256",
          "name": "",
          "type": "uint256"
        }
      ],
      "name": "ticketTypes",
      "outputs": [
        {
          "internalType": "uint256",
          "name": "ticketCount",
          "type": "uint256"
        },
        {
          "internalType": "uint256",
          "name": "startTokenId",
          "type": "uint256"
        },
        {
          "internalType": "uint256",
          "name": "endTokenId",
          "type": "uint256"
        },
        {
          "internalType": "uint256",
          "name": "price",
          "type": "uint256"
        },
        {
          "internalType": "uint256",
          "name": "currentTokenId",
          "type": "uint256"
        }
      ],
      "stateMutability": "view",
      "type": "function"
    },
    {
      "inputs": [
        {
          "internalType": "uint256",
          "name": "",
          "type": "uint256"
        }
      ],
      "name": "tokenPrices",
      "outputs": [
        {
          "internalType": "uint256",
          "name": "",
          "type": "uint256"
        }
      ],
      "stateMutability": "view",
      "type": "function"
    },
    {
      "inputs": [
        {
          "internalType": "uint256",
          "name": "",
          "type": "uint256"
        }
      ],
      "name": "tokenRanges",
      "outputs": [
        {
          "internalType": "uint256",
          "name": "",
          "type": "uint256"
        }
      ],
      "stateMutability": "view",
      "type": "function"
    },
    {
      "inputs": [
        {
          "internalType": "uint256",
          "name": "tokenId",
          "type": "uint256"
        }
      ],
      "name": "tokenURI",
      "outputs": [
        {
          "internalType": "string",
          "name": "",
          "type": "string"
        }
      ],
      "stateMutability": "view",
      "type": "function"
    },
    {
      "inputs": [
        {
          "internalType": "contract IERC20",
          "name": "token",
          "type": "address"
        }
      ],
      "name": "totalReleased",
      "outputs": [
        {
          "internalType": "uint256",
          "name": "",
          "type": "uint256"
        }
      ],
      "stateMutability": "view",
      "type": "function"
    },
    {
      "inputs": [],
      "name": "totalReleased",
      "outputs": [
        {
          "internalType": "uint256",
          "name": "",
          "type": "uint256"
        }
      ],
      "stateMutability": "view",
      "type": "function"
    },
    {
      "inputs": [],
      "name": "totalShares",
      "outputs": [
        {
          "internalType": "uint256",
          "name": "",
          "type": "uint256"
        }
      ],
      "stateMutability": "view",
      "type": "function"
    },
    {
      "inputs": [],
      "name": "totalSupply",
      "outputs": [
        {
          "internalType": "uint64",
          "name": "",
          "type": "uint64"
        }
      ],
      "stateMutability": "view",
      "type": "function"
    },
    {
      "inputs": [
        {
          "internalType": "address",
          "name": "from",
          "type": "address"
        },
        {
          "internalType": "address",
          "name": "to",
          "type": "address"
        },
        {
          "internalType": "uint256",
          "name": "tokenId",
          "type": "uint256"
        }
      ],
      "name": "transferFrom",
      "outputs": [],
      "stateMutability": "nonpayable",
      "type": "function"
    },
    {
      "inputs": [],
      "name": "unpause",
      "outputs": [],
      "stateMutability": "nonpayable",
      "type": "function"
    },
    {
      "stateMutability": "payable",
      "type": "receive"
    }
  ],
  "bytecode": "0x60806040526013805461ffff1916610100179055601a8054610100600160481b03191690553480156200003157600080fd5b50604051620059b2380380620059b283398101604081905262000054916200017c565b818160016200006483826200028e565b5060026200007382826200028e565b50506007805460ff19908116909155601a80549091168515151790555060146200009e83826200028e565b506015620000ad82826200028e565b505050506200035a565b634e487b7160e01b600052604160045260246000fd5b600082601f830112620000df57600080fd5b81516001600160401b0380821115620000fc57620000fc620000b7565b604051601f8301601f19908116603f01168101908282118183101715620001275762000127620000b7565b816040528381526020925086838588010111156200014457600080fd5b600091505b8382101562000168578582018301518183018401529082019062000149565b600093810190920192909252949350505050565b6000806000606084860312156200019257600080fd5b83518015158114620001a357600080fd5b60208501519093506001600160401b0380821115620001c157600080fd5b620001cf87838801620000cd565b93506040860151915080821115620001e657600080fd5b50620001f586828701620000cd565b9150509250925092565b600181811c908216806200021457607f821691505b6020821081036200023557634e487b7160e01b600052602260045260246000fd5b50919050565b601f8211156200028957600081815260208120601f850160051c81016020861015620002645750805b601f850160051c820191505b81811015620002855782815560010162000270565b5050505b505050565b81516001600160401b03811115620002aa57620002aa620000b7565b620002c281620002bb8454620001ff565b846200023b565b602080601f831160018114620002fa5760008415620002e15750858301515b600019600386901b1c1916600185901b17855562000285565b600085815260208120601f198616915b828110156200032b578886015182559484019460019091019084016200030a565b50858210156200034a5787850151600019600388901b60f8161c191681555b5050505050600190811b01905550565b615648806200036a6000396000f3fe6080604052600436106103595760003560e01c80638a6a211e116101bb578063ce7c2ac2116100f7578063e919d58611610095578063ebcea3db1161006f578063ebcea3db14610b1a578063eced028014610b3a578063f06fc96114610b5a578063f5cfed9914610b7a57610390565b8063e919d58614610a51578063e985e9c514610a89578063e9dbebce14610ad257610390565b8063d79779b2116100d1578063d79779b2146109c6578063e33b7de3146109fc578063e5afe3e614610a11578063e8a0caa614610a3157610390565b8063ce7c2ac214610950578063d3fe223914610986578063d59d64de146109a657610390565b8063a22cb46511610164578063b88d4fde1161013e578063b88d4fde146108da578063befdea57146108fa578063c5ea3c651461091a578063c87b56dd1461093057610390565b8063a22cb4651461087a578063a8985e251461089a578063abff9393146108ad57610390565b806395d89b411161019557806395d89b411461080f57806395f6beb1146108245780639852595c1461084457610390565b80638a6a211e146107af5780638d61806b146107cf5780638da5cb5b146107ef57610390565b8063406072a9116102955780636352211e116102335780637341021e1161020d5780637341021e146107255780637dc379fa146107455780637f80069a146107805780638456cb591461079a57610390565b80636352211e146106c557806370a08231146106e5578063724808591461070557610390565b806345ece7d91161026f57806345ece7d91461063b57806348b750441461065b57806349072f121461067b5780635c975abb146106ad57610390565b8063406072a9146105b557806342842e0e146105fb57806342966c681461061b57610390565b8063191655871161030257806327f38113116102dc57806327f381131461053f57806339a0c6f9146105615780633a98ef39146105815780633f4ba83a146105a057610390565b806319165587146104df5780631de3da0a146104ff57806323b872dd1461051f57610390565b8063095ea7b311610333578063095ea7b314610451578063172ad5191461047357806318160ddd146104a057610390565b806301ffc9a7146103c257806306fdde03146103f7578063081812fc1461041957610390565b36610390576040517f687b764e00000000000000000000000000000000000000000000000000000000815260040160405180910390fd5b6040517f687b764e00000000000000000000000000000000000000000000000000000000815260040160405180910390fd5b3480156103ce57600080fd5b506103e26103dd366004614998565b610b9a565b60405190151581526020015b60405180910390f35b34801561040357600080fd5b5061040c610c7f565b6040516103ee9190614a05565b34801561042557600080fd5b50610439610434366004614a18565b610d11565b6040516001600160a01b0390911681526020016103ee565b34801561045d57600080fd5b5061047161046c366004614a56565b610d38565b005b34801561047f57600080fd5b50601a5461043990690100000000000000000090046001600160a01b031681565b3480156104ac57600080fd5b50601a546104c690610100900467ffffffffffffffff1681565b60405167ffffffffffffffff90911681526020016103ee565b3480156104eb57600080fd5b506104716104fa366004614a82565b610e6e565b34801561050b57600080fd5b5061047161051a366004614a82565b610ecc565b34801561052b57600080fd5b5061047161053a366004614a9f565b610fe5565b34801561054b57600080fd5b5061055461106c565b6040516103ee9190614ae0565b34801561056d57600080fd5b5061047161057c366004614bec565b6110cd565b34801561058d57600080fd5b506008545b6040519081526020016103ee565b3480156105ac57600080fd5b506104716111f9565b3480156105c157600080fd5b506105926105d0366004614c21565b6001600160a01b039182166000908152600e6020908152604080832093909416825291909152205490565b34801561060757600080fd5b50610471610616366004614a9f565b61125d565b34801561062757600080fd5b50610471610636366004614a18565b611278565b34801561064757600080fd5b506103e2610656366004614ce9565b611392565b34801561066757600080fd5b50610471610676366004614c21565b611476565b34801561068757600080fd5b506016546106989063ffffffff1681565b60405163ffffffff90911681526020016103ee565b3480156106b957600080fd5b5060075460ff166103e2565b3480156106d157600080fd5b506104396106e0366004614a18565b61171c565b3480156106f157600080fd5b50610592610700366004614a82565b611781565b34801561071157600080fd5b50610471610720366004614d32565b61181b565b34801561073157600080fd5b50610471610740366004614d4d565b61193a565b34801561075157600080fd5b50610765610760366004614a18565b611d80565b604080518251815260209283015192810192909252016103ee565b34801561078c57600080fd5b50601a546103e29060ff1681565b3480156107a657600080fd5b50610471611e2b565b3480156107bb57600080fd5b506104716107ca366004614db1565b611e8d565b3480156107db57600080fd5b506104716107ea366004614e15565b6120c1565b3480156107fb57600080fd5b50601b54610439906001600160a01b031681565b34801561081b57600080fd5b5061040c6123a6565b34801561083057600080fd5b5061047161083f366004614e5b565b6123b5565b34801561085057600080fd5b5061059261085f366004614a82565b6001600160a01b03166000908152600b602052604090205490565b34801561088657600080fd5b50610471610895366004614e8b565b61245c565b6104716108a8366004614eb9565b612467565b3480156108b957600080fd5b506105926108c8366004614a82565b601d6020526000908152604090205481565b3480156108e657600080fd5b506104716108f5366004614f86565b61288f565b34801561090657600080fd5b50610592610915366004614a18565b61291d565b34801561092657600080fd5b5061059260195481565b34801561093c57600080fd5b5061040c61094b366004614a18565b61299d565b34801561095c57600080fd5b5061059261096b366004614a82565b6001600160a01b03166000908152600a602052604090205490565b34801561099257600080fd5b506104716109a136600461506a565b612a04565b3480156109b257600080fd5b506104716109c13660046151c9565b612fd9565b3480156109d257600080fd5b506105926109e1366004614a82565b6001600160a01b03166000908152600d602052604090205490565b348015610a0857600080fd5b50600954610592565b348015610a1d57600080fd5b50610592610a2c366004614a18565b613053565b348015610a3d57600080fd5b50610592610a4c366004614a18565b613074565b348015610a5d57600080fd5b50610592610a6c3660046151e6565b601c60209081526000928352604080842090915290825290205481565b348015610a9557600080fd5b506103e2610aa4366004614c21565b6001600160a01b03918216600090815260066020908152604080832093909416825291909152205460ff1690565b348015610ade57600080fd5b50610af2610aed366004614a18565b613084565b604080519586526020860194909452928401919091526060830152608082015260a0016103ee565b348015610b2657600080fd5b50610471610b35366004614a18565b6130c5565b348015610b4657600080fd5b50600f5460ff166040516103ee9190615243565b348015610b6657600080fd5b50610592610b75366004614a18565b61319b565b348015610b8657600080fd5b50610592610b95366004614a82565b61321b565b60007fffffffff0000000000000000000000000000000000000000000000000000000082167f80ac58cd000000000000000000000000000000000000000000000000000000001480610c2d57507fffffffff0000000000000000000000000000000000000000000000000000000082167f5b5e139f00000000000000000000000000000000000000000000000000000000145b80610c7957507f01ffc9a7000000000000000000000000000000000000000000000000000000007fffffffff000000000000000000000000000000000000000000000000000000008316145b92915050565b606060148054610c8e90615251565b80601f0160208091040260200160405190810160405280929190818152602001828054610cba90615251565b8015610d075780601f10610cdc57610100808354040283529160200191610d07565b820191906000526020600020905b815481529060010190602001808311610cea57829003601f168201915b5050505050905090565b6000610d1c8261327b565b506000908152600560205260409020546001600160a01b031690565b6000610d438261171c565b9050806001600160a01b0316836001600160a01b031603610dd15760405162461bcd60e51b815260206004820152602160248201527f4552433732313a20617070726f76616c20746f2063757272656e74206f776e6560448201527f720000000000000000000000000000000000000000000000000000000000000060648201526084015b60405180910390fd5b336001600160a01b0382161480610ded5750610ded8133610aa4565b610e5f5760405162461bcd60e51b815260206004820152603d60248201527f4552433732313a20617070726f76652063616c6c6572206973206e6f7420746f60448201527f6b656e206f776e6572206f7220617070726f76656420666f7220616c6c0000006064820152608401610dc8565b610e6983836132df565b505050565b60135460ff16610ec05760405162461bcd60e51b815260206004820152601460248201527f43616e6e6f742072656c656173652066756e64730000000000000000000000006044820152606401610dc8565b610ec98161335a565b50565b601a54690100000000000000000090046001600160a01b03163314610f335760405162461bcd60e51b815260206004820152601760248201527f43616c6c6572206973206e6f74207468652061646d696e0000000000000000006044820152606401610dc8565b601a546001600160a01b036901000000000000000000909104811690821603610f9e5760405162461bcd60e51b815260206004820152601660248201527f53616d65206164647265737320666f722061646d696e000000000000000000006044820152606401610dc8565b601a80546001600160a01b039092166901000000000000000000027fffffff0000000000000000000000000000000000000000ffffffffffffffffff909216919091179055565b610fef338261352a565b6110615760405162461bcd60e51b815260206004820152602d60248201527f4552433732313a2063616c6c6572206973206e6f7420746f6b656e206f776e6560448201527f72206f7220617070726f766564000000000000000000000000000000000000006064820152608401610dc8565b610e698383836135a9565b6060600c805480602002602001604051908101604052809291908181526020018280548015610d0757602002820191906000526020600020905b81546001600160a01b031681526001909101906020018083116110a6575050505050905090565b601b546001600160a01b031633146111275760405162461bcd60e51b815260206004820152601960248201527f4f61736973584e4654313135353a206f6e6c79206f776e6572000000000000006044820152606401610dc8565b80604051602001611138919061528b565b60405160208183030381529060405280519060200120601060405160200161116091906152a7565b60405160208183030381529060405280519060200120036111e95760405162461bcd60e51b815260206004820152602860248201527f546865206261736520757269206973207468652073616d65206173207468652060448201527f70726576696f75730000000000000000000000000000000000000000000000006064820152608401610dc8565b60106111f5828261536b565b5050565b601b546001600160a01b031633146112535760405162461bcd60e51b815260206004820152601960248201527f4f61736973584e4654313135353a206f6e6c79206f776e6572000000000000006044820152606401610dc8565b61125b6137df565b565b610e698383836040518060200160405280600081525061288f565b336112c55760405162461bcd60e51b815260206004820152601960248201527f4d73672073656e6465722063616e6e6f74206265207a65726f000000000000006044820152606401610dc8565b6000818152600360205260409020546001600160a01b03166113295760405162461bcd60e51b815260206004820152601460248201527f546f6b656e20646f6573206e6f742065786973740000000000000000000000006044820152606401610dc8565b336113338261171c565b6001600160a01b0316146113895760405162461bcd60e51b815260206004820181905260248201527f4e465469783a20596f7520646f206e6f74206f776e207468697320746f6b656e6044820152606401610dc8565b610ec981613831565b6000805b825181101561146d57601f81815481106113b2576113b261542b565b906000526020600020906005020160040154601f82815481106113d7576113d761542b565b9060005260206000209060050201600201546113f39190615457565b8382815181106114055761140561542b565b6020026020010151111561145b5760405162461bcd60e51b815260206004820152601560248201527f4d617820746f6b656e20697320657863656564656400000000000000000000006044820152606401610dc8565b806114658161546a565b915050611396565b50600192915050565b6001600160a01b0381166000908152600a60205260409020546115015760405162461bcd60e51b815260206004820152602660248201527f5061796d656e7453706c69747465723a206163636f756e7420686173206e6f2060448201527f73686172657300000000000000000000000000000000000000000000000000006064820152608401610dc8565b6001600160a01b0382166000908152600d60205260408120546040517f70a082310000000000000000000000000000000000000000000000000000000081523060048201526001600160a01b038516906370a0823190602401602060405180830381865afa158015611577573d6000803e3d6000fd5b505050506040513d601f19601f8201168201806040525081019061159b9190615484565b6115a5919061549d565b905060006115e383836115de87876001600160a01b039182166000908152600e6020908152604080832093909416825291909152205490565b6138d3565b90508060000361165b5760405162461bcd60e51b815260206004820152602b60248201527f5061796d656e7453706c69747465723a206163636f756e74206973206e6f742060448201527f647565207061796d656e740000000000000000000000000000000000000000006064820152608401610dc8565b6001600160a01b038085166000908152600e602090815260408083209387168352929052908120805483929061169290849061549d565b90915550506001600160a01b0384166000908152600d6020526040812080548392906116bf90849061549d565b909155506116d09050848483613911565b604080516001600160a01b038581168252602082018490528616917f3be5b7a71e84ed12875d241991c70855ac5817d847039e17a9d895c1ceb0f18a910160405180910390a250505050565b6000818152600360205260408120546001600160a01b031680610c795760405162461bcd60e51b815260206004820152601860248201527f4552433732313a20696e76616c696420746f6b656e20494400000000000000006044820152606401610dc8565b60006001600160a01b0382166117ff5760405162461bcd60e51b815260206004820152602960248201527f4552433732313a2061646472657373207a65726f206973206e6f74206120766160448201527f6c6964206f776e657200000000000000000000000000000000000000000000006064820152608401610dc8565b506001600160a01b031660009081526004602052604090205490565b601b546001600160a01b031633146118755760405162461bcd60e51b815260206004820152601960248201527f4f61736973584e4654313135353a206f6e6c79206f776e6572000000000000006044820152606401610dc8565b601f805461188590600190615457565b815481106118955761189561542b565b9060005260206000209060050201600201548163ffffffff1610806118b8575060015b6119045760405162461bcd60e51b815260206004820152601260248201527f4d696e74206c696d697420696e76616c696400000000000000000000000000006044820152606401610dc8565b8063ffffffff1660000361191e576013805461ff00191690555b6016805463ffffffff191663ffffffff92909216919091179055565b601b546001600160a01b031633146119945760405162461bcd60e51b815260206004820152601960248201527f4f61736973584e4654313135353a206f6e6c79206f776e6572000000000000006044820152606401610dc8565b81518151146119e55760405162461bcd60e51b815260206004820152600d60248201527f546f6f4d616e79507269636573000000000000000000000000000000000000006044820152606401610dc8565b600082511180156119f857506101008251105b611a445760405162461bcd60e51b815260206004820152601260248201527f5469636b65745479706573496e76616c696400000000000000000000000000006044820152606401610dc8565b60008151118015611a5757506101008151105b611aa35760405162461bcd60e51b815260206004820152601360248201527f5469636b6574507269636573496e76616c6964000000000000000000000000006044820152606401610dc8565b601f8054611ab390600190615457565b81548110611ac357611ac361542b565b90600052602060002090600502016002015482600081518110611ae857611ae861542b565b602002602001015111611b3d5760405162461bcd60e51b815260206004820152601260248201527f5469636b65745479706573496e76616c696400000000000000000000000000006044820152606401610dc8565b60008060005b8351811015611d79576000858281518110611b6057611b6061542b565b6020026020010151905060008111611bba5760405162461bcd60e51b815260206004820152601260248201527f5469636b6574436f756e74496e76616c696400000000000000000000000000006044820152606401610dc8565b601f8054611bca90600190615457565b81548110611bda57611bda61542b565b9060005260206000209060050201600201546001611bf8919061549d565b93508092506000858381518110611c1157611c1161542b565b602002602001015190506000811015611c6c5760405162461bcd60e51b815260206004820152601360248201527f5469636b6574507269636573496e76616c6964000000000000000000000000006044820152606401610dc8565b6040805160a081018252928352602083018681529083018581526060840192835260808401878152601f805460018101825560009190915294517fa03837a25210ee280c2113ff4b77ca23440b19d4866cca721c801278fd08d80760059096029586015591517fa03837a25210ee280c2113ff4b77ca23440b19d4866cca721c801278fd08d808850155517fa03837a25210ee280c2113ff4b77ca23440b19d4866cca721c801278fd08d80984015590517fa03837a25210ee280c2113ff4b77ca23440b19d4866cca721c801278fd08d80a830155517fa03837a25210ee280c2113ff4b77ca23440b19d4866cca721c801278fd08d80b9091015580611d718161546a565b915050611b43565b5050505050565b6040805180820190915260008082526020820152611db5826000908152600360205260409020546001600160a01b0316151590565b611e015760405162461bcd60e51b815260206004820152601460248201527f546f6b656e20646f6573206e6f742065786973740000000000000000000000006044820152606401610dc8565b506000908152601e6020908152604091829020825180840190935280548352600101549082015290565b601b546001600160a01b03163314611e855760405162461bcd60e51b815260206004820152601960248201527f4f61736973584e4654313135353a206f6e6c79206f776e6572000000000000006044820152606401610dc8565b61125b613991565b601b546001600160a01b03163314611ee75760405162461bcd60e51b815260206004820152601960248201527f4f61736973584e4654313135353a206f6e6c79206f776e6572000000000000006044820152606401610dc8565b826001811115611ef957611ef961520b565b600f5460ff166001811115611f1057611f1061520b565b03611f5d5760405162461bcd60e51b815260206004820152600c60248201527f496e76616c6964506861736500000000000000000000000000000000000000006044820152606401610dc8565b60005b8251811015612026576000838281518110611f7d57611f7d61542b565b60200260200101511015611fd35760405162461bcd60e51b815260206004820152600f60248201527f496e76616c69644e4654507269636500000000000000000000000000000000006044820152606401610dc8565b828181518110611fe557611fe561542b565b6020026020010151601f82815481106120005761200061542b565b60009182526020909120600360059092020101558061201e8161546a565b915050611f60565b50600f805484919060ff1916600183818111156120455761204561520b565b02179055508063ffffffff16600003612064576013805461ff00191690555b6016805463ffffffff191663ffffffff8316908117909155600f546040517fcd97b64e2b2306377369b88034854a2253c3748c473d51b1ca02d4a211287b28926120b49260ff16918691906154eb565b60405180910390a1505050565b6120c96139ce565b601b546001600160a01b031633146121235760405162461bcd60e51b815260206004820152601960248201527f4f61736973584e4654313135353a206f6e6c79206f776e6572000000000000006044820152606401610dc8565b6001600160a01b0382166121795760405162461bcd60e51b815260206004820152600e60248201527f496e76616c6964416464726573730000000000000000000000000000000000006044820152606401610dc8565b601f548151146121f15760405162461bcd60e51b815260206004820152603860248201527f5469636b6574207479706520636f756e7420706172616d6574657220646f657360448201527f206e6f74206861766520636f7272656374206c656e67746800000000000000006064820152608401610dc8565b6121fa81611392565b5060005b815181101561236057600082828151811061221b5761221b61542b565b6020026020010151905060005b818110156122ad57600081601f85815481106122465761224661542b565b906000526020600020906005020160040154612262919061549d565b905061226e8682613a21565b60408051808201825285815260208082018481526000948552601e909152919092209151825551600190910155806122a58161546a565b915050612228565b5080601f83815481106122c2576122c261542b565b906000526020600020906005020160040160008282546122e2919061549d565b90915550506001600160a01b0384166000908152601d60205260408120805483929061230f90849061549d565b90915550506000828152601c602090815260408083206001600160a01b03881684529091528120805483929061234690849061549d565b9091555082915061235890508161546a565b9150506121fe565b50816001600160a01b03167f4909e8e1ac9f72151c4a917126c23646c2a6c0075810564589c3506b5441d68b8260405161239a9190615521565b60405180910390a25050565b606060158054610c8e90615251565b601b546001600160a01b0316331461240f5760405162461bcd60e51b815260206004820152601960248201527f4f61736973584e4654313135353a206f6e6c79206f776e6572000000000000006044820152606401610dc8565b80601f83815481106124235761242361542b565b906000526020600020906005020160030181905550806017838154811061244c5761244c61542b565b6000918252602090912001555050565b6111f5338383613a3b565b61246f6139ce565b346001600160a01b0384166124c65760405162461bcd60e51b815260206004820152600e60248201527f496e76616c6964416464726573730000000000000000000000000000000000006044820152606401610dc8565b601f5482511461253e5760405162461bcd60e51b815260206004820152603860248201527f5469636b6574207479706520636f756e7420706172616d6574657220646f657360448201527f206e6f74206861766520636f7272656374206c656e67746800000000000000006064820152608401610dc8565b60008060005b845181101561266a5760008582815181106125615761256161542b565b60200260200101519050601f828154811061257e5761257e61542b565b906000526020600020906005020160010154601f83815481106125a3576125a361542b565b9060005260206000209060050201600201546125bf9190615457565b81111561260e5760405162461bcd60e51b815260206004820152601060248201527f4d6178546f6b656e4578636565646564000000000000000000000000000000006044820152606401610dc8565b612618818561549d565b9350601f828154811061262d5761262d61542b565b9060005260206000209060050201600301548161264a9190615534565b612654908461549d565b92505080806126629061546a565b915050612544565b508083146126ba5760405162461bcd60e51b815260206004820152601360248201527f45746820616d6f756e74206d69736d61746368000000000000000000000000006044820152606401610dc8565b601354610100900460ff16156126d6576126d48683613b09565b505b6126df84611392565b5060005b84518110156128455760008582815181106127005761270061542b565b6020026020010151905060005b8181101561279257600081601f858154811061272b5761272b61542b565b906000526020600020906005020160040154612747919061549d565b90506127533382613a21565b60408051808201825285815260208082018481526000948552601e9091529190922091518255516001909101558061278a8161546a565b91505061270d565b5080601f83815481106127a7576127a761542b565b906000526020600020906005020160040160008282546127c7919061549d565b90915550506001600160a01b0388166000908152601d6020526040812080548392906127f490849061549d565b90915550506000828152601c602090815260408083206001600160a01b038c1684529091528120805483929061282b90849061549d565b9091555082915061283d90508161546a565b9150506126e3565b50856001600160a01b03167f9a7aef3eb8aea02169cf5c8743490509b84b686b1c7606c8fe0deb265752f6e88560405161287f9190615521565b60405180910390a2505050505050565b612899338361352a565b61290b5760405162461bcd60e51b815260206004820152602d60248201527f4552433732313a2063616c6c6572206973206e6f7420746f6b656e206f776e6560448201527f72206f7220617070726f766564000000000000000000000000000000000000006064820152608401610dc8565b61291784848484613b87565b50505050565b601f5460009082106129715760405162461bcd60e51b815260206004820152601d60248201527f5469636b6574207479706520496420646f6573206e6f742065786973740000006044820152606401610dc8565b601f82815481106129845761298461542b565b9060005260206000209060050201600401549050919050565b60606129a88261327b565b60006129b2613c10565b905060008151116129d257604051806020016040528060008152506129fd565b806129dc84613c1f565b6040516020016129ed92919061554b565b6040516020818303038152906040525b9392505050565b600054610100900460ff1615808015612a245750600054600160ff909116105b80612a3e5750303b158015612a3e575060005460ff166001145b612ab05760405162461bcd60e51b815260206004820152602e60248201527f496e697469616c697a61626c653a20636f6e747261637420697320616c72656160448201527f647920696e697469616c697a65640000000000000000000000000000000000006064820152608401610dc8565b6000805460ff191660011790558015612ad3576000805461ff0019166101001790555b601a5460ff1615612b265760405162461bcd60e51b815260206004820152601760248201527f546869732069732061206261736520636f6e74726163740000000000000000006044820152606401610dc8565b6001600160a01b038516612b7c5760405162461bcd60e51b815260206004820152600b60248201527f5a65726f416464726573730000000000000000000000000000000000000000006044820152606401610dc8565b8760018951612b8b9190615457565b81518110612b9b57612b9b61542b565b60200260200101518363ffffffff161180612bb4575060005b15612c015760405162461bcd60e51b815260206004820152601060248201527f4d696e744c696d6974496e76616c6964000000000000000000000000000000006044820152606401610dc8565b601a80547fffffff0000000000000000000000000000000000000000ffffffffffffffffff1669010000000000000000006001600160a01b038816021790556014612c4c8d8261536b565b506015612c598c8261536b565b50612c648787613cbf565b8751895114612cb55760405162461bcd60e51b815260206004820152601e60248201527f507269636520616e642052616e6765206172726179206d69736d6174636800006044820152606401610dc8565b60008951118015612cc7575060008851115b8015612cd65750610100895111155b8015612ce55750610100885111155b612d575760405162461bcd60e51b815260206004820152602760248201527f5468652070726963657320616e642072616e676520617272617973206172652060448201527f696e76616c6964000000000000000000000000000000000000000000000000006064820152608401610dc8565b60008060005b8b51811015612ef15760008b8281518110612d7a57612d7a61542b565b6020026020010151905060008111612dd45760405162461bcd60e51b815260206004820152601260248201527f5469636b6574436f756e74496e76616c696400000000000000000000000000006044820152606401610dc8565b612ddf83600161549d565b935080925060008d8381518110612df857612df861542b565b602002602001015190506000811015612e535760405162461bcd60e51b815260206004820152601360248201527f5469636b6574507269636573496e76616c6964000000000000000000000000006044820152606401610dc8565b601f6040518060a001604052808787612e6c9190615457565b612e7790600161549d565b81526020808201899052604080830189905260608084019690965260809283018a905284546001818101875560009687529583902085516005909202019081559184015194820194909455928201516002840155928101516003830155909101516004909101555080612ee98161546a565b915050612d5d565b508a51612f059060179060208e019061490a565b508951612f199060189060208d019061490a565b506011849055601b805473ffffffffffffffffffffffffffffffffffffffff19166001600160a01b03881617905563ffffffff8516600003612f61576013805461ff00191690555b6016805463ffffffff191663ffffffff87161790556010612f828d8261536b565b5050508015612fcb576000805461ff0019169055604051600181527f7f26b83ff96e1f2b6a682f133852f6798a09c465da95921460cefb38474024989060200160405180910390a15b505050505050505050505050565b601a54690100000000000000000090046001600160a01b031633146130405760405162461bcd60e51b815260206004820152601760248201527f43616c6c6572206973206e6f74207468652061646d696e0000000000000000006044820152606401610dc8565b6013805460ff1916911515919091179055565b6017818154811061306357600080fd5b600091825260209091200154905081565b6018818154811061306357600080fd5b601f818154811061309457600080fd5b6000918252602090912060059091020180546001820154600283015460038401546004909401549294509092909185565b601b546001600160a01b0316331461311f5760405162461bcd60e51b815260206004820152601960248201527f4f61736973584e4654313135353a206f6e6c79206f776e6572000000000000006044820152606401610dc8565b60115481036131965760405162461bcd60e51b815260206004820152602760248201527f4d65726b6c6520726f6f74206973207468652073616d6520617320746865207060448201527f726576696f7573000000000000000000000000000000000000000000000000006064820152608401610dc8565b601155565b601f5460009082106131ef5760405162461bcd60e51b815260206004820152601d60248201527f5469636b6574207479706520496420646f6573206e6f742065786973740000006044820152606401610dc8565b601f82815481106132025761320261542b565b9060005260206000209060050201600301549050919050565b6001600160a01b0381166000908152600b60205260408120546008546001600160a01b0384166000908152600a602052604090205460095461325d904761549d565b6132679190615534565b613271919061557a565b610c799190615457565b6000818152600360205260409020546001600160a01b0316610ec95760405162461bcd60e51b815260206004820152601860248201527f4552433732313a20696e76616c696420746f6b656e20494400000000000000006044820152606401610dc8565b6000818152600560205260409020805473ffffffffffffffffffffffffffffffffffffffff19166001600160a01b03841690811790915581906133218261171c565b6001600160a01b03167f8c5be1e5ebec7d5bd14f71427d1e84f3dd0314c0f7b2291e5b200ac8c7c3b92560405160405180910390a45050565b6001600160a01b0381166000908152600a60205260409020546133e55760405162461bcd60e51b815260206004820152602660248201527f5061796d656e7453706c69747465723a206163636f756e7420686173206e6f2060448201527f73686172657300000000000000000000000000000000000000000000000000006064820152608401610dc8565b60006133f060095490565b6133fa904761549d565b9050600061342283836115de866001600160a01b03166000908152600b602052604090205490565b90508060000361349a5760405162461bcd60e51b815260206004820152602b60248201527f5061796d656e7453706c69747465723a206163636f756e74206973206e6f742060448201527f647565207061796d656e740000000000000000000000000000000000000000006064820152608401610dc8565b6001600160a01b0383166000908152600b6020526040812080548392906134c290849061549d565b9250508190555080600960008282546134db919061549d565b909155506134eb90508382613e5e565b604080516001600160a01b0385168152602081018390527fdf20fd1e76bc69d672e4814fafb2c449bba3a5369d8359adf9e05e6fde87b05691016120b4565b6000806135368361171c565b9050806001600160a01b0316846001600160a01b0316148061357d57506001600160a01b0380821660009081526006602090815260408083209388168352929052205460ff165b806135a15750836001600160a01b031661359684610d11565b6001600160a01b0316145b949350505050565b826001600160a01b03166135bc8261171c565b6001600160a01b0316146136385760405162461bcd60e51b815260206004820152602560248201527f4552433732313a207472616e736665722066726f6d20696e636f72726563742060448201527f6f776e65720000000000000000000000000000000000000000000000000000006064820152608401610dc8565b6001600160a01b0382166136b35760405162461bcd60e51b8152602060048201526024808201527f4552433732313a207472616e7366657220746f20746865207a65726f2061646460448201527f72657373000000000000000000000000000000000000000000000000000000006064820152608401610dc8565b826001600160a01b03166136c68261171c565b6001600160a01b0316146137425760405162461bcd60e51b815260206004820152602560248201527f4552433732313a207472616e736665722066726f6d20696e636f72726563742060448201527f6f776e65720000000000000000000000000000000000000000000000000000006064820152608401610dc8565b6000818152600560209081526040808320805473ffffffffffffffffffffffffffffffffffffffff199081169091556001600160a01b0387811680865260048552838620805460001901905590871680865283862080546001019055868652600390945282852080549092168417909155905184937fddf252ad1be2c89b69c2b068fc378daa952ba7f163c4a11628f55a4df523b3ef91a4505050565b6137e7613f77565b6007805460ff191690557f5db9ee0a495bf2e6ff9c91a7834c1ba4fdd244a5e8aa4e537bd38aeae4b073aa335b6040516001600160a01b03909116815260200160405180910390a1565b600061383c8261171c565b90506138478261171c565b6000838152600560209081526040808320805473ffffffffffffffffffffffffffffffffffffffff199081169091556001600160a01b0385168085526004845282852080546000190190558785526003909352818420805490911690555192935084927fddf252ad1be2c89b69c2b068fc378daa952ba7f163c4a11628f55a4df523b3ef908390a45050565b6008546001600160a01b0384166000908152600a6020526040812054909183916138fd9086615534565b613907919061557a565b6135a19190615457565b604080516001600160a01b038416602482015260448082018490528251808303909101815260649091019091526020810180517bffffffffffffffffffffffffffffffffffffffffffffffffffffffff167fa9059cbb00000000000000000000000000000000000000000000000000000000179052610e69908490613fc9565b6139996139ce565b6007805460ff191660011790557f62e78cea01bee320cd4e420270b5ea74000d11b0c9f74754ebdbfc544b05a2586138143390565b60075460ff161561125b5760405162461bcd60e51b815260206004820152601060248201527f5061757361626c653a20706175736564000000000000000000000000000000006044820152606401610dc8565b6111f58282604051806020016040528060008152506140b1565b816001600160a01b0316836001600160a01b031603613a9c5760405162461bcd60e51b815260206004820152601960248201527f4552433732313a20617070726f766520746f2063616c6c6572000000000000006044820152606401610dc8565b6001600160a01b03838116600081815260066020908152604080832094871680845294825291829020805460ff191686151590811790915591519182527f17307eab39ab6107e8899845ad3d59bd9653f200f220920489ca2b5937696c31910160405180910390a3505050565b6016546001600160a01b0383166000908152601d6020526040812054909163ffffffff1690613b3990849061549d565b111561146d5760405162461bcd60e51b815260206004820152601b60248201527f4d617820746f6b656e20706572207573657220657863656564656400000000006044820152606401610dc8565b613b928484846135a9565b613b9e8484848461413a565b6129175760405162461bcd60e51b815260206004820152603260248201527f4552433732313a207472616e7366657220746f206e6f6e20455243373231526560448201527f63656976657220696d706c656d656e74657200000000000000000000000000006064820152608401610dc8565b606060108054610c8e90615251565b60606000613c2c836142db565b600101905060008167ffffffffffffffff811115613c4c57613c4c614b2d565b6040519080825280601f01601f191660200182016040528015613c76576020820181803683370190505b5090508181016020015b600019017f3031323334353637383961626364656600000000000000000000000000000000600a86061a8153600a8504945084613c8057509392505050565b600054610100900460ff16613d3c5760405162461bcd60e51b815260206004820152602b60248201527f496e697469616c697a61626c653a20636f6e7472616374206973206e6f74206960448201527f6e697469616c697a696e670000000000000000000000000000000000000000006064820152608401610dc8565b8051825114613db35760405162461bcd60e51b815260206004820152603260248201527f5061796d656e7453706c69747465723a2070617965657320616e64207368617260448201527f6573206c656e677468206d69736d6174636800000000000000000000000000006064820152608401610dc8565b6000825111613e045760405162461bcd60e51b815260206004820152601a60248201527f5061796d656e7453706c69747465723a206e6f207061796565730000000000006044820152606401610dc8565b60005b8251811015610e6957613e4c838281518110613e2557613e2561542b565b6020026020010151838381518110613e3f57613e3f61542b565b60200260200101516143bd565b80613e568161546a565b915050613e07565b80471015613eae5760405162461bcd60e51b815260206004820152601d60248201527f416464726573733a20696e73756666696369656e742062616c616e63650000006044820152606401610dc8565b6000826001600160a01b03168260405160006040518083038185875af1925050503d8060008114613efb576040519150601f19603f3d011682016040523d82523d6000602084013e613f00565b606091505b5050905080610e695760405162461bcd60e51b815260206004820152603a60248201527f416464726573733a20756e61626c6520746f2073656e642076616c75652c207260448201527f6563697069656e74206d617920686176652072657665727465640000000000006064820152608401610dc8565b60075460ff1661125b5760405162461bcd60e51b815260206004820152601460248201527f5061757361626c653a206e6f74207061757365640000000000000000000000006044820152606401610dc8565b600061401e826040518060400160405280602081526020017f5361666545524332303a206c6f772d6c6576656c2063616c6c206661696c6564815250856001600160a01b03166145d39092919063ffffffff16565b905080516000148061403f57508080602001905181019061403f919061559c565b610e695760405162461bcd60e51b815260206004820152602a60248201527f5361666545524332303a204552433230206f7065726174696f6e20646964206e60448201527f6f742073756363656564000000000000000000000000000000000000000000006064820152608401610dc8565b6140bb83836145e2565b6140c8600084848461413a565b610e695760405162461bcd60e51b815260206004820152603260248201527f4552433732313a207472616e7366657220746f206e6f6e20455243373231526560448201527f63656976657220696d706c656d656e74657200000000000000000000000000006064820152608401610dc8565b60006001600160a01b0384163b156142d0576040517f150b7a020000000000000000000000000000000000000000000000000000000081526001600160a01b0385169063150b7a02906141979033908990889088906004016155b9565b6020604051808303816000875af19250505080156141d2575060408051601f3d908101601f191682019092526141cf918101906155f5565b60015b614285573d808015614200576040519150601f19603f3d011682016040523d82523d6000602084013e614205565b606091505b50805160000361427d5760405162461bcd60e51b815260206004820152603260248201527f4552433732313a207472616e7366657220746f206e6f6e20455243373231526560448201527f63656976657220696d706c656d656e74657200000000000000000000000000006064820152608401610dc8565b805181602001fd5b7fffffffff00000000000000000000000000000000000000000000000000000000167f150b7a02000000000000000000000000000000000000000000000000000000001490506135a1565b506001949350505050565b6000807a184f03e93ff9f4daa797ed6e38ed64bf6a1f0100000000000000008310614324577a184f03e93ff9f4daa797ed6e38ed64bf6a1f010000000000000000830492506040015b6d04ee2d6d415b85acef81000000008310614350576d04ee2d6d415b85acef8100000000830492506020015b662386f26fc10000831061436e57662386f26fc10000830492506010015b6305f5e1008310614386576305f5e100830492506008015b612710831061439a57612710830492506004015b606483106143ac576064830492506002015b600a8310610c795760010192915050565b6001600160a01b0382166144395760405162461bcd60e51b815260206004820152602c60248201527f5061796d656e7453706c69747465723a206163636f756e74206973207468652060448201527f7a65726f206164647265737300000000000000000000000000000000000000006064820152608401610dc8565b600081116144895760405162461bcd60e51b815260206004820152601d60248201527f5061796d656e7453706c69747465723a207368617265732061726520300000006044820152606401610dc8565b6001600160a01b0382166000908152600a6020526040902054156145155760405162461bcd60e51b815260206004820152602b60248201527f5061796d656e7453706c69747465723a206163636f756e7420616c726561647960448201527f20686173207368617265730000000000000000000000000000000000000000006064820152608401610dc8565b600c8054600181019091557fdf6966c971051c3d54ec59162606531493a51404a002842f56009d7e5cf4a8c701805473ffffffffffffffffffffffffffffffffffffffff19166001600160a01b0384169081179091556000908152600a6020526040902081905560085461458a90829061549d565b600855604080516001600160a01b0384168152602081018390527f40c340f65e17194d14ddddb073d3c9f888e3cb52b5aae0c6c7706b4fbc905fac910160405180910390a15050565b60606135a1848460008561477a565b6001600160a01b0382166146385760405162461bcd60e51b815260206004820181905260248201527f4552433732313a206d696e7420746f20746865207a65726f20616464726573736044820152606401610dc8565b6000818152600360205260409020546001600160a01b03161561469d5760405162461bcd60e51b815260206004820152601c60248201527f4552433732313a20746f6b656e20616c7265616479206d696e746564000000006044820152606401610dc8565b6000818152600360205260409020546001600160a01b0316156147025760405162461bcd60e51b815260206004820152601c60248201527f4552433732313a20746f6b656e20616c7265616479206d696e746564000000006044820152606401610dc8565b6001600160a01b0382166000818152600460209081526040808320805460010190558483526003909152808220805473ffffffffffffffffffffffffffffffffffffffff19168417905551839291907fddf252ad1be2c89b69c2b068fc378daa952ba7f163c4a11628f55a4df523b3ef908290a45050565b6060824710156147f25760405162461bcd60e51b815260206004820152602660248201527f416464726573733a20696e73756666696369656e742062616c616e636520666f60448201527f722063616c6c00000000000000000000000000000000000000000000000000006064820152608401610dc8565b600080866001600160a01b0316858760405161480e919061528b565b60006040518083038185875af1925050503d806000811461484b576040519150601f19603f3d011682016040523d82523d6000602084013e614850565b606091505b50915091506148618783838761486c565b979650505050505050565b606083156148db5782516000036148d4576001600160a01b0385163b6148d45760405162461bcd60e51b815260206004820152601d60248201527f416464726573733a2063616c6c20746f206e6f6e2d636f6e74726163740000006044820152606401610dc8565b50816135a1565b6135a183838151156148f05781518083602001fd5b8060405162461bcd60e51b8152600401610dc89190614a05565b828054828255906000526020600020908101928215614945579160200282015b8281111561494557825182559160200191906001019061492a565b50614951929150614955565b5090565b5b808211156149515760008155600101614956565b7fffffffff0000000000000000000000000000000000000000000000000000000081168114610ec957600080fd5b6000602082840312156149aa57600080fd5b81356129fd8161496a565b60005b838110156149d05781810151838201526020016149b8565b50506000910152565b600081518084526149f18160208601602086016149b5565b601f01601f19169290920160200192915050565b6020815260006129fd60208301846149d9565b600060208284031215614a2a57600080fd5b5035919050565b6001600160a01b0381168114610ec957600080fd5b8035614a5181614a31565b919050565b60008060408385031215614a6957600080fd5b8235614a7481614a31565b946020939093013593505050565b600060208284031215614a9457600080fd5b81356129fd81614a31565b600080600060608486031215614ab457600080fd5b8335614abf81614a31565b92506020840135614acf81614a31565b929592945050506040919091013590565b6020808252825182820181905260009190848201906040850190845b81811015614b215783516001600160a01b031683529284019291840191600101614afc565b50909695505050505050565b634e487b7160e01b600052604160045260246000fd5b604051601f8201601f1916810167ffffffffffffffff81118282101715614b6c57614b6c614b2d565b604052919050565b600067ffffffffffffffff831115614b8e57614b8e614b2d565b614ba16020601f19601f86011601614b43565b9050828152838383011115614bb557600080fd5b828260208301376000602084830101529392505050565b600082601f830112614bdd57600080fd5b6129fd83833560208501614b74565b600060208284031215614bfe57600080fd5b813567ffffffffffffffff811115614c1557600080fd5b6135a184828501614bcc565b60008060408385031215614c3457600080fd5b8235614c3f81614a31565b91506020830135614c4f81614a31565b809150509250929050565b600067ffffffffffffffff821115614c7457614c74614b2d565b5060051b60200190565b600082601f830112614c8f57600080fd5b81356020614ca4614c9f83614c5a565b614b43565b82815260059290921b84018101918181019086841115614cc357600080fd5b8286015b84811015614cde5780358352918301918301614cc7565b509695505050505050565b600060208284031215614cfb57600080fd5b813567ffffffffffffffff811115614d1257600080fd5b6135a184828501614c7e565b803563ffffffff81168114614a5157600080fd5b600060208284031215614d4457600080fd5b6129fd82614d1e565b60008060408385031215614d6057600080fd5b823567ffffffffffffffff80821115614d7857600080fd5b614d8486838701614c7e565b93506020850135915080821115614d9a57600080fd5b50614da785828601614c7e565b9150509250929050565b600080600060608486031215614dc657600080fd5b833560028110614dd557600080fd5b9250602084013567ffffffffffffffff811115614df157600080fd5b614dfd86828701614c7e565b925050614e0c60408501614d1e565b90509250925092565b60008060408385031215614e2857600080fd5b8235614e3381614a31565b9150602083013567ffffffffffffffff811115614e4f57600080fd5b614da785828601614c7e565b60008060408385031215614e6e57600080fd5b50508035926020909101359150565b8015158114610ec957600080fd5b60008060408385031215614e9e57600080fd5b8235614ea981614a31565b91506020830135614c4f81614e7d565b600080600060608486031215614ece57600080fd5b8335614ed981614a31565b925060208481013567ffffffffffffffff80821115614ef757600080fd5b818701915087601f830112614f0b57600080fd5b8135614f19614c9f82614c5a565b81815260059190911b8301840190848101908a831115614f3857600080fd5b938501935b82851015614f5657843582529385019390850190614f3d565b965050506040870135925080831115614f6e57600080fd5b5050614f7c86828701614c7e565b9150509250925092565b60008060008060808587031215614f9c57600080fd5b8435614fa781614a31565b93506020850135614fb781614a31565b925060408501359150606085013567ffffffffffffffff811115614fda57600080fd5b8501601f81018713614feb57600080fd5b614ffa87823560208401614b74565b91505092959194509250565b600082601f83011261501757600080fd5b81356020615027614c9f83614c5a565b82815260059290921b8401810191818101908684111561504657600080fd5b8286015b84811015614cde57803561505d81614a31565b835291830191830161504a565b60008060008060008060008060008060006101608c8e03121561508c57600080fd5b67ffffffffffffffff808d3511156150a357600080fd5b6150b08e8e358f01614bcc565b9b508060208e013511156150c357600080fd5b6150d38e60208f01358f01614bcc565b9a508060408e013511156150e657600080fd5b6150f68e60408f01358f01614bcc565b99508060608e0135111561510957600080fd5b6151198e60608f01358f01614c7e565b98508060808e0135111561512c57600080fd5b61513c8e60808f01358f01614c7e565b97508060a08e0135111561514f57600080fd5b61515f8e60a08f01358f01615006565b96508060c08e0135111561517257600080fd5b506151838d60c08e01358e01614c7e565b945061519160e08d01614a46565b93506151a06101008d01614a46565b92506151af6101208d01614d1e565b91506101408c013590509295989b509295989b9093969950565b6000602082840312156151db57600080fd5b81356129fd81614e7d565b600080604083850312156151f957600080fd5b823591506020830135614c4f81614a31565b634e487b7160e01b600052602160045260246000fd5b6002811061523f57634e487b7160e01b600052602160045260246000fd5b9052565b60208101610c798284615221565b600181811c9082168061526557607f821691505b60208210810361528557634e487b7160e01b600052602260045260246000fd5b50919050565b6000825161529d8184602087016149b5565b9190910192915050565b60008083546152b581615251565b600182811680156152cd57600181146152e257615311565b60ff1984168752821515830287019450615311565b8760005260208060002060005b858110156153085781548a8201529084019082016152ef565b50505082870194505b50929695505050505050565b601f821115610e6957600081815260208120601f850160051c810160208610156153445750805b601f850160051c820191505b8181101561536357828155600101615350565b505050505050565b815167ffffffffffffffff81111561538557615385614b2d565b615399816153938454615251565b8461531d565b602080601f8311600181146153ce57600084156153b65750858301515b600019600386901b1c1916600185901b178555615363565b600085815260208120601f198616915b828110156153fd578886015182559484019460019091019084016153de565b508582101561541b5787850151600019600388901b60f8161c191681555b5050505050600190811b01905550565b634e487b7160e01b600052603260045260246000fd5b634e487b7160e01b600052601160045260246000fd5b81810381811115610c7957610c79615441565b6000600019820361547d5761547d615441565b5060010190565b60006020828403121561549657600080fd5b5051919050565b80820180821115610c7957610c79615441565b600081518084526020808501945080840160005b838110156154e0578151875295820195908201906001016154c4565b509495945050505050565b6154f58185615221565b60606020820152600061550b60608301856154b0565b905063ffffffff83166040830152949350505050565b6020815260006129fd60208301846154b0565b8082028115828204841417610c7957610c79615441565b6000835161555d8184602088016149b5565b8351908301906155718183602088016149b5565b01949350505050565b60008261559757634e487b7160e01b600052601260045260246000fd5b500490565b6000602082840312156155ae57600080fd5b81516129fd81614e7d565b60006001600160a01b038087168352808616602084015250836040830152608060608301526155eb60808301846149d9565b9695505050505050565b60006020828403121561560757600080fd5b81516129fd8161496a56fea2646970667358221220507993a51f87018a69b2a857c41fc746541a98bfc25e4eb56004d22c5262480964736f6c63430008110033",
  "linkReferences": {},
  "deployedLinkReferences": {}
}