{
  "_format": "hh-sol-artifact-1",
  "contractName": "NFTix721",
  "sourceName": "contracts/NFTix721.sol",
  "abi": [
    {
      "inputs": [
        {
          "internalType": "bool",
          "name": "isBase_",
          "type": "bool"
        }
      ],
      "stateMutability": "nonpayable",
      "type": "constructor"
    },
    {
      "inputs": [],
      "name": "BaseContract",
      "type": "error"
    },
    {
      "inputs": [],
      "name": "FallbackDisabled",
      "type": "error"
    },
    {
      "inputs": [],
      "name": "InvalidAddress",
      "type": "error"
    },
    {
      "inputs": [],
      "name": "InvalidBaseURI",
      "type": "error"
    },
    {
      "inputs": [],
      "name": "InvalidMerkleRoot",
      "type": "error"
    },
    {
      "inputs": [],
      "name": "InvalidNFTPrice",
      "type": "error"
    },
    {
      "inputs": [],
      "name": "InvalidPhase",
      "type": "error"
    },
    {
      "inputs": [],
      "name": "MaxTokenExceeded",
      "type": "error"
    },
    {
      "inputs": [],
      "name": "MaxTokenPerUserExceeded",
      "type": "error"
    },
    {
      "inputs": [],
      "name": "MintLimitInvalid",
      "type": "error"
    },
    {
      "inputs": [],
      "name": "NotWhitelistedUser",
      "type": "error"
    },
    {
      "inputs": [],
      "name": "ReleaseFundsError",
      "type": "error"
    },
    {
      "inputs": [],
      "name": "SameAddressError",
      "type": "error"
    },
    {
      "inputs": [],
      "name": "TicketCountInvalid",
      "type": "error"
    },
    {
      "inputs": [],
      "name": "TicketPricesInvalid",
      "type": "error"
    },
    {
      "inputs": [],
      "name": "TicketTypesInvalid",
      "type": "error"
    },
    {
      "inputs": [],
      "name": "TokenDoesNotExist",
      "type": "error"
    },
    {
      "inputs": [],
      "name": "TokenTypeDoesNotExist",
      "type": "error"
    },
    {
      "inputs": [],
      "name": "TooManyPrices",
      "type": "error"
    },
    {
      "inputs": [],
      "name": "TooManyTypes",
      "type": "error"
    },
    {
      "inputs": [],
      "name": "URIQueryForNonexistentToken",
      "type": "error"
    },
    {
      "inputs": [],
      "name": "WrongEthAmount",
      "type": "error"
    },
    {
      "inputs": [],
      "name": "ZeroAddress",
      "type": "error"
    },
    {
      "anonymous": false,
      "inputs": [
        {
          "indexed": true,
          "internalType": "address",
          "name": "to",
          "type": "address"
        },
        {
          "indexed": false,
          "internalType": "uint256[]",
          "name": "ticketTypeCounts",
          "type": "uint256[]"
        }
      ],
      "name": "AdminMint",
      "type": "event"
    },
    {
      "anonymous": false,
      "inputs": [
        {
          "indexed": true,
          "internalType": "address",
          "name": "owner",
          "type": "address"
        },
        {
          "indexed": true,
          "internalType": "address",
          "name": "approved",
          "type": "address"
        },
        {
          "indexed": true,
          "internalType": "uint256",
          "name": "tokenId",
          "type": "uint256"
        }
      ],
      "name": "Approval",
      "type": "event"
    },
    {
      "anonymous": false,
      "inputs": [
        {
          "indexed": true,
          "internalType": "address",
          "name": "owner",
          "type": "address"
        },
        {
          "indexed": true,
          "internalType": "address",
          "name": "operator",
          "type": "address"
        },
        {
          "indexed": false,
          "internalType": "bool",
          "name": "approved",
          "type": "bool"
        }
      ],
      "name": "ApprovalForAll",
      "type": "event"
    },
    {
      "anonymous": false,
      "inputs": [
        {
          "indexed": true,
          "internalType": "contract IERC20Upgradeable",
          "name": "token",
          "type": "address"
        },
        {
          "indexed": false,
          "internalType": "address",
          "name": "to",
          "type": "address"
        },
        {
          "indexed": false,
          "internalType": "uint256",
          "name": "amount",
          "type": "uint256"
        }
      ],
      "name": "ERC20PaymentReleased",
      "type": "event"
    },
    {
      "anonymous": false,
      "inputs": [
        {
          "indexed": false,
          "internalType": "uint8",
          "name": "version",
          "type": "uint8"
        }
      ],
      "name": "Initialized",
      "type": "event"
    },
    {
      "anonymous": false,
      "inputs": [
        {
          "indexed": true,
          "internalType": "address",
          "name": "previousOwner",
          "type": "address"
        },
        {
          "indexed": true,
          "internalType": "address",
          "name": "newOwner",
          "type": "address"
        }
      ],
      "name": "OwnershipTransferred",
      "type": "event"
    },
    {
      "anonymous": false,
      "inputs": [
        {
          "indexed": false,
          "internalType": "address",
          "name": "account",
          "type": "address"
        }
      ],
      "name": "Paused",
      "type": "event"
    },
    {
      "anonymous": false,
      "inputs": [
        {
          "indexed": false,
          "internalType": "address",
          "name": "account",
          "type": "address"
        },
        {
          "indexed": false,
          "internalType": "uint256",
          "name": "shares",
          "type": "uint256"
        }
      ],
      "name": "PayeeAdded",
      "type": "event"
    },
    {
      "anonymous": false,
      "inputs": [
        {
          "indexed": false,
          "internalType": "address",
          "name": "from",
          "type": "address"
        },
        {
          "indexed": false,
          "internalType": "uint256",
          "name": "amount",
          "type": "uint256"
        }
      ],
      "name": "PaymentReceived",
      "type": "event"
    },
    {
      "anonymous": false,
      "inputs": [
        {
          "indexed": false,
          "internalType": "address",
          "name": "to",
          "type": "address"
        },
        {
          "indexed": false,
          "internalType": "uint256",
          "name": "amount",
          "type": "uint256"
        }
      ],
      "name": "PaymentReleased",
      "type": "event"
    },
    {
      "anonymous": false,
      "inputs": [
        {
          "indexed": false,
          "internalType": "enum NFTix721.Phase",
          "name": "phase",
          "type": "uint8"
        },
        {
          "indexed": false,
          "internalType": "uint256[]",
          "name": "mintPrice",
          "type": "uint256[]"
        },
        {
          "indexed": false,
          "internalType": "uint256",
          "name": "mintingLimit",
          "type": "uint256"
        }
      ],
      "name": "PhaseChange",
      "type": "event"
    },
    {
      "anonymous": false,
      "inputs": [
        {
          "indexed": true,
          "internalType": "address",
          "name": "from",
          "type": "address"
        },
        {
          "indexed": true,
          "internalType": "address",
          "name": "to",
          "type": "address"
        },
        {
          "indexed": true,
          "internalType": "uint256",
          "name": "tokenId",
          "type": "uint256"
        }
      ],
      "name": "Transfer",
      "type": "event"
    },
    {
      "anonymous": false,
      "inputs": [
        {
          "indexed": false,
          "internalType": "address",
          "name": "account",
          "type": "address"
        }
      ],
      "name": "Unpaused",
      "type": "event"
    },
    {
      "anonymous": false,
      "inputs": [
        {
          "indexed": true,
          "internalType": "address",
          "name": "to",
          "type": "address"
        },
        {
          "indexed": false,
          "internalType": "uint256[]",
          "name": "ticketTypeCounts",
          "type": "uint256[]"
        }
      ],
      "name": "UserMint",
      "type": "event"
    },
    {
      "stateMutability": "payable",
      "type": "fallback"
    },
    {
      "inputs": [
        {
          "internalType": "uint256[]",
          "name": "ticketRanges_",
          "type": "uint256[]"
        },
        {
          "internalType": "uint256[]",
          "name": "ticketPrices_",
          "type": "uint256[]"
        }
      ],
      "name": "addTicketTypes",
      "outputs": [],
      "stateMutability": "nonpayable",
      "type": "function"
    },
    {
      "inputs": [
        {
          "internalType": "address",
          "name": "to",
          "type": "address"
        },
        {
          "internalType": "uint256[]",
          "name": "amount",
          "type": "uint256[]"
        }
      ],
      "name": "adminMint",
      "outputs": [],
      "stateMutability": "nonpayable",
      "type": "function"
    },
    {
      "inputs": [
        {
          "internalType": "address",
          "name": "to",
          "type": "address"
        },
        {
          "internalType": "uint256",
          "name": "tokenId",
          "type": "uint256"
        }
      ],
      "name": "approve",
      "outputs": [],
      "stateMutability": "nonpayable",
      "type": "function"
    },
    {
      "inputs": [
        {
          "internalType": "address",
          "name": "owner",
          "type": "address"
        }
      ],
      "name": "balanceOf",
      "outputs": [
        {
          "internalType": "uint256",
          "name": "",
          "type": "uint256"
        }
      ],
      "stateMutability": "view",
      "type": "function"
    },
    {
      "inputs": [
        {
          "internalType": "uint256",
          "name": "tokenId",
          "type": "uint256"
        }
      ],
      "name": "burn",
      "outputs": [],
      "stateMutability": "nonpayable",
      "type": "function"
    },
    {
      "inputs": [
        {
          "internalType": "string",
          "name": "newBaseURI",
          "type": "string"
        }
      ],
      "name": "changeBaseURI",
      "outputs": [],
      "stateMutability": "nonpayable",
      "type": "function"
    },
    {
      "inputs": [
        {
          "internalType": "bytes32",
          "name": "merkleRoot",
          "type": "bytes32"
        }
      ],
      "name": "changeMerkleRoot",
      "outputs": [],
      "stateMutability": "nonpayable",
      "type": "function"
    },
    {
      "inputs": [
        {
          "internalType": "uint32",
          "name": "mintingLimit_",
          "type": "uint32"
        }
      ],
      "name": "changeMintingLimit",
      "outputs": [],
      "stateMutability": "nonpayable",
      "type": "function"
    },
    {
      "inputs": [
        {
          "internalType": "address",
          "name": "newAdmin",
          "type": "address"
        }
      ],
      "name": "changeTicketPlatformAdmin",
      "outputs": [],
      "stateMutability": "nonpayable",
      "type": "function"
    },
    {
      "inputs": [
        {
          "internalType": "uint256",
          "name": "tokenTypeId",
          "type": "uint256"
        },
        {
          "internalType": "uint256",
          "name": "price",
          "type": "uint256"
        }
      ],
      "name": "changeTicketPrice",
      "outputs": [],
      "stateMutability": "nonpayable",
      "type": "function"
    },
    {
      "inputs": [
        {
          "internalType": "uint256[]",
          "name": "amount",
          "type": "uint256[]"
        }
      ],
      "name": "checkMaxSupplyPerTicketType",
      "outputs": [
        {
          "internalType": "bool",
          "name": "",
          "type": "bool"
        }
      ],
      "stateMutability": "view",
      "type": "function"
    },
    {
      "inputs": [
        {
          "internalType": "uint256",
          "name": "tokenId",
          "type": "uint256"
        }
      ],
      "name": "getApproved",
      "outputs": [
        {
          "internalType": "address",
          "name": "",
          "type": "address"
        }
      ],
      "stateMutability": "view",
      "type": "function"
    },
    {
      "inputs": [
        {
          "internalType": "uint256",
          "name": "ticketTypeId",
          "type": "uint256"
        }
      ],
      "name": "getNextTicketId",
      "outputs": [
        {
          "internalType": "uint256",
          "name": "",
          "type": "uint256"
        }
      ],
      "stateMutability": "view",
      "type": "function"
    },
    {
      "inputs": [],
      "name": "getPhase",
      "outputs": [
        {
          "internalType": "enum NFTix721.Phase",
          "name": "",
          "type": "uint8"
        }
      ],
      "stateMutability": "view",
      "type": "function"
    },
    {
      "inputs": [
        {
          "internalType": "uint256",
          "name": "tokenId",
          "type": "uint256"
        }
      ],
      "name": "getTicket",
      "outputs": [
        {
          "components": [
            {
              "internalType": "uint256",
              "name": "ticketType",
              "type": "uint256"
            },
            {
              "internalType": "uint256",
              "name": "tokenId",
              "type": "uint256"
            }
          ],
          "internalType": "struct NFTix721.Ticket",
          "name": "",
          "type": "tuple"
        }
      ],
      "stateMutability": "view",
      "type": "function"
    },
    {
      "inputs": [
        {
          "internalType": "uint256",
          "name": "ticketTypeId",
          "type": "uint256"
        }
      ],
      "name": "getTicketPrice",
      "outputs": [
        {
          "internalType": "uint256",
          "name": "",
          "type": "uint256"
        }
      ],
      "stateMutability": "view",
      "type": "function"
    },
    {
      "inputs": [
        {
          "internalType": "string",
          "name": "name_",
          "type": "string"
        },
        {
          "internalType": "string",
          "name": "symbol_",
          "type": "string"
        },
        {
          "internalType": "string",
          "name": "uri_",
          "type": "string"
        },
        {
          "internalType": "uint256[]",
          "name": "ticketPrices_",
          "type": "uint256[]"
        },
        {
          "internalType": "uint256[]",
          "name": "ticketRanges_",
          "type": "uint256[]"
        },
        {
          "internalType": "address[]",
          "name": "payees_",
          "type": "address[]"
        },
        {
          "internalType": "uint256[]",
          "name": "shares_",
          "type": "uint256[]"
        },
        {
          "internalType": "address",
          "name": "defaultPlatformAdmin",
          "type": "address"
        },
        {
          "internalType": "uint32",
          "name": "mintingLimit_",
          "type": "uint32"
        },
        {
          "internalType": "bytes32",
          "name": "root_",
          "type": "bytes32"
        }
      ],
      "name": "initialize",
      "outputs": [],
      "stateMutability": "nonpayable",
      "type": "function"
    },
    {
      "inputs": [
        {
          "internalType": "address",
          "name": "owner",
          "type": "address"
        },
        {
          "internalType": "address",
          "name": "operator",
          "type": "address"
        }
      ],
      "name": "isApprovedForAll",
      "outputs": [
        {
          "internalType": "bool",
          "name": "",
          "type": "bool"
        }
      ],
      "stateMutability": "view",
      "type": "function"
    },
    {
      "inputs": [],
      "name": "isBase",
      "outputs": [
        {
          "internalType": "bool",
          "name": "",
          "type": "bool"
        }
      ],
      "stateMutability": "view",
      "type": "function"
    },
    {
      "inputs": [],
      "name": "maxId",
      "outputs": [
        {
          "internalType": "uint256",
          "name": "",
          "type": "uint256"
        }
      ],
      "stateMutability": "view",
      "type": "function"
    },
    {
      "inputs": [
        {
          "internalType": "address",
          "name": "to",
          "type": "address"
        },
        {
          "internalType": "bytes32[]",
          "name": "_proof",
          "type": "bytes32[]"
        },
        {
          "internalType": "uint256[]",
          "name": "ticketTypeCounts",
          "type": "uint256[]"
        }
      ],
      "name": "mint",
      "outputs": [],
      "stateMutability": "payable",
      "type": "function"
    },
    {
      "inputs": [],
      "name": "mintingLimit",
      "outputs": [
        {
          "internalType": "uint32",
          "name": "",
          "type": "uint32"
        }
      ],
      "stateMutability": "view",
      "type": "function"
    },
    {
      "inputs": [
        {
          "internalType": "address",
          "name": "",
          "type": "address"
        }
      ],
      "name": "mintsPerUser",
      "outputs": [
        {
          "internalType": "uint256",
          "name": "",
          "type": "uint256"
        }
      ],
      "stateMutability": "view",
      "type": "function"
    },
    {
      "inputs": [
        {
          "internalType": "uint256",
          "name": "",
          "type": "uint256"
        },
        {
          "internalType": "address",
          "name": "",
          "type": "address"
        }
      ],
      "name": "mintsPerUserPerType",
      "outputs": [
        {
          "internalType": "uint256",
          "name": "",
          "type": "uint256"
        }
      ],
      "stateMutability": "view",
      "type": "function"
    },
    {
      "inputs": [],
      "name": "name",
      "outputs": [
        {
          "internalType": "string",
          "name": "",
          "type": "string"
        }
      ],
      "stateMutability": "view",
      "type": "function"
    },
    {
      "inputs": [],
      "name": "owner",
      "outputs": [
        {
          "internalType": "address",
          "name": "",
          "type": "address"
        }
      ],
      "stateMutability": "view",
      "type": "function"
    },
    {
      "inputs": [
        {
          "internalType": "uint256",
          "name": "tokenId",
          "type": "uint256"
        }
      ],
      "name": "ownerOf",
      "outputs": [
        {
          "internalType": "address",
          "name": "",
          "type": "address"
        }
      ],
      "stateMutability": "view",
      "type": "function"
    },
    {
      "inputs": [],
      "name": "pause",
      "outputs": [],
      "stateMutability": "nonpayable",
      "type": "function"
    },
    {
      "inputs": [],
      "name": "paused",
      "outputs": [
        {
          "internalType": "bool",
          "name": "",
          "type": "bool"
        }
      ],
      "stateMutability": "view",
      "type": "function"
    },
    {
      "inputs": [
        {
          "internalType": "uint256",
          "name": "index",
          "type": "uint256"
        }
      ],
      "name": "payee",
      "outputs": [
        {
          "internalType": "address",
          "name": "",
          "type": "address"
        }
      ],
      "stateMutability": "view",
      "type": "function"
    },
    {
      "inputs": [
        {
          "internalType": "bool",
          "name": "activate",
          "type": "bool"
        }
      ],
      "name": "paymentStatus",
      "outputs": [],
      "stateMutability": "nonpayable",
      "type": "function"
    },
    {
      "inputs": [
        {
          "internalType": "address",
          "name": "account",
          "type": "address"
        }
      ],
      "name": "releasable",
      "outputs": [
        {
          "internalType": "uint256",
          "name": "",
          "type": "uint256"
        }
      ],
      "stateMutability": "view",
      "type": "function"
    },
    {
      "inputs": [
        {
          "internalType": "contract IERC20Upgradeable",
          "name": "token",
          "type": "address"
        },
        {
          "internalType": "address",
          "name": "account",
          "type": "address"
        }
      ],
      "name": "releasable",
      "outputs": [
        {
          "internalType": "uint256",
          "name": "",
          "type": "uint256"
        }
      ],
      "stateMutability": "view",
      "type": "function"
    },
    {
      "inputs": [
        {
          "internalType": "address payable",
          "name": "account",
          "type": "address"
        }
      ],
      "name": "release",
      "outputs": [],
      "stateMutability": "nonpayable",
      "type": "function"
    },
    {
      "inputs": [
        {
          "internalType": "contract IERC20Upgradeable",
          "name": "token",
          "type": "address"
        },
        {
          "internalType": "address",
          "name": "account",
          "type": "address"
        }
      ],
      "name": "release",
      "outputs": [],
      "stateMutability": "nonpayable",
      "type": "function"
    },
    {
      "inputs": [
        {
          "internalType": "contract IERC20Upgradeable",
          "name": "token",
          "type": "address"
        },
        {
          "internalType": "address",
          "name": "account",
          "type": "address"
        }
      ],
      "name": "released",
      "outputs": [
        {
          "internalType": "uint256",
          "name": "",
          "type": "uint256"
        }
      ],
      "stateMutability": "view",
      "type": "function"
    },
    {
      "inputs": [
        {
          "internalType": "address",
          "name": "account",
          "type": "address"
        }
      ],
      "name": "released",
      "outputs": [
        {
          "internalType": "uint256",
          "name": "",
          "type": "uint256"
        }
      ],
      "stateMutability": "view",
      "type": "function"
    },
    {
      "inputs": [],
      "name": "renounceOwnership",
      "outputs": [],
      "stateMutability": "nonpayable",
      "type": "function"
    },
    {
      "inputs": [
        {
          "internalType": "address",
          "name": "from",
          "type": "address"
        },
        {
          "internalType": "address",
          "name": "to",
          "type": "address"
        },
        {
          "internalType": "uint256",
          "name": "tokenId",
          "type": "uint256"
        }
      ],
      "name": "safeTransferFrom",
      "outputs": [],
      "stateMutability": "nonpayable",
      "type": "function"
    },
    {
      "inputs": [
        {
          "internalType": "address",
          "name": "from",
          "type": "address"
        },
        {
          "internalType": "address",
          "name": "to",
          "type": "address"
        },
        {
          "internalType": "uint256",
          "name": "tokenId",
          "type": "uint256"
        },
        {
          "internalType": "bytes",
          "name": "data",
          "type": "bytes"
        }
      ],
      "name": "safeTransferFrom",
      "outputs": [],
      "stateMutability": "nonpayable",
      "type": "function"
    },
    {
      "inputs": [
        {
          "internalType": "address",
          "name": "operator",
          "type": "address"
        },
        {
          "internalType": "bool",
          "name": "approved",
          "type": "bool"
        }
      ],
      "name": "setApprovalForAll",
      "outputs": [],
      "stateMutability": "nonpayable",
      "type": "function"
    },
    {
      "inputs": [
        {
          "internalType": "enum NFTix721.Phase",
          "name": "phase",
          "type": "uint8"
        },
        {
          "internalType": "uint256[]",
          "name": "mintCost",
          "type": "uint256[]"
        },
        {
          "internalType": "uint32",
          "name": "mintingLimit_",
          "type": "uint32"
        }
      ],
      "name": "setPhase",
      "outputs": [],
      "stateMutability": "nonpayable",
      "type": "function"
    },
    {
      "inputs": [
        {
          "internalType": "address",
          "name": "account",
          "type": "address"
        }
      ],
      "name": "shares",
      "outputs": [
        {
          "internalType": "uint256",
          "name": "",
          "type": "uint256"
        }
      ],
      "stateMutability": "view",
      "type": "function"
    },
    {
      "inputs": [
        {
          "internalType": "bytes4",
          "name": "interfaceId",
          "type": "bytes4"
        }
      ],
      "name": "supportsInterface",
      "outputs": [
        {
          "internalType": "bool",
          "name": "",
          "type": "bool"
        }
      ],
      "stateMutability": "view",
      "type": "function"
    },
    {
      "inputs": [],
      "name": "symbol",
      "outputs": [
        {
          "internalType": "string",
          "name": "",
          "type": "string"
        }
      ],
      "stateMutability": "view",
      "type": "function"
    },
    {
      "inputs": [],
      "name": "ticketPlatformAdmin",
      "outputs": [
        {
          "internalType": "address",
          "name": "",
          "type": "address"
        }
      ],
      "stateMutability": "view",
      "type": "function"
    },
    {
      "inputs": [
        {
          "internalType": "uint256",
          "name": "",
          "type": "uint256"
        }
      ],
      "name": "ticketTypes",
      "outputs": [
        {
          "internalType": "uint256",
          "name": "ticketCount",
          "type": "uint256"
        },
        {
          "internalType": "uint256",
          "name": "startTokenId",
          "type": "uint256"
        },
        {
          "internalType": "uint256",
          "name": "endTokenId",
          "type": "uint256"
        },
        {
          "internalType": "uint256",
          "name": "price",
          "type": "uint256"
        },
        {
          "internalType": "uint256",
          "name": "currentTokenId",
          "type": "uint256"
        }
      ],
      "stateMutability": "view",
      "type": "function"
    },
    {
      "inputs": [
        {
          "internalType": "uint256",
          "name": "",
          "type": "uint256"
        }
      ],
      "name": "tokenPrices",
      "outputs": [
        {
          "internalType": "uint256",
          "name": "",
          "type": "uint256"
        }
      ],
      "stateMutability": "view",
      "type": "function"
    },
    {
      "inputs": [
        {
          "internalType": "uint256",
          "name": "",
          "type": "uint256"
        }
      ],
      "name": "tokenRanges",
      "outputs": [
        {
          "internalType": "uint256",
          "name": "",
          "type": "uint256"
        }
      ],
      "stateMutability": "view",
      "type": "function"
    },
    {
      "inputs": [
        {
          "internalType": "uint256",
          "name": "tokenId",
          "type": "uint256"
        }
      ],
      "name": "tokenURI",
      "outputs": [
        {
          "internalType": "string",
          "name": "",
          "type": "string"
        }
      ],
      "stateMutability": "view",
      "type": "function"
    },
    {
      "inputs": [
        {
          "internalType": "contract IERC20Upgradeable",
          "name": "token",
          "type": "address"
        }
      ],
      "name": "totalReleased",
      "outputs": [
        {
          "internalType": "uint256",
          "name": "",
          "type": "uint256"
        }
      ],
      "stateMutability": "view",
      "type": "function"
    },
    {
      "inputs": [],
      "name": "totalReleased",
      "outputs": [
        {
          "internalType": "uint256",
          "name": "",
          "type": "uint256"
        }
      ],
      "stateMutability": "view",
      "type": "function"
    },
    {
      "inputs": [],
      "name": "totalShares",
      "outputs": [
        {
          "internalType": "uint256",
          "name": "",
          "type": "uint256"
        }
      ],
      "stateMutability": "view",
      "type": "function"
    },
    {
      "inputs": [],
      "name": "totalSupply",
      "outputs": [
        {
          "internalType": "uint64",
          "name": "",
          "type": "uint64"
        }
      ],
      "stateMutability": "view",
      "type": "function"
    },
    {
      "inputs": [
        {
          "internalType": "address",
          "name": "from",
          "type": "address"
        },
        {
          "internalType": "address",
          "name": "to",
          "type": "address"
        },
        {
          "internalType": "uint256",
          "name": "tokenId",
          "type": "uint256"
        }
      ],
      "name": "transferFrom",
      "outputs": [],
      "stateMutability": "nonpayable",
      "type": "function"
    },
    {
      "inputs": [
        {
          "internalType": "address",
          "name": "newOwner",
          "type": "address"
        }
      ],
      "name": "transferOwnership",
      "outputs": [],
      "stateMutability": "nonpayable",
      "type": "function"
    },
    {
      "inputs": [],
      "name": "unpause",
      "outputs": [],
      "stateMutability": "nonpayable",
      "type": "function"
    },
    {
      "stateMutability": "payable",
      "type": "receive"
    }
  ],
  "bytecode": "0x6080604052610131805461ffff19166101001790556101358054610100600160481b03191690553480156200003357600080fd5b50604051620054e7380380620054e783398101604081905262000056916200006e565b610135805460ff191691151591909117905562000099565b6000602082840312156200008157600080fd5b815180151581146200009257600080fd5b9392505050565b61543e80620000a96000396000f3fe60806040526004361061037a5760003560e01c80638a6a211e116101d1578063c5ea3c6511610102578063e8a0caa6116100a0578063ebcea3db1161006f578063ebcea3db14610b9b578063eced028014610bbb578063f06fc96114610bdc578063f2fde38b14610bfc576103b1565b8063e8a0caa614610ab1578063e919d58614610ad1578063e985e9c514610b0a578063e9dbebce14610b53576103b1565b8063d59d64de116100dc578063d59d64de14610a25578063d79779b214610a45578063e33b7de314610a7c578063e5afe3e614610a91576103b1565b8063c5ea3c65146109b8578063c87b56dd146109cf578063ce7c2ac2146109ef576103b1565b8063a22cb4651161016f578063abff939311610149578063abff93931461092a578063b88d4fde14610958578063befdea5714610978578063c45ac05014610998576103b1565b8063a22cb465146108d7578063a3f8eace146108f7578063a8985e2514610917576103b1565b80638da5cb5b116101ab5780638da5cb5b1461084e57806395d89b411461086c57806395f6beb1146108815780639852595c146108a1576103b1565b80638a6a211e146107ee5780638b83209b1461080e5780638d61806b1461082e576103b1565b806342966c68116102ab57806370a08231116102495780637341021e116102235780637341021e146107635780637dc379fa146107835780637f80069a146107be5780638456cb59146107d9576103b1565b806370a082311461070e578063715018a61461072e5780637248085914610743576103b1565b806349072f121161028557806349072f121461067d57806357d055ed146106b65780635c975abb146106d65780636352211e146106ee576103b1565b806342966c681461061d57806345ece7d91461063d57806348b750441461065d576103b1565b80631de3da0a116103185780633a98ef39116102f25780633a98ef39146105825780633f4ba83a146105a1578063406072a9146105b657806342842e0e146105fd576103b1565b80631de3da0a1461052257806323b872dd1461054257806339a0c6f914610562576103b1565b8063095ea7b311610354578063095ea7b314610472578063172ad5191461049457806318160ddd146104c25780631916558714610502576103b1565b806301ffc9a7146103e357806306fdde0314610418578063081812fc1461043a576103b1565b366103b1576040517f687b764e00000000000000000000000000000000000000000000000000000000815260040160405180910390fd5b6040517f687b764e00000000000000000000000000000000000000000000000000000000815260040160405180910390fd5b3480156103ef57600080fd5b506104036103fe3660046147f2565b610c1c565b60405190151581526020015b60405180910390f35b34801561042457600080fd5b5061042d610d01565b60405161040f919061485f565b34801561044657600080fd5b5061045a610455366004614872565b610d93565b6040516001600160a01b03909116815260200161040f565b34801561047e57600080fd5b5061049261048d3660046148b0565b610dba565b005b3480156104a057600080fd5b506101355461045a90690100000000000000000090046001600160a01b031681565b3480156104ce57600080fd5b50610135546104e990610100900467ffffffffffffffff1681565b60405167ffffffffffffffff909116815260200161040f565b34801561050e57600080fd5b5061049261051d3660046148dc565b610ef0565b34801561052e57600080fd5b5061049261053d3660046148dc565b610f39565b34801561054e57600080fd5b5061049261055d3660046148f9565b61103f565b34801561056e57600080fd5b5061049261057d3660046149f9565b6110c6565b34801561058e57600080fd5b5060fb545b60405190815260200161040f565b3480156105ad57600080fd5b50610492611166565b3480156105c257600080fd5b506105936105d1366004614a2e565b6001600160a01b0391821660009081526101016020908152604080832093909416825291909152205490565b34801561060957600080fd5b506104926106183660046148f9565b611178565b34801561062957600080fd5b50610492610638366004614872565b611193565b34801561064957600080fd5b50610403610658366004614af6565b611268565b34801561066957600080fd5b50610492610678366004614a2e565b611338565b34801561068957600080fd5b50610131546106a19062010000900463ffffffff1681565b60405163ffffffff909116815260200161040f565b3480156106c257600080fd5b506104926106d1366004614ba3565b6114f7565b3480156106e257600080fd5b5060975460ff16610403565b3480156106fa57600080fd5b5061045a610709366004614872565b6119b7565b34801561071a57600080fd5b506105936107293660046148dc565b611a1c565b34801561073a57600080fd5b50610492611ab6565b34801561074f57600080fd5b5061049261075e366004614ceb565b611ac8565b34801561076f57600080fd5b5061049261077e366004614d06565b611b8c565b34801561078f57600080fd5b506107a361079e366004614872565b611e82565b6040805182518152602092830151928101929092520161040f565b3480156107ca57600080fd5b50610135546104039060ff1681565b3480156107e557600080fd5b50610492611f18565b3480156107fa57600080fd5b50610492610809366004614d6a565b611f28565b34801561081a57600080fd5b5061045a610829366004614872565b6120f4565b34801561083a57600080fd5b50610492610849366004614dce565b612124565b34801561085a57600080fd5b5060c9546001600160a01b031661045a565b34801561087857600080fd5b5061042d612352565b34801561088d57600080fd5b5061049261089c366004614e14565b612361565b3480156108ad57600080fd5b506105936108bc3660046148dc565b6001600160a01b0316600090815260fe602052604090205490565b3480156108e357600080fd5b506104926108f2366004614e44565b6123f5565b34801561090357600080fd5b506105936109123660046148dc565b612400565b610492610925366004614e72565b612448565b34801561093657600080fd5b506105936109453660046148dc565b6101376020526000908152604090205481565b34801561096457600080fd5b50610492610973366004614f3f565b61280d565b34801561098457600080fd5b50610593610993366004614872565b61289b565b3480156109a457600080fd5b506105936109b3366004614a2e565b6128ee565b3480156109c457600080fd5b506105936101345481565b3480156109db57600080fd5b5061042d6109ea366004614872565b6129d4565b3480156109fb57600080fd5b50610593610a0a3660046148dc565b6001600160a01b0316600090815260fd602052604090205490565b348015610a3157600080fd5b50610492610a40366004614fbf565b612a3a565b348015610a5157600080fd5b50610593610a603660046148dc565b6001600160a01b03166000908152610100602052604090205490565b348015610a8857600080fd5b5060fc54610593565b348015610a9d57600080fd5b50610593610aac366004614872565b612ab6565b348015610abd57600080fd5b50610593610acc366004614872565b612ad8565b348015610add57600080fd5b50610593610aec366004614fdc565b61013660209081526000928352604080842090915290825290205481565b348015610b1657600080fd5b50610403610b25366004614a2e565b6001600160a01b039182166000908152606a6020908152604080832093909416825291909152205460ff1690565b348015610b5f57600080fd5b50610b73610b6e366004614872565b612ae9565b604080519586526020860194909452928401919091526060830152608082015260a00161040f565b348015610ba757600080fd5b50610492610bb6366004614872565b612b2b565b348015610bc757600080fd5b5061012d5460ff1660405161040f9190615039565b348015610be857600080fd5b50610593610bf7366004614872565b612b75565b348015610c0857600080fd5b50610492610c173660046148dc565b612bc8565b60007fffffffff0000000000000000000000000000000000000000000000000000000082167f80ac58cd000000000000000000000000000000000000000000000000000000001480610caf57507fffffffff0000000000000000000000000000000000000000000000000000000082167f5b5e139f00000000000000000000000000000000000000000000000000000000145b80610cfb57507f01ffc9a7000000000000000000000000000000000000000000000000000000007fffffffff000000000000000000000000000000000000000000000000000000008316145b92915050565b606060658054610d1090615047565b80601f0160208091040260200160405190810160405280929190818152602001828054610d3c90615047565b8015610d895780601f10610d5e57610100808354040283529160200191610d89565b820191906000526020600020905b815481529060010190602001808311610d6c57829003601f168201915b5050505050905090565b6000610d9e82612c55565b506000908152606960205260409020546001600160a01b031690565b6000610dc5826119b7565b9050806001600160a01b0316836001600160a01b031603610e535760405162461bcd60e51b815260206004820152602160248201527f4552433732313a20617070726f76616c20746f2063757272656e74206f776e6560448201527f720000000000000000000000000000000000000000000000000000000000000060648201526084015b60405180910390fd5b336001600160a01b0382161480610e6f5750610e6f8133610b25565b610ee15760405162461bcd60e51b815260206004820152603d60248201527f4552433732313a20617070726f76652063616c6c6572206973206e6f7420746f60448201527f6b656e206f776e6572206f7220617070726f76656420666f7220616c6c0000006064820152608401610e4a565b610eeb8383612cb9565b505050565b6101315460ff16610f2d576040517f74de3ef100000000000000000000000000000000000000000000000000000000815260040160405180910390fd5b610f3681612d34565b50565b61013554690100000000000000000090046001600160a01b03163314610fa15760405162461bcd60e51b815260206004820152601760248201527f43616c6c6572206973206e6f74207468652061646d696e0000000000000000006044820152606401610e4a565b610135546001600160a01b036901000000000000000000909104811690821603610ff7576040517f1757e84700000000000000000000000000000000000000000000000000000000815260040160405180910390fd5b61013580546001600160a01b039092166901000000000000000000027fffffff0000000000000000000000000000000000000000ffffffffffffffffff909216919091179055565b6110493382612ec8565b6110bb5760405162461bcd60e51b815260206004820152602d60248201527f4552433732313a2063616c6c6572206973206e6f7420746f6b656e206f776e6560448201527f72206f7220617070726f766564000000000000000000000000000000000000006064820152608401610e4a565b610eeb838383612f46565b6110ce613189565b806040516020016110df9190615081565b6040516020818303038152906040528051906020012061012e604051602001611108919061509d565b6040516020818303038152906040528051906020012003611155576040517fcc52148300000000000000000000000000000000000000000000000000000000815260040160405180910390fd5b61012e6111628282615161565b5050565b61116e613189565b6111766131e3565b565b610eeb8383836040518060200160405280600081525061280d565b336111b15760405163e6c4247b60e01b815260040160405180910390fd5b6000818152606760205260409020546001600160a01b03166111ff576040517fceea21b600000000000000000000000000000000000000000000000000000000815260040160405180910390fd5b33611209826119b7565b6001600160a01b03161461125f5760405162461bcd60e51b815260206004820181905260248201527f4e465469783a20596f7520646f206e6f74206f776e207468697320746f6b656e6044820152606401610e4a565b610f3681613235565b6000805b825181101561132f57610139818154811061128957611289615221565b90600052602060002090600502016004015461013982815481106112af576112af615221565b9060005260206000209060050201600201546112cb919061524d565b8382815181106112dd576112dd615221565b6020026020010151111561131d576040517f836b723900000000000000000000000000000000000000000000000000000000815260040160405180910390fd5b8061132781615260565b91505061126c565b50600192915050565b6001600160a01b038116600090815260fd60205260409020546113c35760405162461bcd60e51b815260206004820152602660248201527f5061796d656e7453706c69747465723a206163636f756e7420686173206e6f2060448201527f73686172657300000000000000000000000000000000000000000000000000006064820152608401610e4a565b60006113cf83836128ee565b9050806000036114475760405162461bcd60e51b815260206004820152602b60248201527f5061796d656e7453706c69747465723a206163636f756e74206973206e6f742060448201527f647565207061796d656e740000000000000000000000000000000000000000006064820152608401610e4a565b6001600160a01b038316600090815261010060205260408120805483929061147090849061527a565b90915550506001600160a01b038084166000908152610101602090815260408083209386168352929052208054820190556114ac8383836132e5565b604080516001600160a01b038481168252602082018490528516917f3be5b7a71e84ed12875d241991c70855ac5817d847039e17a9d895c1ceb0f18a910160405180910390a2505050565b600054610100900460ff16158080156115175750600054600160ff909116105b806115315750303b158015611531575060005460ff166001145b6115a35760405162461bcd60e51b815260206004820152602e60248201527f496e697469616c697a61626c653a20636f6e747261637420697320616c72656160448201527f647920696e697469616c697a65640000000000000000000000000000000000006064820152608401610e4a565b6000805460ff1916600117905580156115c6576000805461ff0019166101001790555b6101355460ff161515600103611608576040517fce56303600000000000000000000000000000000000000000000000000000000815260040160405180910390fd5b6001600160a01b038416611648576040517fd92e233d00000000000000000000000000000000000000000000000000000000815260040160405180910390fd5b8660018851611657919061524d565b8151811061166757611667615221565b60200260200101518363ffffffff16101580611681575060005b156116b8576040517faadf021200000000000000000000000000000000000000000000000000000000815260040160405180910390fd5b61013580547fffffff0000000000000000000000000000000000000000ffffffffffffffffff1669010000000000000000006001600160a01b03871602179055611700613365565b61170a8b8b6133d8565b611714868661344d565b865188511461174f576040517f141928d800000000000000000000000000000000000000000000000000000000815260040160405180910390fd5b61010087511061177257604051638a3dabaf60e01b815260040160405180910390fd5b610100885110611795576040516390ef7a8560e01b815260040160405180910390fd5b60008060005b8a518110156118eb5760008a82815181106117b8576117b8615221565b60200260200101519050600081116117fc576040517f694fce2a00000000000000000000000000000000000000000000000000000000815260040160405180910390fd5b61180783600161527a565b935080925060008c838151811061182057611820615221565b60200260200101519050600081101561184c576040516390ef7a8560e01b815260040160405180910390fd5b6101396040518060a001604052808787611866919061524d565b61187190600161527a565b81526020808201899052604080830189905260608084019690965260809283018a9052845460018181018755600096875295839020855160059092020190815591840151948201949094559282015160028401559281015160038301559091015160049091015550806118e381615260565b91505061179b565b508951611900906101329060208d0190614764565b508851611915906101339060208c0190614764565b5061012f84905563ffffffff851660000361193757610131805461ff00191690555b610131805465ffffffff000019166201000063ffffffff88160217905561012e6119618c82615161565b50505080156119aa576000805461ff0019169055604051600181527f7f26b83ff96e1f2b6a682f133852f6798a09c465da95921460cefb38474024989060200160405180910390a15b5050505050505050505050565b6000818152606760205260408120546001600160a01b031680610cfb5760405162461bcd60e51b815260206004820152601860248201527f4552433732313a20696e76616c696420746f6b656e20494400000000000000006044820152606401610e4a565b60006001600160a01b038216611a9a5760405162461bcd60e51b815260206004820152602960248201527f4552433732313a2061646472657373207a65726f206973206e6f74206120766160448201527f6c6964206f776e657200000000000000000000000000000000000000000000006064820152608401610e4a565b506001600160a01b031660009081526068602052604090205490565b611abe613189565b61117660006134c2565b611ad0613189565b6101398054611ae19060019061524d565b81548110611af157611af1615221565b9060005260206000209060050201600201548163ffffffff16101580611b15575060005b15611b4c576040517faadf021200000000000000000000000000000000000000000000000000000000815260040160405180910390fd5b8063ffffffff16600003611b6757610131805461ff00191690555b610131805463ffffffff909216620100000265ffffffff000019909216919091179055565b611b94613189565b8151815114611bcf576040517f141928d800000000000000000000000000000000000000000000000000000000815260040160405180910390fd5b610100825110611bf257604051638a3dabaf60e01b815260040160405180910390fd5b610100815110611c15576040516390ef7a8560e01b815260040160405180910390fd5b6101398054611c269060019061524d565b81548110611c3657611c36615221565b90600052602060002090600502016002015482600081518110611c5b57611c5b615221565b60200260200101511015611c8257604051638a3dabaf60e01b815260040160405180910390fd5b60008060005b8351811015611e7b576000858281518110611ca557611ca5615221565b6020026020010151905060008111611ce9576040517f694fce2a00000000000000000000000000000000000000000000000000000000815260040160405180910390fd5b6101398054611cfa9060019061524d565b81548110611d0a57611d0a615221565b9060005260206000209060050201600201546001611d28919061527a565b93508092506000858381518110611d4157611d41615221565b602002602001015190506000811015611d6d576040516390ef7a8560e01b815260040160405180910390fd5b6040805160a081018252928352602083018681529083018581526060840192835260808401878152610139805460018101825560009190915294517f22d66071756d4d57920b8322c1a903a27bd75b44065e925d5f9f1c08908d28f660059096029586015591517f22d66071756d4d57920b8322c1a903a27bd75b44065e925d5f9f1c08908d28f7850155517f22d66071756d4d57920b8322c1a903a27bd75b44065e925d5f9f1c08908d28f884015590517f22d66071756d4d57920b8322c1a903a27bd75b44065e925d5f9f1c08908d28f9830155517f22d66071756d4d57920b8322c1a903a27bd75b44065e925d5f9f1c08908d28fa9091015580611e7381615260565b915050611c88565b5050505050565b6040805180820190915260008082526020820152611eb7826000908152606760205260409020546001600160a01b0316151590565b611eed576040517fceea21b600000000000000000000000000000000000000000000000000000000815260040160405180910390fd5b5060009081526101386020908152604091829020825180840190935280548352600101549082015290565b611f20613189565b611176613521565b611f30613189565b826001811115611f4257611f42615001565b61012d5460ff166001811115611f5a57611f5a615001565b03611f91576040517f9a36fd9c00000000000000000000000000000000000000000000000000000000815260040160405180910390fd5b60005b8251811015612045576000838281518110611fb157611fb1615221565b60200260200101511015611ff1576040517f7618986200000000000000000000000000000000000000000000000000000000815260040160405180910390fd5b82818151811061200357612003615221565b6020026020010151610139828154811061201f5761201f615221565b60009182526020909120600360059092020101558061203d81615260565b915050611f94565b5061012d805484919060ff19166001838181111561206557612065615001565b02179055508063ffffffff1660000361208557610131805461ff00191690555b610131805465ffffffff000019166201000063ffffffff8481168202929092179283905561012d546040517fcd97b64e2b2306377369b88034854a2253c3748c473d51b1ca02d4a211287b28946120e79460ff909316938893910416906152c8565b60405180910390a1505050565b600060ff828154811061210957612109615221565b6000918252602090912001546001600160a01b031692915050565b61212c61355e565b612134613189565b6001600160a01b03821661215b5760405163e6c4247b60e01b815260040160405180910390fd5b61013954815114612198576040517fc7a3705300000000000000000000000000000000000000000000000000000000815260040160405180910390fd5b6121a181611268565b5060005b815181101561230c5760008282815181106121c2576121c2615221565b6020026020010151905060005b818110156122565760008161013985815481106121ee576121ee615221565b90600052602060002090600502016004015461220a919061527a565b905061221686826135b1565b604080518082018252858152602080820184815260009485526101389091529190922091518255516001909101558061224e81615260565b9150506121cf565b5080610139838154811061226c5761226c615221565b9060005260206000209060050201600401600082825461228c919061527a565b90915550506001600160a01b03841660009081526101376020526040812080548392906122ba90849061527a565b90915550506000828152610136602090815260408083206001600160a01b0388168452909152812080548392906122f290849061527a565b90915550829150612304905081615260565b9150506121a5565b50816001600160a01b03167f4909e8e1ac9f72151c4a917126c23646c2a6c0075810564589c3506b5441d68b8260405161234691906152fe565b60405180910390a25050565b606060668054610d1090615047565b612369613189565b610139548211156123a6576040517fd8a7da6b00000000000000000000000000000000000000000000000000000000815260040160405180910390fd5b8061013983815481106123bb576123bb615221565b9060005260206000209060050201600301819055508061013283815481106123e5576123e5615221565b6000918252602090912001555050565b6111623383836135cb565b60008061240c60fc5490565b612416904761527a565b9050612441838261243c866001600160a01b0316600090815260fe602052604090205490565b613699565b9392505050565b61245061355e565b346001600160a01b0384166124785760405163e6c4247b60e01b815260040160405180910390fd5b610139548251146124b5576040517fc7a3705300000000000000000000000000000000000000000000000000000000815260040160405180910390fd5b600061012d5460ff1660018111156124cf576124cf615001565b036124df576124dd836136d7565b505b60008060005b84518110156125f857600085828151811061250257612502615221565b60200260200101519050610139828154811061252057612520615221565b906000526020600020906005020160010154610139838154811061254657612546615221565b906000526020600020906005020160020154612562919061524d565b81111561259b576040517f836b723900000000000000000000000000000000000000000000000000000000815260040160405180910390fd5b6125a5818561527a565b935061013982815481106125bb576125bb615221565b906000526020600020906005020160030154816125d89190615311565b6125e2908461527a565b92505080806125f090615260565b9150506124e5565b50808314612632576040517f3acace0100000000000000000000000000000000000000000000000000000000815260040160405180910390fd5b61013154610100900460ff161561264f5761264d868361376f565b505b61265884611268565b5060005b84518110156127c357600085828151811061267957612679615221565b6020026020010151905060005b8181101561270d5760008161013985815481106126a5576126a5615221565b9060005260206000209060050201600401546126c1919061527a565b90506126cd33826135b1565b604080518082018252858152602080820184815260009485526101389091529190922091518255516001909101558061270581615260565b915050612686565b5080610139838154811061272357612723615221565b90600052602060002090600502016004016000828254612743919061527a565b90915550506001600160a01b038816600090815261013760205260408120805483929061277190849061527a565b90915550506000828152610136602090815260408083206001600160a01b038c168452909152812080548392906127a990849061527a565b909155508291506127bb905081615260565b91505061265c565b50856001600160a01b03167f9a7aef3eb8aea02169cf5c8743490509b84b686b1c7606c8fe0deb265752f6e8856040516127fd91906152fe565b60405180910390a2505050505050565b6128173383612ec8565b6128895760405162461bcd60e51b815260206004820152602d60248201527f4552433732313a2063616c6c6572206973206e6f7420746f6b656e206f776e6560448201527f72206f7220617070726f766564000000000000000000000000000000000000006064820152608401610e4a565b612895848484846137df565b50505050565b6101395460009082106128c157604051638a3dabaf60e01b815260040160405180910390fd5b61013982815481106128d5576128d5615221565b9060005260206000209060050201600401549050919050565b6001600160a01b0382166000908152610100602052604081205481906040517f70a082310000000000000000000000000000000000000000000000000000000081523060048201526001600160a01b038616906370a0823190602401602060405180830381865afa158015612967573d6000803e3d6000fd5b505050506040513d601f19601f8201168201806040525081019061298b9190615328565b612995919061527a565b6001600160a01b03808616600090815261010160209081526040808320938816835292905220549091506129cc9084908390613699565b949350505050565b60606129df82612c55565b60006129e9613868565b90506000815111612a095760405180602001604052806000815250612441565b80612a1384613878565b604051602001612a24929190615341565b6040516020818303038152906040529392505050565b61013554690100000000000000000090046001600160a01b03163314612aa25760405162461bcd60e51b815260206004820152601760248201527f43616c6c6572206973206e6f74207468652061646d696e0000000000000000006044820152606401610e4a565b610131805460ff1916911515919091179055565b6101328181548110612ac757600080fd5b600091825260209091200154905081565b6101338181548110612ac757600080fd5b6101398181548110612afa57600080fd5b6000918252602090912060059091020180546001820154600283015460038401546004909401549294509092909185565b612b33613189565b61012f548103612b6f576040517f9dd854d300000000000000000000000000000000000000000000000000000000815260040160405180910390fd5b61012f55565b610139546000908210612b9b57604051638a3dabaf60e01b815260040160405180910390fd5b6101398281548110612baf57612baf615221565b9060005260206000209060050201600301549050919050565b612bd0613189565b6001600160a01b038116612c4c5760405162461bcd60e51b815260206004820152602660248201527f4f776e61626c653a206e6577206f776e657220697320746865207a65726f206160448201527f64647265737300000000000000000000000000000000000000000000000000006064820152608401610e4a565b610f36816134c2565b6000818152606760205260409020546001600160a01b0316610f365760405162461bcd60e51b815260206004820152601860248201527f4552433732313a20696e76616c696420746f6b656e20494400000000000000006044820152606401610e4a565b6000818152606960205260409020805473ffffffffffffffffffffffffffffffffffffffff19166001600160a01b0384169081179091558190612cfb826119b7565b6001600160a01b03167f8c5be1e5ebec7d5bd14f71427d1e84f3dd0314c0f7b2291e5b200ac8c7c3b92560405160405180910390a45050565b6001600160a01b038116600090815260fd6020526040902054612dbf5760405162461bcd60e51b815260206004820152602660248201527f5061796d656e7453706c69747465723a206163636f756e7420686173206e6f2060448201527f73686172657300000000000000000000000000000000000000000000000000006064820152608401610e4a565b6000612dca82612400565b905080600003612e425760405162461bcd60e51b815260206004820152602b60248201527f5061796d656e7453706c69747465723a206163636f756e74206973206e6f742060448201527f647565207061796d656e740000000000000000000000000000000000000000006064820152608401610e4a565b8060fc6000828254612e54919061527a565b90915550506001600160a01b038216600090815260fe60205260409020805482019055612e818282613918565b604080516001600160a01b0384168152602081018390527fdf20fd1e76bc69d672e4814fafb2c449bba3a5369d8359adf9e05e6fde87b05691015b60405180910390a15050565b600080612ed4836119b7565b9050806001600160a01b0316846001600160a01b03161480612f1b57506001600160a01b038082166000908152606a602090815260408083209388168352929052205460ff165b806129cc5750836001600160a01b0316612f3484610d93565b6001600160a01b031614949350505050565b826001600160a01b0316612f59826119b7565b6001600160a01b031614612fd55760405162461bcd60e51b815260206004820152602560248201527f4552433732313a207472616e736665722066726f6d20696e636f72726563742060448201527f6f776e65720000000000000000000000000000000000000000000000000000006064820152608401610e4a565b6001600160a01b0382166130505760405162461bcd60e51b8152602060048201526024808201527f4552433732313a207472616e7366657220746f20746865207a65726f2061646460448201527f72657373000000000000000000000000000000000000000000000000000000006064820152608401610e4a565b61305d8383836001613a31565b826001600160a01b0316613070826119b7565b6001600160a01b0316146130ec5760405162461bcd60e51b815260206004820152602560248201527f4552433732313a207472616e736665722066726f6d20696e636f72726563742060448201527f6f776e65720000000000000000000000000000000000000000000000000000006064820152608401610e4a565b6000818152606960209081526040808320805473ffffffffffffffffffffffffffffffffffffffff199081169091556001600160a01b0387811680865260688552838620805460001901905590871680865283862080546001019055868652606790945282852080549092168417909155905184937fddf252ad1be2c89b69c2b068fc378daa952ba7f163c4a11628f55a4df523b3ef91a4505050565b60c9546001600160a01b031633146111765760405162461bcd60e51b815260206004820181905260248201527f4f776e61626c653a2063616c6c6572206973206e6f7420746865206f776e65726044820152606401610e4a565b6131eb613ab9565b6097805460ff191690557f5db9ee0a495bf2e6ff9c91a7834c1ba4fdd244a5e8aa4e537bd38aeae4b073aa335b6040516001600160a01b03909116815260200160405180910390a1565b6000613240826119b7565b9050613250816000846001613a31565b613259826119b7565b6000838152606960209081526040808320805473ffffffffffffffffffffffffffffffffffffffff199081169091556001600160a01b0385168085526068845282852080546000190190558785526067909352818420805490911690555192935084927fddf252ad1be2c89b69c2b068fc378daa952ba7f163c4a11628f55a4df523b3ef908390a45050565b604080516001600160a01b038416602482015260448082018490528251808303909101815260649091019091526020810180517bffffffffffffffffffffffffffffffffffffffffffffffffffffffff167fa9059cbb00000000000000000000000000000000000000000000000000000000179052610eeb908490613b0b565b600054610100900460ff166133d05760405162461bcd60e51b815260206004820152602b60248201527f496e697469616c697a61626c653a20636f6e7472616374206973206e6f74206960448201526a6e697469616c697a696e6760a81b6064820152608401610e4a565b611176613bf0565b600054610100900460ff166134435760405162461bcd60e51b815260206004820152602b60248201527f496e697469616c697a61626c653a20636f6e7472616374206973206e6f74206960448201526a6e697469616c697a696e6760a81b6064820152608401610e4a565b6111628282613c64565b600054610100900460ff166134b85760405162461bcd60e51b815260206004820152602b60248201527f496e697469616c697a61626c653a20636f6e7472616374206973206e6f74206960448201526a6e697469616c697a696e6760a81b6064820152608401610e4a565b6111628282613ce8565b60c980546001600160a01b0383811673ffffffffffffffffffffffffffffffffffffffff19831681179093556040519116919082907f8be0079c531659141344cd1fd0a4f28419497f9722a3daafe3b4186f6b6457e090600090a35050565b61352961355e565b6097805460ff191660011790557f62e78cea01bee320cd4e420270b5ea74000d11b0c9f74754ebdbfc544b05a2586132183390565b60975460ff16156111765760405162461bcd60e51b815260206004820152601060248201527f5061757361626c653a20706175736564000000000000000000000000000000006044820152606401610e4a565b611162828260405180602001604052806000815250613e75565b816001600160a01b0316836001600160a01b03160361362c5760405162461bcd60e51b815260206004820152601960248201527f4552433732313a20617070726f766520746f2063616c6c6572000000000000006044820152606401610e4a565b6001600160a01b038381166000818152606a6020908152604080832094871680845294825291829020805460ff191686151590811790915591519182527f17307eab39ab6107e8899845ad3d59bd9653f200f220920489ca2b5937696c31910160405180910390a3505050565b60fb546001600160a01b038416600090815260fd6020526040812054909183916136c39086615311565b6136cd9190615370565b6129cc919061524d565b61012f546040517fffffffffffffffffffffffffffffffffffffffff0000000000000000000000003360601b1660208201526000916137319184919060340160405160208183030381529060405280519060200120613efe565b613767576040517f98b836cc00000000000000000000000000000000000000000000000000000000815260040160405180910390fd5b506001919050565b610131546001600160a01b03831660009081526101376020526040812054909162010000900463ffffffff16906137a790849061527a565b111561132f576040517f1ddd6c0b00000000000000000000000000000000000000000000000000000000815260040160405180910390fd5b6137ea848484612f46565b6137f684848484613f14565b6128955760405162461bcd60e51b815260206004820152603260248201527f4552433732313a207472616e7366657220746f206e6f6e20455243373231526560448201527f63656976657220696d706c656d656e74657200000000000000000000000000006064820152608401610e4a565b606061012e8054610d1090615047565b60606000613885836140b5565b600101905060008167ffffffffffffffff8111156138a5576138a561493a565b6040519080825280601f01601f1916602001820160405280156138cf576020820181803683370190505b5090508181016020015b600019017f3031323334353637383961626364656600000000000000000000000000000000600a86061a8153600a85049450846138d957509392505050565b804710156139685760405162461bcd60e51b815260206004820152601d60248201527f416464726573733a20696e73756666696369656e742062616c616e63650000006044820152606401610e4a565b6000826001600160a01b03168260405160006040518083038185875af1925050503d80600081146139b5576040519150601f19603f3d011682016040523d82523d6000602084013e6139ba565b606091505b5050905080610eeb5760405162461bcd60e51b815260206004820152603a60248201527f416464726573733a20756e61626c6520746f2073656e642076616c75652c207260448201527f6563697069656e74206d617920686176652072657665727465640000000000006064820152608401610e4a565b6001811115612895576001600160a01b03841615613a77576001600160a01b03841660009081526068602052604081208054839290613a7190849061524d565b90915550505b6001600160a01b03831615612895576001600160a01b03831660009081526068602052604081208054839290613aae90849061527a565b909155505050505050565b60975460ff166111765760405162461bcd60e51b815260206004820152601460248201527f5061757361626c653a206e6f74207061757365640000000000000000000000006044820152606401610e4a565b6000613b60826040518060400160405280602081526020017f5361666545524332303a206c6f772d6c6576656c2063616c6c206661696c6564815250856001600160a01b03166141979092919063ffffffff16565b805190915015610eeb5780806020019051810190613b7e9190615392565b610eeb5760405162461bcd60e51b815260206004820152602a60248201527f5361666545524332303a204552433230206f7065726174696f6e20646964206e60448201527f6f742073756363656564000000000000000000000000000000000000000000006064820152608401610e4a565b600054610100900460ff16613c5b5760405162461bcd60e51b815260206004820152602b60248201527f496e697469616c697a61626c653a20636f6e7472616374206973206e6f74206960448201526a6e697469616c697a696e6760a81b6064820152608401610e4a565b611176336134c2565b600054610100900460ff16613ccf5760405162461bcd60e51b815260206004820152602b60248201527f496e697469616c697a61626c653a20636f6e7472616374206973206e6f74206960448201526a6e697469616c697a696e6760a81b6064820152608401610e4a565b6065613cdb8382615161565b506066610eeb8282615161565b600054610100900460ff16613d535760405162461bcd60e51b815260206004820152602b60248201527f496e697469616c697a61626c653a20636f6e7472616374206973206e6f74206960448201526a6e697469616c697a696e6760a81b6064820152608401610e4a565b8051825114613dca5760405162461bcd60e51b815260206004820152603260248201527f5061796d656e7453706c69747465723a2070617965657320616e64207368617260448201527f6573206c656e677468206d69736d6174636800000000000000000000000000006064820152608401610e4a565b6000825111613e1b5760405162461bcd60e51b815260206004820152601a60248201527f5061796d656e7453706c69747465723a206e6f207061796565730000000000006044820152606401610e4a565b60005b8251811015610eeb57613e63838281518110613e3c57613e3c615221565b6020026020010151838381518110613e5657613e56615221565b60200260200101516141a6565b80613e6d81615260565b915050613e1e565b613e7f83836143b5565b613e8c6000848484613f14565b610eeb5760405162461bcd60e51b815260206004820152603260248201527f4552433732313a207472616e7366657220746f206e6f6e20455243373231526560448201527f63656976657220696d706c656d656e74657200000000000000000000000000006064820152608401610e4a565b600082613f0b858461455b565b14949350505050565b60006001600160a01b0384163b156140aa576040517f150b7a020000000000000000000000000000000000000000000000000000000081526001600160a01b0385169063150b7a0290613f719033908990889088906004016153af565b6020604051808303816000875af1925050508015613fac575060408051601f3d908101601f19168201909252613fa9918101906153eb565b60015b61405f573d808015613fda576040519150601f19603f3d011682016040523d82523d6000602084013e613fdf565b606091505b5080516000036140575760405162461bcd60e51b815260206004820152603260248201527f4552433732313a207472616e7366657220746f206e6f6e20455243373231526560448201527f63656976657220696d706c656d656e74657200000000000000000000000000006064820152608401610e4a565b805181602001fd5b7fffffffff00000000000000000000000000000000000000000000000000000000167f150b7a02000000000000000000000000000000000000000000000000000000001490506129cc565b506001949350505050565b6000807a184f03e93ff9f4daa797ed6e38ed64bf6a1f01000000000000000083106140fe577a184f03e93ff9f4daa797ed6e38ed64bf6a1f010000000000000000830492506040015b6d04ee2d6d415b85acef8100000000831061412a576d04ee2d6d415b85acef8100000000830492506020015b662386f26fc10000831061414857662386f26fc10000830492506010015b6305f5e1008310614160576305f5e100830492506008015b612710831061417457612710830492506004015b60648310614186576064830492506002015b600a8310610cfb5760010192915050565b60606129cc84846000856145a8565b6001600160a01b0382166142225760405162461bcd60e51b815260206004820152602c60248201527f5061796d656e7453706c69747465723a206163636f756e74206973207468652060448201527f7a65726f206164647265737300000000000000000000000000000000000000006064820152608401610e4a565b600081116142725760405162461bcd60e51b815260206004820152601d60248201527f5061796d656e7453706c69747465723a207368617265732061726520300000006044820152606401610e4a565b6001600160a01b038216600090815260fd6020526040902054156142fe5760405162461bcd60e51b815260206004820152602b60248201527f5061796d656e7453706c69747465723a206163636f756e7420616c726561647960448201527f20686173207368617265730000000000000000000000000000000000000000006064820152608401610e4a565b60ff8054600181019091557fe08ec2af2cfc251225e1968fd6ca21e4044f129bffa95bac3503be8bdb30a36701805473ffffffffffffffffffffffffffffffffffffffff19166001600160a01b038416908117909155600090815260fd6020526040902081905560fb5461437390829061527a565b60fb55604080516001600160a01b0384168152602081018390527f40c340f65e17194d14ddddb073d3c9f888e3cb52b5aae0c6c7706b4fbc905fac9101612ebc565b6001600160a01b03821661440b5760405162461bcd60e51b815260206004820181905260248201527f4552433732313a206d696e7420746f20746865207a65726f20616464726573736044820152606401610e4a565b6000818152606760205260409020546001600160a01b0316156144705760405162461bcd60e51b815260206004820152601c60248201527f4552433732313a20746f6b656e20616c7265616479206d696e746564000000006044820152606401610e4a565b61447e600083836001613a31565b6000818152606760205260409020546001600160a01b0316156144e35760405162461bcd60e51b815260206004820152601c60248201527f4552433732313a20746f6b656e20616c7265616479206d696e746564000000006044820152606401610e4a565b6001600160a01b0382166000818152606860209081526040808320805460010190558483526067909152808220805473ffffffffffffffffffffffffffffffffffffffff19168417905551839291907fddf252ad1be2c89b69c2b068fc378daa952ba7f163c4a11628f55a4df523b3ef908290a45050565b600081815b84518110156145a05761458c8286838151811061457f5761457f615221565b602002602001015161469a565b91508061459881615260565b915050614560565b509392505050565b6060824710156146205760405162461bcd60e51b815260206004820152602660248201527f416464726573733a20696e73756666696369656e742062616c616e636520666f60448201527f722063616c6c00000000000000000000000000000000000000000000000000006064820152608401610e4a565b600080866001600160a01b0316858760405161463c9190615081565b60006040518083038185875af1925050503d8060008114614679576040519150601f19603f3d011682016040523d82523d6000602084013e61467e565b606091505b509150915061468f878383876146c6565b979650505050505050565b60008183106146b6576000828152602084905260409020612441565b5060009182526020526040902090565b6060831561473557825160000361472e576001600160a01b0385163b61472e5760405162461bcd60e51b815260206004820152601d60248201527f416464726573733a2063616c6c20746f206e6f6e2d636f6e74726163740000006044820152606401610e4a565b50816129cc565b6129cc838381511561474a5781518083602001fd5b8060405162461bcd60e51b8152600401610e4a919061485f565b82805482825590600052602060002090810192821561479f579160200282015b8281111561479f578251825591602001919060010190614784565b506147ab9291506147af565b5090565b5b808211156147ab57600081556001016147b0565b7fffffffff0000000000000000000000000000000000000000000000000000000081168114610f3657600080fd5b60006020828403121561480457600080fd5b8135612441816147c4565b60005b8381101561482a578181015183820152602001614812565b50506000910152565b6000815180845261484b81602086016020860161480f565b601f01601f19169290920160200192915050565b6020815260006124416020830184614833565b60006020828403121561488457600080fd5b5035919050565b6001600160a01b0381168114610f3657600080fd5b80356148ab8161488b565b919050565b600080604083850312156148c357600080fd5b82356148ce8161488b565b946020939093013593505050565b6000602082840312156148ee57600080fd5b81356124418161488b565b60008060006060848603121561490e57600080fd5b83356149198161488b565b925060208401356149298161488b565b929592945050506040919091013590565b634e487b7160e01b600052604160045260246000fd5b604051601f8201601f1916810167ffffffffffffffff811182821017156149795761497961493a565b604052919050565b600067ffffffffffffffff83111561499b5761499b61493a565b6149ae6020601f19601f86011601614950565b90508281528383830111156149c257600080fd5b828260208301376000602084830101529392505050565b600082601f8301126149ea57600080fd5b61244183833560208501614981565b600060208284031215614a0b57600080fd5b813567ffffffffffffffff811115614a2257600080fd5b6129cc848285016149d9565b60008060408385031215614a4157600080fd5b8235614a4c8161488b565b91506020830135614a5c8161488b565b809150509250929050565b600067ffffffffffffffff821115614a8157614a8161493a565b5060051b60200190565b600082601f830112614a9c57600080fd5b81356020614ab1614aac83614a67565b614950565b82815260059290921b84018101918181019086841115614ad057600080fd5b8286015b84811015614aeb5780358352918301918301614ad4565b509695505050505050565b600060208284031215614b0857600080fd5b813567ffffffffffffffff811115614b1f57600080fd5b6129cc84828501614a8b565b600082601f830112614b3c57600080fd5b81356020614b4c614aac83614a67565b82815260059290921b84018101918181019086841115614b6b57600080fd5b8286015b84811015614aeb578035614b828161488b565b8352918301918301614b6f565b803563ffffffff811681146148ab57600080fd5b6000806000806000806000806000806101408b8d031215614bc357600080fd5b8a3567ffffffffffffffff80821115614bdb57600080fd5b614be78e838f016149d9565b9b5060208d0135915080821115614bfd57600080fd5b614c098e838f016149d9565b9a5060408d0135915080821115614c1f57600080fd5b614c2b8e838f016149d9565b995060608d0135915080821115614c4157600080fd5b614c4d8e838f01614a8b565b985060808d0135915080821115614c6357600080fd5b614c6f8e838f01614a8b565b975060a08d0135915080821115614c8557600080fd5b614c918e838f01614b2b565b965060c08d0135915080821115614ca757600080fd5b50614cb48d828e01614a8b565b945050614cc360e08c016148a0565b9250614cd26101008c01614b8f565b91506101208b013590509295989b9194979a5092959850565b600060208284031215614cfd57600080fd5b61244182614b8f565b60008060408385031215614d1957600080fd5b823567ffffffffffffffff80821115614d3157600080fd5b614d3d86838701614a8b565b93506020850135915080821115614d5357600080fd5b50614d6085828601614a8b565b9150509250929050565b600080600060608486031215614d7f57600080fd5b833560028110614d8e57600080fd5b9250602084013567ffffffffffffffff811115614daa57600080fd5b614db686828701614a8b565b925050614dc560408501614b8f565b90509250925092565b60008060408385031215614de157600080fd5b8235614dec8161488b565b9150602083013567ffffffffffffffff811115614e0857600080fd5b614d6085828601614a8b565b60008060408385031215614e2757600080fd5b50508035926020909101359150565b8015158114610f3657600080fd5b60008060408385031215614e5757600080fd5b8235614e628161488b565b91506020830135614a5c81614e36565b600080600060608486031215614e8757600080fd5b8335614e928161488b565b925060208481013567ffffffffffffffff80821115614eb057600080fd5b818701915087601f830112614ec457600080fd5b8135614ed2614aac82614a67565b81815260059190911b8301840190848101908a831115614ef157600080fd5b938501935b82851015614f0f57843582529385019390850190614ef6565b965050506040870135925080831115614f2757600080fd5b5050614f3586828701614a8b565b9150509250925092565b60008060008060808587031215614f5557600080fd5b8435614f608161488b565b93506020850135614f708161488b565b925060408501359150606085013567ffffffffffffffff811115614f9357600080fd5b8501601f81018713614fa457600080fd5b614fb387823560208401614981565b91505092959194509250565b600060208284031215614fd157600080fd5b813561244181614e36565b60008060408385031215614fef57600080fd5b823591506020830135614a5c8161488b565b634e487b7160e01b600052602160045260246000fd5b6002811061503557634e487b7160e01b600052602160045260246000fd5b9052565b60208101610cfb8284615017565b600181811c9082168061505b57607f821691505b60208210810361507b57634e487b7160e01b600052602260045260246000fd5b50919050565b6000825161509381846020870161480f565b9190910192915050565b60008083546150ab81615047565b600182811680156150c357600181146150d857615107565b60ff1984168752821515830287019450615107565b8760005260208060002060005b858110156150fe5781548a8201529084019082016150e5565b50505082870194505b50929695505050505050565b601f821115610eeb57600081815260208120601f850160051c8101602086101561513a5750805b601f850160051c820191505b8181101561515957828155600101615146565b505050505050565b815167ffffffffffffffff81111561517b5761517b61493a565b61518f816151898454615047565b84615113565b602080601f8311600181146151c457600084156151ac5750858301515b600019600386901b1c1916600185901b178555615159565b600085815260208120601f198616915b828110156151f3578886015182559484019460019091019084016151d4565b50858210156152115787850151600019600388901b60f8161c191681555b5050505050600190811b01905550565b634e487b7160e01b600052603260045260246000fd5b634e487b7160e01b600052601160045260246000fd5b81810381811115610cfb57610cfb615237565b6000600019820361527357615273615237565b5060010190565b80820180821115610cfb57610cfb615237565b600081518084526020808501945080840160005b838110156152bd578151875295820195908201906001016152a1565b509495945050505050565b6152d28185615017565b6060602082015260006152e8606083018561528d565b905063ffffffff83166040830152949350505050565b602081526000612441602083018461528d565b8082028115828204841417610cfb57610cfb615237565b60006020828403121561533a57600080fd5b5051919050565b6000835161535381846020880161480f565b83519083019061536781836020880161480f565b01949350505050565b60008261538d57634e487b7160e01b600052601260045260246000fd5b500490565b6000602082840312156153a457600080fd5b815161244181614e36565b60006001600160a01b038087168352808616602084015250836040830152608060608301526153e16080830184614833565b9695505050505050565b6000602082840312156153fd57600080fd5b8151612441816147c456fea2646970667358221220416fe38a2a42a4f09683c4aadfb24e3592b5385b94ab9b9201eba1462ad4bf9c64736f6c63430008110033",
  "linkReferences": {},
  "deployedLinkReferences": {}
}