{
  "_format": "hh-sol-artifact-1",
  "contractName": "NFTix721",
  "sourceName": "contracts/NFTix721.sol",
  "abi": [
    {
      "inputs": [
        {
          "internalType": "bool",
          "name": "isBase_",
          "type": "bool"
        }
      ],
      "stateMutability": "nonpayable",
      "type": "constructor"
    },
    {
      "inputs": [],
      "name": "BaseContract",
      "type": "error"
    },
    {
      "inputs": [],
      "name": "FallbackDisabled",
      "type": "error"
    },
    {
      "inputs": [],
      "name": "InvalidAddress",
      "type": "error"
    },
    {
      "inputs": [],
      "name": "InvalidBaseURI",
      "type": "error"
    },
    {
      "inputs": [],
      "name": "InvalidMerkleRoot",
      "type": "error"
    },
    {
      "inputs": [],
      "name": "InvalidNFTPrice",
      "type": "error"
    },
    {
      "inputs": [],
      "name": "InvalidPhase",
      "type": "error"
    },
    {
      "inputs": [],
      "name": "MaxTokenExceeded",
      "type": "error"
    },
    {
      "inputs": [],
      "name": "MaxTokenPerUserExceeded",
      "type": "error"
    },
    {
      "inputs": [],
      "name": "MintLimitInvalid",
      "type": "error"
    },
    {
      "inputs": [],
      "name": "NotWhitelistedUser",
      "type": "error"
    },
    {
      "inputs": [],
      "name": "ReleaseFundsError",
      "type": "error"
    },
    {
      "inputs": [],
      "name": "SameAddressError",
      "type": "error"
    },
    {
      "inputs": [],
      "name": "TicketCountInvalid",
      "type": "error"
    },
    {
      "inputs": [],
      "name": "TicketPricesInvalid",
      "type": "error"
    },
    {
      "inputs": [],
      "name": "TicketTypesInvalid",
      "type": "error"
    },
    {
      "inputs": [],
      "name": "TokenDoesNotExist",
      "type": "error"
    },
    {
      "inputs": [],
      "name": "TokenTypeDoesNotExist",
      "type": "error"
    },
    {
      "inputs": [],
      "name": "TooManyPrices",
      "type": "error"
    },
    {
      "inputs": [],
      "name": "TooManyTypes",
      "type": "error"
    },
    {
      "inputs": [],
      "name": "URIQueryForNonexistentToken",
      "type": "error"
    },
    {
      "inputs": [],
      "name": "WrongEthAmount",
      "type": "error"
    },
    {
      "inputs": [],
      "name": "ZeroAddress",
      "type": "error"
    },
    {
      "anonymous": false,
      "inputs": [
        {
          "indexed": true,
          "internalType": "address",
          "name": "to",
          "type": "address"
        },
        {
          "indexed": false,
          "internalType": "uint256[]",
          "name": "ticketTypeCounts",
          "type": "uint256[]"
        }
      ],
      "name": "AdminMint",
      "type": "event"
    },
    {
      "anonymous": false,
      "inputs": [
        {
          "indexed": true,
          "internalType": "address",
          "name": "owner",
          "type": "address"
        },
        {
          "indexed": true,
          "internalType": "address",
          "name": "approved",
          "type": "address"
        },
        {
          "indexed": true,
          "internalType": "uint256",
          "name": "tokenId",
          "type": "uint256"
        }
      ],
      "name": "Approval",
      "type": "event"
    },
    {
      "anonymous": false,
      "inputs": [
        {
          "indexed": true,
          "internalType": "address",
          "name": "owner",
          "type": "address"
        },
        {
          "indexed": true,
          "internalType": "address",
          "name": "operator",
          "type": "address"
        },
        {
          "indexed": false,
          "internalType": "bool",
          "name": "approved",
          "type": "bool"
        }
      ],
      "name": "ApprovalForAll",
      "type": "event"
    },
    {
      "anonymous": false,
      "inputs": [
        {
          "indexed": true,
          "internalType": "contract IERC20Upgradeable",
          "name": "token",
          "type": "address"
        },
        {
          "indexed": false,
          "internalType": "address",
          "name": "to",
          "type": "address"
        },
        {
          "indexed": false,
          "internalType": "uint256",
          "name": "amount",
          "type": "uint256"
        }
      ],
      "name": "ERC20PaymentReleased",
      "type": "event"
    },
    {
      "anonymous": false,
      "inputs": [
        {
          "indexed": false,
          "internalType": "uint8",
          "name": "version",
          "type": "uint8"
        }
      ],
      "name": "Initialized",
      "type": "event"
    },
    {
      "anonymous": false,
      "inputs": [
        {
          "indexed": true,
          "internalType": "address",
          "name": "previousOwner",
          "type": "address"
        },
        {
          "indexed": true,
          "internalType": "address",
          "name": "newOwner",
          "type": "address"
        }
      ],
      "name": "OwnershipTransferred",
      "type": "event"
    },
    {
      "anonymous": false,
      "inputs": [
        {
          "indexed": false,
          "internalType": "address",
          "name": "account",
          "type": "address"
        }
      ],
      "name": "Paused",
      "type": "event"
    },
    {
      "anonymous": false,
      "inputs": [
        {
          "indexed": false,
          "internalType": "address",
          "name": "account",
          "type": "address"
        },
        {
          "indexed": false,
          "internalType": "uint256",
          "name": "shares",
          "type": "uint256"
        }
      ],
      "name": "PayeeAdded",
      "type": "event"
    },
    {
      "anonymous": false,
      "inputs": [
        {
          "indexed": false,
          "internalType": "address",
          "name": "from",
          "type": "address"
        },
        {
          "indexed": false,
          "internalType": "uint256",
          "name": "amount",
          "type": "uint256"
        }
      ],
      "name": "PaymentReceived",
      "type": "event"
    },
    {
      "anonymous": false,
      "inputs": [
        {
          "indexed": false,
          "internalType": "address",
          "name": "to",
          "type": "address"
        },
        {
          "indexed": false,
          "internalType": "uint256",
          "name": "amount",
          "type": "uint256"
        }
      ],
      "name": "PaymentReleased",
      "type": "event"
    },
    {
      "anonymous": false,
      "inputs": [
        {
          "indexed": false,
          "internalType": "enum NFTix721.Phase",
          "name": "phase",
          "type": "uint8"
        },
        {
          "indexed": false,
          "internalType": "uint256[]",
          "name": "mintPrice",
          "type": "uint256[]"
        },
        {
          "indexed": false,
          "internalType": "uint256",
          "name": "mintingLimit",
          "type": "uint256"
        }
      ],
      "name": "PhaseChange",
      "type": "event"
    },
    {
      "anonymous": false,
      "inputs": [
        {
          "indexed": true,
          "internalType": "address",
          "name": "from",
          "type": "address"
        },
        {
          "indexed": true,
          "internalType": "address",
          "name": "to",
          "type": "address"
        },
        {
          "indexed": true,
          "internalType": "uint256",
          "name": "tokenId",
          "type": "uint256"
        }
      ],
      "name": "Transfer",
      "type": "event"
    },
    {
      "anonymous": false,
      "inputs": [
        {
          "indexed": false,
          "internalType": "address",
          "name": "account",
          "type": "address"
        }
      ],
      "name": "Unpaused",
      "type": "event"
    },
    {
      "anonymous": false,
      "inputs": [
        {
          "indexed": true,
          "internalType": "address",
          "name": "to",
          "type": "address"
        },
        {
          "indexed": false,
          "internalType": "uint256[]",
          "name": "ticketTypeCounts",
          "type": "uint256[]"
        }
      ],
      "name": "UserMint",
      "type": "event"
    },
    {
      "stateMutability": "payable",
      "type": "fallback"
    },
    {
      "inputs": [
        {
          "internalType": "uint256[]",
          "name": "ticketRanges_",
          "type": "uint256[]"
        },
        {
          "internalType": "uint256[]",
          "name": "ticketPrices_",
          "type": "uint256[]"
        }
      ],
      "name": "addTicketTypes",
      "outputs": [],
      "stateMutability": "nonpayable",
      "type": "function"
    },
    {
      "inputs": [
        {
          "internalType": "address",
          "name": "to",
          "type": "address"
        },
        {
          "internalType": "uint256[]",
          "name": "amount",
          "type": "uint256[]"
        }
      ],
      "name": "adminMint",
      "outputs": [],
      "stateMutability": "nonpayable",
      "type": "function"
    },
    {
      "inputs": [
        {
          "internalType": "address",
          "name": "to",
          "type": "address"
        },
        {
          "internalType": "uint256",
          "name": "tokenId",
          "type": "uint256"
        }
      ],
      "name": "approve",
      "outputs": [],
      "stateMutability": "nonpayable",
      "type": "function"
    },
    {
      "inputs": [
        {
          "internalType": "address",
          "name": "owner",
          "type": "address"
        }
      ],
      "name": "balanceOf",
      "outputs": [
        {
          "internalType": "uint256",
          "name": "",
          "type": "uint256"
        }
      ],
      "stateMutability": "view",
      "type": "function"
    },
    {
      "inputs": [
        {
          "internalType": "uint256",
          "name": "tokenId",
          "type": "uint256"
        }
      ],
      "name": "burn",
      "outputs": [],
      "stateMutability": "nonpayable",
      "type": "function"
    },
    {
      "inputs": [
        {
          "internalType": "string",
          "name": "newBaseURI",
          "type": "string"
        }
      ],
      "name": "changeBaseURI",
      "outputs": [],
      "stateMutability": "nonpayable",
      "type": "function"
    },
    {
      "inputs": [
        {
          "internalType": "bytes32",
          "name": "merkleRoot",
          "type": "bytes32"
        }
      ],
      "name": "changeMerkleRoot",
      "outputs": [],
      "stateMutability": "nonpayable",
      "type": "function"
    },
    {
      "inputs": [
        {
          "internalType": "uint32",
          "name": "mintingLimit_",
          "type": "uint32"
        }
      ],
      "name": "changeMintingLimit",
      "outputs": [],
      "stateMutability": "nonpayable",
      "type": "function"
    },
    {
      "inputs": [
        {
          "internalType": "address",
          "name": "newAdmin",
          "type": "address"
        }
      ],
      "name": "changeTicketPlatformAdmin",
      "outputs": [],
      "stateMutability": "nonpayable",
      "type": "function"
    },
    {
      "inputs": [
        {
          "internalType": "uint256",
          "name": "tokenTypeId",
          "type": "uint256"
        },
        {
          "internalType": "uint256",
          "name": "price",
          "type": "uint256"
        }
      ],
      "name": "changeTicketPrice",
      "outputs": [],
      "stateMutability": "nonpayable",
      "type": "function"
    },
    {
      "inputs": [
        {
          "internalType": "uint256[]",
          "name": "amount",
          "type": "uint256[]"
        }
      ],
      "name": "checkMaxSupplyPerTicketType",
      "outputs": [
        {
          "internalType": "bool",
          "name": "",
          "type": "bool"
        }
      ],
      "stateMutability": "view",
      "type": "function"
    },
    {
      "inputs": [
        {
          "internalType": "uint256",
          "name": "tokenId",
          "type": "uint256"
        }
      ],
      "name": "getApproved",
      "outputs": [
        {
          "internalType": "address",
          "name": "",
          "type": "address"
        }
      ],
      "stateMutability": "view",
      "type": "function"
    },
    {
      "inputs": [
        {
          "internalType": "uint256",
          "name": "ticketTypeId",
          "type": "uint256"
        }
      ],
      "name": "getNextTicketId",
      "outputs": [
        {
          "internalType": "uint256",
          "name": "",
          "type": "uint256"
        }
      ],
      "stateMutability": "view",
      "type": "function"
    },
    {
      "inputs": [],
      "name": "getPhase",
      "outputs": [
        {
          "internalType": "enum NFTix721.Phase",
          "name": "",
          "type": "uint8"
        }
      ],
      "stateMutability": "view",
      "type": "function"
    },
    {
      "inputs": [
        {
          "internalType": "uint256",
          "name": "tokenId",
          "type": "uint256"
        }
      ],
      "name": "getTicket",
      "outputs": [
        {
          "components": [
            {
              "internalType": "uint256",
              "name": "ticketType",
              "type": "uint256"
            },
            {
              "internalType": "uint256",
              "name": "tokenId",
              "type": "uint256"
            }
          ],
          "internalType": "struct NFTix721.Ticket",
          "name": "",
          "type": "tuple"
        }
      ],
      "stateMutability": "view",
      "type": "function"
    },
    {
      "inputs": [
        {
          "internalType": "uint256",
          "name": "ticketTypeId",
          "type": "uint256"
        }
      ],
      "name": "getTicketPrice",
      "outputs": [
        {
          "internalType": "uint256",
          "name": "",
          "type": "uint256"
        }
      ],
      "stateMutability": "view",
      "type": "function"
    },
    {
      "inputs": [
        {
          "internalType": "string",
          "name": "name_",
          "type": "string"
        },
        {
          "internalType": "string",
          "name": "symbol_",
          "type": "string"
        },
        {
          "internalType": "string",
          "name": "uri_",
          "type": "string"
        },
        {
          "internalType": "uint256[]",
          "name": "ticketPrices_",
          "type": "uint256[]"
        },
        {
          "internalType": "uint256[]",
          "name": "ticketRanges_",
          "type": "uint256[]"
        },
        {
          "internalType": "address[]",
          "name": "payees_",
          "type": "address[]"
        },
        {
          "internalType": "uint256[]",
          "name": "shares_",
          "type": "uint256[]"
        },
        {
          "internalType": "address",
          "name": "defaultPlatformAdmin",
          "type": "address"
        },
        {
          "internalType": "uint32",
          "name": "mintingLimit_",
          "type": "uint32"
        },
        {
          "internalType": "bytes32",
          "name": "root_",
          "type": "bytes32"
        }
      ],
      "name": "initialize",
      "outputs": [],
      "stateMutability": "nonpayable",
      "type": "function"
    },
    {
      "inputs": [
        {
          "internalType": "address",
          "name": "owner",
          "type": "address"
        },
        {
          "internalType": "address",
          "name": "operator",
          "type": "address"
        }
      ],
      "name": "isApprovedForAll",
      "outputs": [
        {
          "internalType": "bool",
          "name": "",
          "type": "bool"
        }
      ],
      "stateMutability": "view",
      "type": "function"
    },
    {
      "inputs": [],
      "name": "isBase",
      "outputs": [
        {
          "internalType": "bool",
          "name": "",
          "type": "bool"
        }
      ],
      "stateMutability": "view",
      "type": "function"
    },
    {
      "inputs": [],
      "name": "maxId",
      "outputs": [
        {
          "internalType": "uint256",
          "name": "",
          "type": "uint256"
        }
      ],
      "stateMutability": "view",
      "type": "function"
    },
    {
      "inputs": [
        {
          "internalType": "address",
          "name": "to",
          "type": "address"
        },
        {
          "internalType": "bytes32[]",
          "name": "_proof",
          "type": "bytes32[]"
        },
        {
          "internalType": "uint256[]",
          "name": "ticketTypeCounts",
          "type": "uint256[]"
        }
      ],
      "name": "mint",
      "outputs": [],
      "stateMutability": "payable",
      "type": "function"
    },
    {
      "inputs": [],
      "name": "mintingLimit",
      "outputs": [
        {
          "internalType": "uint32",
          "name": "",
          "type": "uint32"
        }
      ],
      "stateMutability": "view",
      "type": "function"
    },
    {
      "inputs": [
        {
          "internalType": "address",
          "name": "",
          "type": "address"
        }
      ],
      "name": "mintsPerUser",
      "outputs": [
        {
          "internalType": "uint256",
          "name": "",
          "type": "uint256"
        }
      ],
      "stateMutability": "view",
      "type": "function"
    },
    {
      "inputs": [
        {
          "internalType": "uint256",
          "name": "",
          "type": "uint256"
        },
        {
          "internalType": "address",
          "name": "",
          "type": "address"
        }
      ],
      "name": "mintsPerUserPerType",
      "outputs": [
        {
          "internalType": "uint256",
          "name": "",
          "type": "uint256"
        }
      ],
      "stateMutability": "view",
      "type": "function"
    },
    {
      "inputs": [],
      "name": "name",
      "outputs": [
        {
          "internalType": "string",
          "name": "",
          "type": "string"
        }
      ],
      "stateMutability": "view",
      "type": "function"
    },
    {
      "inputs": [],
      "name": "owner",
      "outputs": [
        {
          "internalType": "address",
          "name": "",
          "type": "address"
        }
      ],
      "stateMutability": "view",
      "type": "function"
    },
    {
      "inputs": [
        {
          "internalType": "uint256",
          "name": "tokenId",
          "type": "uint256"
        }
      ],
      "name": "ownerOf",
      "outputs": [
        {
          "internalType": "address",
          "name": "",
          "type": "address"
        }
      ],
      "stateMutability": "view",
      "type": "function"
    },
    {
      "inputs": [],
      "name": "pause",
      "outputs": [],
      "stateMutability": "nonpayable",
      "type": "function"
    },
    {
      "inputs": [],
      "name": "paused",
      "outputs": [
        {
          "internalType": "bool",
          "name": "",
          "type": "bool"
        }
      ],
      "stateMutability": "view",
      "type": "function"
    },
    {
      "inputs": [
        {
          "internalType": "uint256",
          "name": "index",
          "type": "uint256"
        }
      ],
      "name": "payee",
      "outputs": [
        {
          "internalType": "address",
          "name": "",
          "type": "address"
        }
      ],
      "stateMutability": "view",
      "type": "function"
    },
    {
      "inputs": [
        {
          "internalType": "bool",
          "name": "activate",
          "type": "bool"
        }
      ],
      "name": "paymentStatus",
      "outputs": [],
      "stateMutability": "nonpayable",
      "type": "function"
    },
    {
      "inputs": [
        {
          "internalType": "address",
          "name": "account",
          "type": "address"
        }
      ],
      "name": "releasable",
      "outputs": [
        {
          "internalType": "uint256",
          "name": "",
          "type": "uint256"
        }
      ],
      "stateMutability": "view",
      "type": "function"
    },
    {
      "inputs": [
        {
          "internalType": "contract IERC20Upgradeable",
          "name": "token",
          "type": "address"
        },
        {
          "internalType": "address",
          "name": "account",
          "type": "address"
        }
      ],
      "name": "releasable",
      "outputs": [
        {
          "internalType": "uint256",
          "name": "",
          "type": "uint256"
        }
      ],
      "stateMutability": "view",
      "type": "function"
    },
    {
      "inputs": [
        {
          "internalType": "address payable",
          "name": "account",
          "type": "address"
        }
      ],
      "name": "release",
      "outputs": [],
      "stateMutability": "nonpayable",
      "type": "function"
    },
    {
      "inputs": [
        {
          "internalType": "contract IERC20Upgradeable",
          "name": "token",
          "type": "address"
        },
        {
          "internalType": "address",
          "name": "account",
          "type": "address"
        }
      ],
      "name": "release",
      "outputs": [],
      "stateMutability": "nonpayable",
      "type": "function"
    },
    {
      "inputs": [
        {
          "internalType": "contract IERC20Upgradeable",
          "name": "token",
          "type": "address"
        },
        {
          "internalType": "address",
          "name": "account",
          "type": "address"
        }
      ],
      "name": "released",
      "outputs": [
        {
          "internalType": "uint256",
          "name": "",
          "type": "uint256"
        }
      ],
      "stateMutability": "view",
      "type": "function"
    },
    {
      "inputs": [
        {
          "internalType": "address",
          "name": "account",
          "type": "address"
        }
      ],
      "name": "released",
      "outputs": [
        {
          "internalType": "uint256",
          "name": "",
          "type": "uint256"
        }
      ],
      "stateMutability": "view",
      "type": "function"
    },
    {
      "inputs": [],
      "name": "renounceOwnership",
      "outputs": [],
      "stateMutability": "nonpayable",
      "type": "function"
    },
    {
      "inputs": [
        {
          "internalType": "address",
          "name": "from",
          "type": "address"
        },
        {
          "internalType": "address",
          "name": "to",
          "type": "address"
        },
        {
          "internalType": "uint256",
          "name": "tokenId",
          "type": "uint256"
        }
      ],
      "name": "safeTransferFrom",
      "outputs": [],
      "stateMutability": "nonpayable",
      "type": "function"
    },
    {
      "inputs": [
        {
          "internalType": "address",
          "name": "from",
          "type": "address"
        },
        {
          "internalType": "address",
          "name": "to",
          "type": "address"
        },
        {
          "internalType": "uint256",
          "name": "tokenId",
          "type": "uint256"
        },
        {
          "internalType": "bytes",
          "name": "data",
          "type": "bytes"
        }
      ],
      "name": "safeTransferFrom",
      "outputs": [],
      "stateMutability": "nonpayable",
      "type": "function"
    },
    {
      "inputs": [
        {
          "internalType": "address",
          "name": "operator",
          "type": "address"
        },
        {
          "internalType": "bool",
          "name": "approved",
          "type": "bool"
        }
      ],
      "name": "setApprovalForAll",
      "outputs": [],
      "stateMutability": "nonpayable",
      "type": "function"
    },
    {
      "inputs": [
        {
          "internalType": "enum NFTix721.Phase",
          "name": "phase",
          "type": "uint8"
        },
        {
          "internalType": "uint256[]",
          "name": "mintCost",
          "type": "uint256[]"
        },
        {
          "internalType": "uint32",
          "name": "mintingLimit_",
          "type": "uint32"
        }
      ],
      "name": "setPhase",
      "outputs": [],
      "stateMutability": "nonpayable",
      "type": "function"
    },
    {
      "inputs": [
        {
          "internalType": "address",
          "name": "account",
          "type": "address"
        }
      ],
      "name": "shares",
      "outputs": [
        {
          "internalType": "uint256",
          "name": "",
          "type": "uint256"
        }
      ],
      "stateMutability": "view",
      "type": "function"
    },
    {
      "inputs": [
        {
          "internalType": "bytes4",
          "name": "interfaceId",
          "type": "bytes4"
        }
      ],
      "name": "supportsInterface",
      "outputs": [
        {
          "internalType": "bool",
          "name": "",
          "type": "bool"
        }
      ],
      "stateMutability": "view",
      "type": "function"
    },
    {
      "inputs": [],
      "name": "symbol",
      "outputs": [
        {
          "internalType": "string",
          "name": "",
          "type": "string"
        }
      ],
      "stateMutability": "view",
      "type": "function"
    },
    {
      "inputs": [],
      "name": "ticketPlatformAdmin",
      "outputs": [
        {
          "internalType": "address",
          "name": "",
          "type": "address"
        }
      ],
      "stateMutability": "view",
      "type": "function"
    },
    {
      "inputs": [
        {
          "internalType": "uint256",
          "name": "",
          "type": "uint256"
        }
      ],
      "name": "ticketTypes",
      "outputs": [
        {
          "internalType": "uint256",
          "name": "ticketCount",
          "type": "uint256"
        },
        {
          "internalType": "uint256",
          "name": "startTokenId",
          "type": "uint256"
        },
        {
          "internalType": "uint256",
          "name": "endTokenId",
          "type": "uint256"
        },
        {
          "internalType": "uint256",
          "name": "price",
          "type": "uint256"
        },
        {
          "internalType": "uint256",
          "name": "currentTokenId",
          "type": "uint256"
        }
      ],
      "stateMutability": "view",
      "type": "function"
    },
    {
      "inputs": [
        {
          "internalType": "uint256",
          "name": "",
          "type": "uint256"
        }
      ],
      "name": "tokenPrices",
      "outputs": [
        {
          "internalType": "uint256",
          "name": "",
          "type": "uint256"
        }
      ],
      "stateMutability": "view",
      "type": "function"
    },
    {
      "inputs": [
        {
          "internalType": "uint256",
          "name": "",
          "type": "uint256"
        }
      ],
      "name": "tokenRanges",
      "outputs": [
        {
          "internalType": "uint256",
          "name": "",
          "type": "uint256"
        }
      ],
      "stateMutability": "view",
      "type": "function"
    },
    {
      "inputs": [
        {
          "internalType": "uint256",
          "name": "tokenId",
          "type": "uint256"
        }
      ],
      "name": "tokenURI",
      "outputs": [
        {
          "internalType": "string",
          "name": "",
          "type": "string"
        }
      ],
      "stateMutability": "view",
      "type": "function"
    },
    {
      "inputs": [
        {
          "internalType": "contract IERC20Upgradeable",
          "name": "token",
          "type": "address"
        }
      ],
      "name": "totalReleased",
      "outputs": [
        {
          "internalType": "uint256",
          "name": "",
          "type": "uint256"
        }
      ],
      "stateMutability": "view",
      "type": "function"
    },
    {
      "inputs": [],
      "name": "totalReleased",
      "outputs": [
        {
          "internalType": "uint256",
          "name": "",
          "type": "uint256"
        }
      ],
      "stateMutability": "view",
      "type": "function"
    },
    {
      "inputs": [],
      "name": "totalShares",
      "outputs": [
        {
          "internalType": "uint256",
          "name": "",
          "type": "uint256"
        }
      ],
      "stateMutability": "view",
      "type": "function"
    },
    {
      "inputs": [],
      "name": "totalSupply",
      "outputs": [
        {
          "internalType": "uint64",
          "name": "",
          "type": "uint64"
        }
      ],
      "stateMutability": "view",
      "type": "function"
    },
    {
      "inputs": [
        {
          "internalType": "address",
          "name": "from",
          "type": "address"
        },
        {
          "internalType": "address",
          "name": "to",
          "type": "address"
        },
        {
          "internalType": "uint256",
          "name": "tokenId",
          "type": "uint256"
        }
      ],
      "name": "transferFrom",
      "outputs": [],
      "stateMutability": "nonpayable",
      "type": "function"
    },
    {
      "inputs": [
        {
          "internalType": "address",
          "name": "newOwner",
          "type": "address"
        }
      ],
      "name": "transferOwnership",
      "outputs": [],
      "stateMutability": "nonpayable",
      "type": "function"
    },
    {
      "inputs": [],
      "name": "unpause",
      "outputs": [],
      "stateMutability": "nonpayable",
      "type": "function"
    },
    {
      "stateMutability": "payable",
      "type": "receive"
    }
  ],
  "bytecode": "0x6080604052610131805461ffff19166101001790556101358054610100600160481b03191690553480156200003357600080fd5b50604051620055b7380380620055b783398101604081905262000056916200006e565b610135805460ff191691151591909117905562000099565b6000602082840312156200008157600080fd5b815180151581146200009257600080fd5b9392505050565b61550e80620000a96000396000f3fe60806040526004361061037a5760003560e01c80638a6a211e116101d1578063c5ea3c6511610102578063e8a0caa6116100a0578063ebcea3db1161006f578063ebcea3db14610b9b578063eced028014610bbb578063f06fc96114610bdc578063f2fde38b14610bfc576103b1565b8063e8a0caa614610ab1578063e919d58614610ad1578063e985e9c514610b0a578063e9dbebce14610b53576103b1565b8063d59d64de116100dc578063d59d64de14610a25578063d79779b214610a45578063e33b7de314610a7c578063e5afe3e614610a91576103b1565b8063c5ea3c65146109b8578063c87b56dd146109cf578063ce7c2ac2146109ef576103b1565b8063a22cb4651161016f578063abff939311610149578063abff93931461092a578063b88d4fde14610958578063befdea5714610978578063c45ac05014610998576103b1565b8063a22cb465146108d7578063a3f8eace146108f7578063a8985e2514610917576103b1565b80638da5cb5b116101ab5780638da5cb5b1461084e57806395d89b411461086c57806395f6beb1146108815780639852595c146108a1576103b1565b80638a6a211e146107ee5780638b83209b1461080e5780638d61806b1461082e576103b1565b806342966c68116102ab57806370a08231116102495780637341021e116102235780637341021e146107635780637dc379fa146107835780637f80069a146107be5780638456cb59146107d9576103b1565b806370a082311461070e578063715018a61461072e5780637248085914610743576103b1565b806349072f121161028557806349072f121461067d57806357d055ed146106b65780635c975abb146106d65780636352211e146106ee576103b1565b806342966c681461061d57806345ece7d91461063d57806348b750441461065d576103b1565b80631de3da0a116103185780633a98ef39116102f25780633a98ef39146105825780633f4ba83a146105a1578063406072a9146105b657806342842e0e146105fd576103b1565b80631de3da0a1461052257806323b872dd1461054257806339a0c6f914610562576103b1565b8063095ea7b311610354578063095ea7b314610472578063172ad5191461049457806318160ddd146104c25780631916558714610502576103b1565b806301ffc9a7146103e357806306fdde0314610418578063081812fc1461043a576103b1565b366103b1576040517f687b764e00000000000000000000000000000000000000000000000000000000815260040160405180910390fd5b6040517f687b764e00000000000000000000000000000000000000000000000000000000815260040160405180910390fd5b3480156103ef57600080fd5b506104036103fe3660046148c2565b610c1c565b60405190151581526020015b60405180910390f35b34801561042457600080fd5b5061042d610d01565b60405161040f919061492f565b34801561044657600080fd5b5061045a610455366004614942565b610d93565b6040516001600160a01b03909116815260200161040f565b34801561047e57600080fd5b5061049261048d366004614980565b610dba565b005b3480156104a057600080fd5b506101355461045a90690100000000000000000090046001600160a01b031681565b3480156104ce57600080fd5b50610135546104e990610100900467ffffffffffffffff1681565b60405167ffffffffffffffff909116815260200161040f565b34801561050e57600080fd5b5061049261051d3660046149ac565b610ef0565b34801561052e57600080fd5b5061049261053d3660046149ac565b610f39565b34801561054e57600080fd5b5061049261055d3660046149c9565b61103f565b34801561056e57600080fd5b5061049261057d366004614ac9565b6110c6565b34801561058e57600080fd5b5060fb545b60405190815260200161040f565b3480156105ad57600080fd5b50610492611166565b3480156105c257600080fd5b506105936105d1366004614afe565b6001600160a01b0391821660009081526101016020908152604080832093909416825291909152205490565b34801561060957600080fd5b506104926106183660046149c9565b611178565b34801561062957600080fd5b50610492610638366004614942565b611193565b34801561064957600080fd5b50610403610658366004614bc6565b611268565b34801561066957600080fd5b50610492610678366004614afe565b611338565b34801561068957600080fd5b50610131546106a19062010000900463ffffffff1681565b60405163ffffffff909116815260200161040f565b3480156106c257600080fd5b506104926106d1366004614c73565b6114f7565b3480156106e257600080fd5b5060975460ff16610403565b3480156106fa57600080fd5b5061045a610709366004614942565b6119b7565b34801561071a57600080fd5b506105936107293660046149ac565b611a1c565b34801561073a57600080fd5b50610492611ab6565b34801561074f57600080fd5b5061049261075e366004614dbb565b611ac8565b34801561076f57600080fd5b5061049261077e366004614dd6565b611b8c565b34801561078f57600080fd5b506107a361079e366004614942565b611e82565b6040805182518152602092830151928101929092520161040f565b3480156107ca57600080fd5b50610135546104039060ff1681565b3480156107e557600080fd5b50610492611f18565b3480156107fa57600080fd5b50610492610809366004614e3a565b611f28565b34801561081a57600080fd5b5061045a610829366004614942565b6120f4565b34801561083a57600080fd5b50610492610849366004614e9e565b612124565b34801561085a57600080fd5b5060c9546001600160a01b031661045a565b34801561087857600080fd5b5061042d612352565b34801561088d57600080fd5b5061049261089c366004614ee4565b612361565b3480156108ad57600080fd5b506105936108bc3660046149ac565b6001600160a01b0316600090815260fe602052604090205490565b3480156108e357600080fd5b506104926108f2366004614f14565b6123f5565b34801561090357600080fd5b506105936109123660046149ac565b612400565b610492610925366004614f42565b612448565b34801561093657600080fd5b506105936109453660046149ac565b6101376020526000908152604090205481565b34801561096457600080fd5b5061049261097336600461500f565b61284b565b34801561098457600080fd5b50610593610993366004614942565b6128d9565b3480156109a457600080fd5b506105936109b3366004614afe565b61292c565b3480156109c457600080fd5b506105936101345481565b3480156109db57600080fd5b5061042d6109ea366004614942565b612a12565b3480156109fb57600080fd5b50610593610a0a3660046149ac565b6001600160a01b0316600090815260fd602052604090205490565b348015610a3157600080fd5b50610492610a4036600461508f565b612a78565b348015610a5157600080fd5b50610593610a603660046149ac565b6001600160a01b03166000908152610100602052604090205490565b348015610a8857600080fd5b5060fc54610593565b348015610a9d57600080fd5b50610593610aac366004614942565b612af4565b348015610abd57600080fd5b50610593610acc366004614942565b612b16565b348015610add57600080fd5b50610593610aec3660046150ac565b61013660209081526000928352604080842090915290825290205481565b348015610b1657600080fd5b50610403610b25366004614afe565b6001600160a01b039182166000908152606a6020908152604080832093909416825291909152205460ff1690565b348015610b5f57600080fd5b50610b73610b6e366004614942565b612b27565b604080519586526020860194909452928401919091526060830152608082015260a00161040f565b348015610ba757600080fd5b50610492610bb6366004614942565b612b69565b348015610bc757600080fd5b5061012d5460ff1660405161040f9190615109565b348015610be857600080fd5b50610593610bf7366004614942565b612bb3565b348015610c0857600080fd5b50610492610c173660046149ac565b612c06565b60007fffffffff0000000000000000000000000000000000000000000000000000000082167f80ac58cd000000000000000000000000000000000000000000000000000000001480610caf57507fffffffff0000000000000000000000000000000000000000000000000000000082167f5b5e139f00000000000000000000000000000000000000000000000000000000145b80610cfb57507f01ffc9a7000000000000000000000000000000000000000000000000000000007fffffffff000000000000000000000000000000000000000000000000000000008316145b92915050565b606060658054610d1090615117565b80601f0160208091040260200160405190810160405280929190818152602001828054610d3c90615117565b8015610d895780601f10610d5e57610100808354040283529160200191610d89565b820191906000526020600020905b815481529060010190602001808311610d6c57829003601f168201915b5050505050905090565b6000610d9e82612c93565b506000908152606960205260409020546001600160a01b031690565b6000610dc5826119b7565b9050806001600160a01b0316836001600160a01b031603610e535760405162461bcd60e51b815260206004820152602160248201527f4552433732313a20617070726f76616c20746f2063757272656e74206f776e6560448201527f720000000000000000000000000000000000000000000000000000000000000060648201526084015b60405180910390fd5b336001600160a01b0382161480610e6f5750610e6f8133610b25565b610ee15760405162461bcd60e51b815260206004820152603d60248201527f4552433732313a20617070726f76652063616c6c6572206973206e6f7420746f60448201527f6b656e206f776e6572206f7220617070726f76656420666f7220616c6c0000006064820152608401610e4a565b610eeb8383612cf7565b505050565b6101315460ff16610f2d576040517f74de3ef100000000000000000000000000000000000000000000000000000000815260040160405180910390fd5b610f3681612d72565b50565b61013554690100000000000000000090046001600160a01b03163314610fa15760405162461bcd60e51b815260206004820152601760248201527f43616c6c6572206973206e6f74207468652061646d696e0000000000000000006044820152606401610e4a565b610135546001600160a01b036901000000000000000000909104811690821603610ff7576040517f1757e84700000000000000000000000000000000000000000000000000000000815260040160405180910390fd5b61013580546001600160a01b039092166901000000000000000000027fffffff0000000000000000000000000000000000000000ffffffffffffffffff909216919091179055565b6110493382612f06565b6110bb5760405162461bcd60e51b815260206004820152602d60248201527f4552433732313a2063616c6c6572206973206e6f7420746f6b656e206f776e6560448201527f72206f7220617070726f766564000000000000000000000000000000000000006064820152608401610e4a565b610eeb838383612f84565b6110ce6131c7565b806040516020016110df9190615151565b6040516020818303038152906040528051906020012061012e604051602001611108919061516d565b6040516020818303038152906040528051906020012003611155576040517fcc52148300000000000000000000000000000000000000000000000000000000815260040160405180910390fd5b61012e6111628282615231565b5050565b61116e6131c7565b611176613221565b565b610eeb8383836040518060200160405280600081525061284b565b336111b15760405163e6c4247b60e01b815260040160405180910390fd5b6000818152606760205260409020546001600160a01b03166111ff576040517fceea21b600000000000000000000000000000000000000000000000000000000815260040160405180910390fd5b33611209826119b7565b6001600160a01b03161461125f5760405162461bcd60e51b815260206004820181905260248201527f4e465469783a20596f7520646f206e6f74206f776e207468697320746f6b656e6044820152606401610e4a565b610f3681613273565b6000805b825181101561132f576101398181548110611289576112896152f1565b90600052602060002090600502016004015461013982815481106112af576112af6152f1565b9060005260206000209060050201600201546112cb919061531d565b8382815181106112dd576112dd6152f1565b6020026020010151111561131d576040517f836b723900000000000000000000000000000000000000000000000000000000815260040160405180910390fd5b8061132781615330565b91505061126c565b50600192915050565b6001600160a01b038116600090815260fd60205260409020546113c35760405162461bcd60e51b815260206004820152602660248201527f5061796d656e7453706c69747465723a206163636f756e7420686173206e6f2060448201527f73686172657300000000000000000000000000000000000000000000000000006064820152608401610e4a565b60006113cf838361292c565b9050806000036114475760405162461bcd60e51b815260206004820152602b60248201527f5061796d656e7453706c69747465723a206163636f756e74206973206e6f742060448201527f647565207061796d656e740000000000000000000000000000000000000000006064820152608401610e4a565b6001600160a01b038316600090815261010060205260408120805483929061147090849061534a565b90915550506001600160a01b038084166000908152610101602090815260408083209386168352929052208054820190556114ac838383613323565b604080516001600160a01b038481168252602082018490528516917f3be5b7a71e84ed12875d241991c70855ac5817d847039e17a9d895c1ceb0f18a910160405180910390a2505050565b600054610100900460ff16158080156115175750600054600160ff909116105b806115315750303b158015611531575060005460ff166001145b6115a35760405162461bcd60e51b815260206004820152602e60248201527f496e697469616c697a61626c653a20636f6e747261637420697320616c72656160448201527f647920696e697469616c697a65640000000000000000000000000000000000006064820152608401610e4a565b6000805460ff1916600117905580156115c6576000805461ff0019166101001790555b6101355460ff161515600103611608576040517fce56303600000000000000000000000000000000000000000000000000000000815260040160405180910390fd5b6001600160a01b038416611648576040517fd92e233d00000000000000000000000000000000000000000000000000000000815260040160405180910390fd5b8660018851611657919061531d565b81518110611667576116676152f1565b60200260200101518363ffffffff16101580611681575060005b156116b8576040517faadf021200000000000000000000000000000000000000000000000000000000815260040160405180910390fd5b61013580547fffffff0000000000000000000000000000000000000000ffffffffffffffffff1669010000000000000000006001600160a01b038716021790556117006133a3565b61170a8b8b613416565b611714868661348b565b865188511461174f576040517f141928d800000000000000000000000000000000000000000000000000000000815260040160405180910390fd5b61010087511061177257604051638a3dabaf60e01b815260040160405180910390fd5b610100885110611795576040516390ef7a8560e01b815260040160405180910390fd5b60008060005b8a518110156118eb5760008a82815181106117b8576117b86152f1565b60200260200101519050600081116117fc576040517f694fce2a00000000000000000000000000000000000000000000000000000000815260040160405180910390fd5b61180783600161534a565b935080925060008c8381518110611820576118206152f1565b60200260200101519050600081101561184c576040516390ef7a8560e01b815260040160405180910390fd5b6101396040518060a001604052808787611866919061531d565b61187190600161534a565b81526020808201899052604080830189905260608084019690965260809283018a9052845460018181018755600096875295839020855160059092020190815591840151948201949094559282015160028401559281015160038301559091015160049091015550806118e381615330565b91505061179b565b508951611900906101329060208d0190614834565b508851611915906101339060208c0190614834565b5061012f84905563ffffffff851660000361193757610131805461ff00191690555b610131805465ffffffff000019166201000063ffffffff88160217905561012e6119618c82615231565b50505080156119aa576000805461ff0019169055604051600181527f7f26b83ff96e1f2b6a682f133852f6798a09c465da95921460cefb38474024989060200160405180910390a15b5050505050505050505050565b6000818152606760205260408120546001600160a01b031680610cfb5760405162461bcd60e51b815260206004820152601860248201527f4552433732313a20696e76616c696420746f6b656e20494400000000000000006044820152606401610e4a565b60006001600160a01b038216611a9a5760405162461bcd60e51b815260206004820152602960248201527f4552433732313a2061646472657373207a65726f206973206e6f74206120766160448201527f6c6964206f776e657200000000000000000000000000000000000000000000006064820152608401610e4a565b506001600160a01b031660009081526068602052604090205490565b611abe6131c7565b6111766000613500565b611ad06131c7565b6101398054611ae19060019061531d565b81548110611af157611af16152f1565b9060005260206000209060050201600201548163ffffffff16101580611b15575060005b15611b4c576040517faadf021200000000000000000000000000000000000000000000000000000000815260040160405180910390fd5b8063ffffffff16600003611b6757610131805461ff00191690555b610131805463ffffffff909216620100000265ffffffff000019909216919091179055565b611b946131c7565b8151815114611bcf576040517f141928d800000000000000000000000000000000000000000000000000000000815260040160405180910390fd5b610100825110611bf257604051638a3dabaf60e01b815260040160405180910390fd5b610100815110611c15576040516390ef7a8560e01b815260040160405180910390fd5b6101398054611c269060019061531d565b81548110611c3657611c366152f1565b90600052602060002090600502016002015482600081518110611c5b57611c5b6152f1565b60200260200101511015611c8257604051638a3dabaf60e01b815260040160405180910390fd5b60008060005b8351811015611e7b576000858281518110611ca557611ca56152f1565b6020026020010151905060008111611ce9576040517f694fce2a00000000000000000000000000000000000000000000000000000000815260040160405180910390fd5b6101398054611cfa9060019061531d565b81548110611d0a57611d0a6152f1565b9060005260206000209060050201600201546001611d28919061534a565b93508092506000858381518110611d4157611d416152f1565b602002602001015190506000811015611d6d576040516390ef7a8560e01b815260040160405180910390fd5b6040805160a081018252928352602083018681529083018581526060840192835260808401878152610139805460018101825560009190915294517f22d66071756d4d57920b8322c1a903a27bd75b44065e925d5f9f1c08908d28f660059096029586015591517f22d66071756d4d57920b8322c1a903a27bd75b44065e925d5f9f1c08908d28f7850155517f22d66071756d4d57920b8322c1a903a27bd75b44065e925d5f9f1c08908d28f884015590517f22d66071756d4d57920b8322c1a903a27bd75b44065e925d5f9f1c08908d28f9830155517f22d66071756d4d57920b8322c1a903a27bd75b44065e925d5f9f1c08908d28fa9091015580611e7381615330565b915050611c88565b5050505050565b6040805180820190915260008082526020820152611eb7826000908152606760205260409020546001600160a01b0316151590565b611eed576040517fceea21b600000000000000000000000000000000000000000000000000000000815260040160405180910390fd5b5060009081526101386020908152604091829020825180840190935280548352600101549082015290565b611f206131c7565b61117661355f565b611f306131c7565b826001811115611f4257611f426150d1565b61012d5460ff166001811115611f5a57611f5a6150d1565b03611f91576040517f9a36fd9c00000000000000000000000000000000000000000000000000000000815260040160405180910390fd5b60005b8251811015612045576000838281518110611fb157611fb16152f1565b60200260200101511015611ff1576040517f7618986200000000000000000000000000000000000000000000000000000000815260040160405180910390fd5b828181518110612003576120036152f1565b6020026020010151610139828154811061201f5761201f6152f1565b60009182526020909120600360059092020101558061203d81615330565b915050611f94565b5061012d805484919060ff191660018381811115612065576120656150d1565b02179055508063ffffffff1660000361208557610131805461ff00191690555b610131805465ffffffff000019166201000063ffffffff8481168202929092179283905561012d546040517fcd97b64e2b2306377369b88034854a2253c3748c473d51b1ca02d4a211287b28946120e79460ff90931693889391041690615398565b60405180910390a1505050565b600060ff8281548110612109576121096152f1565b6000918252602090912001546001600160a01b031692915050565b61212c61359c565b6121346131c7565b6001600160a01b03821661215b5760405163e6c4247b60e01b815260040160405180910390fd5b61013954815114612198576040517fc7a3705300000000000000000000000000000000000000000000000000000000815260040160405180910390fd5b6121a181611268565b5060005b815181101561230c5760008282815181106121c2576121c26152f1565b6020026020010151905060005b818110156122565760008161013985815481106121ee576121ee6152f1565b90600052602060002090600502016004015461220a919061534a565b905061221686826135ef565b604080518082018252858152602080820184815260009485526101389091529190922091518255516001909101558061224e81615330565b9150506121cf565b5080610139838154811061226c5761226c6152f1565b9060005260206000209060050201600401600082825461228c919061534a565b90915550506001600160a01b03841660009081526101376020526040812080548392906122ba90849061534a565b90915550506000828152610136602090815260408083206001600160a01b0388168452909152812080548392906122f290849061534a565b90915550829150612304905081615330565b9150506121a5565b50816001600160a01b03167f4909e8e1ac9f72151c4a917126c23646c2a6c0075810564589c3506b5441d68b8260405161234691906153ce565b60405180910390a25050565b606060668054610d1090615117565b6123696131c7565b610139548211156123a6576040517fd8a7da6b00000000000000000000000000000000000000000000000000000000815260040160405180910390fd5b8061013983815481106123bb576123bb6152f1565b9060005260206000209060050201600301819055508061013283815481106123e5576123e56152f1565b6000918252602090912001555050565b611162338383613609565b60008061240c60fc5490565b612416904761534a565b9050612441838261243c866001600160a01b0316600090815260fe602052604090205490565b6136d7565b9392505050565b61245061359c565b346001600160a01b0384166124785760405163e6c4247b60e01b815260040160405180910390fd5b610139548251146124b5576040517fc7a3705300000000000000000000000000000000000000000000000000000000815260040160405180910390fd5b600061012d5460ff1660018111156124cf576124cf6150d1565b036124df576124dd83613715565b505b60008060005b84518110156125f8576000858281518110612502576125026152f1565b602002602001015190506101398281548110612520576125206152f1565b9060005260206000209060050201600101546101398381548110612546576125466152f1565b906000526020600020906005020160020154612562919061531d565b81111561259b576040517f836b723900000000000000000000000000000000000000000000000000000000815260040160405180910390fd5b6125a5818561534a565b935061013982815481106125bb576125bb6152f1565b906000526020600020906005020160030154816125d891906153e1565b6125e2908461534a565b92505080806125f090615330565b9150506124e5565b50808314612632576040517f3acace0100000000000000000000000000000000000000000000000000000000815260040160405180910390fd5b61013154610100900460ff161561264f5761264d86836137ad565b505b61268d6040518060400160405280600681526020017f706173736564000000000000000000000000000000000000000000000000000081525061381d565b61269684611268565b5060005b84518110156128015760008582815181106126b7576126b76152f1565b6020026020010151905060005b8181101561274b5760008161013985815481106126e3576126e36152f1565b9060005260206000209060050201600401546126ff919061534a565b905061270b33826135ef565b604080518082018252858152602080820184815260009485526101389091529190922091518255516001909101558061274381615330565b9150506126c4565b50806101398381548110612761576127616152f1565b90600052602060002090600502016004016000828254612781919061534a565b90915550506001600160a01b03881660009081526101376020526040812080548392906127af90849061534a565b90915550506000828152610136602090815260408083206001600160a01b038c168452909152812080548392906127e790849061534a565b909155508291506127f9905081615330565b91505061269a565b50856001600160a01b03167f9a7aef3eb8aea02169cf5c8743490509b84b686b1c7606c8fe0deb265752f6e88560405161283b91906153ce565b60405180910390a2505050505050565b6128553383612f06565b6128c75760405162461bcd60e51b815260206004820152602d60248201527f4552433732313a2063616c6c6572206973206e6f7420746f6b656e206f776e6560448201527f72206f7220617070726f766564000000000000000000000000000000000000006064820152608401610e4a565b6128d38484848461388e565b50505050565b6101395460009082106128ff57604051638a3dabaf60e01b815260040160405180910390fd5b6101398281548110612913576129136152f1565b9060005260206000209060050201600401549050919050565b6001600160a01b0382166000908152610100602052604081205481906040517f70a082310000000000000000000000000000000000000000000000000000000081523060048201526001600160a01b038616906370a0823190602401602060405180830381865afa1580156129a5573d6000803e3d6000fd5b505050506040513d601f19601f820116820180604052508101906129c991906153f8565b6129d3919061534a565b6001600160a01b0380861660009081526101016020908152604080832093881683529290522054909150612a0a90849083906136d7565b949350505050565b6060612a1d82612c93565b6000612a27613917565b90506000815111612a475760405180602001604052806000815250612441565b80612a5184613927565b604051602001612a62929190615411565b6040516020818303038152906040529392505050565b61013554690100000000000000000090046001600160a01b03163314612ae05760405162461bcd60e51b815260206004820152601760248201527f43616c6c6572206973206e6f74207468652061646d696e0000000000000000006044820152606401610e4a565b610131805460ff1916911515919091179055565b6101328181548110612b0557600080fd5b600091825260209091200154905081565b6101338181548110612b0557600080fd5b6101398181548110612b3857600080fd5b6000918252602090912060059091020180546001820154600283015460038401546004909401549294509092909185565b612b716131c7565b61012f548103612bad576040517f9dd854d300000000000000000000000000000000000000000000000000000000815260040160405180910390fd5b61012f55565b610139546000908210612bd957604051638a3dabaf60e01b815260040160405180910390fd5b6101398281548110612bed57612bed6152f1565b9060005260206000209060050201600301549050919050565b612c0e6131c7565b6001600160a01b038116612c8a5760405162461bcd60e51b815260206004820152602660248201527f4f776e61626c653a206e6577206f776e657220697320746865207a65726f206160448201527f64647265737300000000000000000000000000000000000000000000000000006064820152608401610e4a565b610f3681613500565b6000818152606760205260409020546001600160a01b0316610f365760405162461bcd60e51b815260206004820152601860248201527f4552433732313a20696e76616c696420746f6b656e20494400000000000000006044820152606401610e4a565b6000818152606960205260409020805473ffffffffffffffffffffffffffffffffffffffff19166001600160a01b0384169081179091558190612d39826119b7565b6001600160a01b03167f8c5be1e5ebec7d5bd14f71427d1e84f3dd0314c0f7b2291e5b200ac8c7c3b92560405160405180910390a45050565b6001600160a01b038116600090815260fd6020526040902054612dfd5760405162461bcd60e51b815260206004820152602660248201527f5061796d656e7453706c69747465723a206163636f756e7420686173206e6f2060448201527f73686172657300000000000000000000000000000000000000000000000000006064820152608401610e4a565b6000612e0882612400565b905080600003612e805760405162461bcd60e51b815260206004820152602b60248201527f5061796d656e7453706c69747465723a206163636f756e74206973206e6f742060448201527f647565207061796d656e740000000000000000000000000000000000000000006064820152608401610e4a565b8060fc6000828254612e92919061534a565b90915550506001600160a01b038216600090815260fe60205260409020805482019055612ebf82826139c7565b604080516001600160a01b0384168152602081018390527fdf20fd1e76bc69d672e4814fafb2c449bba3a5369d8359adf9e05e6fde87b05691015b60405180910390a15050565b600080612f12836119b7565b9050806001600160a01b0316846001600160a01b03161480612f5957506001600160a01b038082166000908152606a602090815260408083209388168352929052205460ff165b80612a0a5750836001600160a01b0316612f7284610d93565b6001600160a01b031614949350505050565b826001600160a01b0316612f97826119b7565b6001600160a01b0316146130135760405162461bcd60e51b815260206004820152602560248201527f4552433732313a207472616e736665722066726f6d20696e636f72726563742060448201527f6f776e65720000000000000000000000000000000000000000000000000000006064820152608401610e4a565b6001600160a01b03821661308e5760405162461bcd60e51b8152602060048201526024808201527f4552433732313a207472616e7366657220746f20746865207a65726f2061646460448201527f72657373000000000000000000000000000000000000000000000000000000006064820152608401610e4a565b61309b8383836001613ae0565b826001600160a01b03166130ae826119b7565b6001600160a01b03161461312a5760405162461bcd60e51b815260206004820152602560248201527f4552433732313a207472616e736665722066726f6d20696e636f72726563742060448201527f6f776e65720000000000000000000000000000000000000000000000000000006064820152608401610e4a565b6000818152606960209081526040808320805473ffffffffffffffffffffffffffffffffffffffff199081169091556001600160a01b0387811680865260688552838620805460001901905590871680865283862080546001019055868652606790945282852080549092168417909155905184937fddf252ad1be2c89b69c2b068fc378daa952ba7f163c4a11628f55a4df523b3ef91a4505050565b60c9546001600160a01b031633146111765760405162461bcd60e51b815260206004820181905260248201527f4f776e61626c653a2063616c6c6572206973206e6f7420746865206f776e65726044820152606401610e4a565b613229613b68565b6097805460ff191690557f5db9ee0a495bf2e6ff9c91a7834c1ba4fdd244a5e8aa4e537bd38aeae4b073aa335b6040516001600160a01b03909116815260200160405180910390a1565b600061327e826119b7565b905061328e816000846001613ae0565b613297826119b7565b6000838152606960209081526040808320805473ffffffffffffffffffffffffffffffffffffffff199081169091556001600160a01b0385168085526068845282852080546000190190558785526067909352818420805490911690555192935084927fddf252ad1be2c89b69c2b068fc378daa952ba7f163c4a11628f55a4df523b3ef908390a45050565b604080516001600160a01b038416602482015260448082018490528251808303909101815260649091019091526020810180517bffffffffffffffffffffffffffffffffffffffffffffffffffffffff167fa9059cbb00000000000000000000000000000000000000000000000000000000179052610eeb908490613bba565b600054610100900460ff1661340e5760405162461bcd60e51b815260206004820152602b60248201527f496e697469616c697a61626c653a20636f6e7472616374206973206e6f74206960448201526a6e697469616c697a696e6760a81b6064820152608401610e4a565b611176613c9f565b600054610100900460ff166134815760405162461bcd60e51b815260206004820152602b60248201527f496e697469616c697a61626c653a20636f6e7472616374206973206e6f74206960448201526a6e697469616c697a696e6760a81b6064820152608401610e4a565b6111628282613d13565b600054610100900460ff166134f65760405162461bcd60e51b815260206004820152602b60248201527f496e697469616c697a61626c653a20636f6e7472616374206973206e6f74206960448201526a6e697469616c697a696e6760a81b6064820152608401610e4a565b6111628282613d97565b60c980546001600160a01b0383811673ffffffffffffffffffffffffffffffffffffffff19831681179093556040519116919082907f8be0079c531659141344cd1fd0a4f28419497f9722a3daafe3b4186f6b6457e090600090a35050565b61356761359c565b6097805460ff191660011790557f62e78cea01bee320cd4e420270b5ea74000d11b0c9f74754ebdbfc544b05a2586132563390565b60975460ff16156111765760405162461bcd60e51b815260206004820152601060248201527f5061757361626c653a20706175736564000000000000000000000000000000006044820152606401610e4a565b611162828260405180602001604052806000815250613f24565b816001600160a01b0316836001600160a01b03160361366a5760405162461bcd60e51b815260206004820152601960248201527f4552433732313a20617070726f766520746f2063616c6c6572000000000000006044820152606401610e4a565b6001600160a01b038381166000818152606a6020908152604080832094871680845294825291829020805460ff191686151590811790915591519182527f17307eab39ab6107e8899845ad3d59bd9653f200f220920489ca2b5937696c31910160405180910390a3505050565b60fb546001600160a01b038416600090815260fd60205260408120549091839161370190866153e1565b61370b9190615440565b612a0a919061531d565b61012f546040517fffffffffffffffffffffffffffffffffffffffff0000000000000000000000003360601b16602082015260009161376f9184919060340160405160208183030381529060405280519060200120613fad565b6137a5576040517f98b836cc00000000000000000000000000000000000000000000000000000000815260040160405180910390fd5b506001919050565b610131546001600160a01b03831660009081526101376020526040812054909162010000900463ffffffff16906137e590849061534a565b111561132f576040517f1ddd6c0b00000000000000000000000000000000000000000000000000000000815260040160405180910390fd5b610f3681604051602401613831919061492f565b60408051601f198184030181529190526020810180517bffffffffffffffffffffffffffffffffffffffffffffffffffffffff167f41304fac00000000000000000000000000000000000000000000000000000000179052613fc3565b613899848484612f84565b6138a584848484613fe4565b6128d35760405162461bcd60e51b815260206004820152603260248201527f4552433732313a207472616e7366657220746f206e6f6e20455243373231526560448201527f63656976657220696d706c656d656e74657200000000000000000000000000006064820152608401610e4a565b606061012e8054610d1090615117565b6060600061393483614185565b600101905060008167ffffffffffffffff81111561395457613954614a0a565b6040519080825280601f01601f19166020018201604052801561397e576020820181803683370190505b5090508181016020015b600019017f3031323334353637383961626364656600000000000000000000000000000000600a86061a8153600a850494508461398857509392505050565b80471015613a175760405162461bcd60e51b815260206004820152601d60248201527f416464726573733a20696e73756666696369656e742062616c616e63650000006044820152606401610e4a565b6000826001600160a01b03168260405160006040518083038185875af1925050503d8060008114613a64576040519150601f19603f3d011682016040523d82523d6000602084013e613a69565b606091505b5050905080610eeb5760405162461bcd60e51b815260206004820152603a60248201527f416464726573733a20756e61626c6520746f2073656e642076616c75652c207260448201527f6563697069656e74206d617920686176652072657665727465640000000000006064820152608401610e4a565b60018111156128d3576001600160a01b03841615613b26576001600160a01b03841660009081526068602052604081208054839290613b2090849061531d565b90915550505b6001600160a01b038316156128d3576001600160a01b03831660009081526068602052604081208054839290613b5d90849061534a565b909155505050505050565b60975460ff166111765760405162461bcd60e51b815260206004820152601460248201527f5061757361626c653a206e6f74207061757365640000000000000000000000006044820152606401610e4a565b6000613c0f826040518060400160405280602081526020017f5361666545524332303a206c6f772d6c6576656c2063616c6c206661696c6564815250856001600160a01b03166142679092919063ffffffff16565b805190915015610eeb5780806020019051810190613c2d9190615462565b610eeb5760405162461bcd60e51b815260206004820152602a60248201527f5361666545524332303a204552433230206f7065726174696f6e20646964206e60448201527f6f742073756363656564000000000000000000000000000000000000000000006064820152608401610e4a565b600054610100900460ff16613d0a5760405162461bcd60e51b815260206004820152602b60248201527f496e697469616c697a61626c653a20636f6e7472616374206973206e6f74206960448201526a6e697469616c697a696e6760a81b6064820152608401610e4a565b61117633613500565b600054610100900460ff16613d7e5760405162461bcd60e51b815260206004820152602b60248201527f496e697469616c697a61626c653a20636f6e7472616374206973206e6f74206960448201526a6e697469616c697a696e6760a81b6064820152608401610e4a565b6065613d8a8382615231565b506066610eeb8282615231565b600054610100900460ff16613e025760405162461bcd60e51b815260206004820152602b60248201527f496e697469616c697a61626c653a20636f6e7472616374206973206e6f74206960448201526a6e697469616c697a696e6760a81b6064820152608401610e4a565b8051825114613e795760405162461bcd60e51b815260206004820152603260248201527f5061796d656e7453706c69747465723a2070617965657320616e64207368617260448201527f6573206c656e677468206d69736d6174636800000000000000000000000000006064820152608401610e4a565b6000825111613eca5760405162461bcd60e51b815260206004820152601a60248201527f5061796d656e7453706c69747465723a206e6f207061796565730000000000006044820152606401610e4a565b60005b8251811015610eeb57613f12838281518110613eeb57613eeb6152f1565b6020026020010151838381518110613f0557613f056152f1565b6020026020010151614276565b80613f1c81615330565b915050613ecd565b613f2e8383614485565b613f3b6000848484613fe4565b610eeb5760405162461bcd60e51b815260206004820152603260248201527f4552433732313a207472616e7366657220746f206e6f6e20455243373231526560448201527f63656976657220696d706c656d656e74657200000000000000000000000000006064820152608401610e4a565b600082613fba858461462b565b14949350505050565b80516a636f6e736f6c652e6c6f67602083016000808483855afa5050505050565b60006001600160a01b0384163b1561417a576040517f150b7a020000000000000000000000000000000000000000000000000000000081526001600160a01b0385169063150b7a029061404190339089908890889060040161547f565b6020604051808303816000875af192505050801561407c575060408051601f3d908101601f19168201909252614079918101906154bb565b60015b61412f573d8080156140aa576040519150601f19603f3d011682016040523d82523d6000602084013e6140af565b606091505b5080516000036141275760405162461bcd60e51b815260206004820152603260248201527f4552433732313a207472616e7366657220746f206e6f6e20455243373231526560448201527f63656976657220696d706c656d656e74657200000000000000000000000000006064820152608401610e4a565b805181602001fd5b7fffffffff00000000000000000000000000000000000000000000000000000000167f150b7a0200000000000000000000000000000000000000000000000000000000149050612a0a565b506001949350505050565b6000807a184f03e93ff9f4daa797ed6e38ed64bf6a1f01000000000000000083106141ce577a184f03e93ff9f4daa797ed6e38ed64bf6a1f010000000000000000830492506040015b6d04ee2d6d415b85acef810000000083106141fa576d04ee2d6d415b85acef8100000000830492506020015b662386f26fc10000831061421857662386f26fc10000830492506010015b6305f5e1008310614230576305f5e100830492506008015b612710831061424457612710830492506004015b60648310614256576064830492506002015b600a8310610cfb5760010192915050565b6060612a0a8484600085614678565b6001600160a01b0382166142f25760405162461bcd60e51b815260206004820152602c60248201527f5061796d656e7453706c69747465723a206163636f756e74206973207468652060448201527f7a65726f206164647265737300000000000000000000000000000000000000006064820152608401610e4a565b600081116143425760405162461bcd60e51b815260206004820152601d60248201527f5061796d656e7453706c69747465723a207368617265732061726520300000006044820152606401610e4a565b6001600160a01b038216600090815260fd6020526040902054156143ce5760405162461bcd60e51b815260206004820152602b60248201527f5061796d656e7453706c69747465723a206163636f756e7420616c726561647960448201527f20686173207368617265730000000000000000000000000000000000000000006064820152608401610e4a565b60ff8054600181019091557fe08ec2af2cfc251225e1968fd6ca21e4044f129bffa95bac3503be8bdb30a36701805473ffffffffffffffffffffffffffffffffffffffff19166001600160a01b038416908117909155600090815260fd6020526040902081905560fb5461444390829061534a565b60fb55604080516001600160a01b0384168152602081018390527f40c340f65e17194d14ddddb073d3c9f888e3cb52b5aae0c6c7706b4fbc905fac9101612efa565b6001600160a01b0382166144db5760405162461bcd60e51b815260206004820181905260248201527f4552433732313a206d696e7420746f20746865207a65726f20616464726573736044820152606401610e4a565b6000818152606760205260409020546001600160a01b0316156145405760405162461bcd60e51b815260206004820152601c60248201527f4552433732313a20746f6b656e20616c7265616479206d696e746564000000006044820152606401610e4a565b61454e600083836001613ae0565b6000818152606760205260409020546001600160a01b0316156145b35760405162461bcd60e51b815260206004820152601c60248201527f4552433732313a20746f6b656e20616c7265616479206d696e746564000000006044820152606401610e4a565b6001600160a01b0382166000818152606860209081526040808320805460010190558483526067909152808220805473ffffffffffffffffffffffffffffffffffffffff19168417905551839291907fddf252ad1be2c89b69c2b068fc378daa952ba7f163c4a11628f55a4df523b3ef908290a45050565b600081815b84518110156146705761465c8286838151811061464f5761464f6152f1565b602002602001015161476a565b91508061466881615330565b915050614630565b509392505050565b6060824710156146f05760405162461bcd60e51b815260206004820152602660248201527f416464726573733a20696e73756666696369656e742062616c616e636520666f60448201527f722063616c6c00000000000000000000000000000000000000000000000000006064820152608401610e4a565b600080866001600160a01b0316858760405161470c9190615151565b60006040518083038185875af1925050503d8060008114614749576040519150601f19603f3d011682016040523d82523d6000602084013e61474e565b606091505b509150915061475f87838387614796565b979650505050505050565b6000818310614786576000828152602084905260409020612441565b5060009182526020526040902090565b606083156148055782516000036147fe576001600160a01b0385163b6147fe5760405162461bcd60e51b815260206004820152601d60248201527f416464726573733a2063616c6c20746f206e6f6e2d636f6e74726163740000006044820152606401610e4a565b5081612a0a565b612a0a838381511561481a5781518083602001fd5b8060405162461bcd60e51b8152600401610e4a919061492f565b82805482825590600052602060002090810192821561486f579160200282015b8281111561486f578251825591602001919060010190614854565b5061487b92915061487f565b5090565b5b8082111561487b5760008155600101614880565b7fffffffff0000000000000000000000000000000000000000000000000000000081168114610f3657600080fd5b6000602082840312156148d457600080fd5b813561244181614894565b60005b838110156148fa5781810151838201526020016148e2565b50506000910152565b6000815180845261491b8160208601602086016148df565b601f01601f19169290920160200192915050565b6020815260006124416020830184614903565b60006020828403121561495457600080fd5b5035919050565b6001600160a01b0381168114610f3657600080fd5b803561497b8161495b565b919050565b6000806040838503121561499357600080fd5b823561499e8161495b565b946020939093013593505050565b6000602082840312156149be57600080fd5b81356124418161495b565b6000806000606084860312156149de57600080fd5b83356149e98161495b565b925060208401356149f98161495b565b929592945050506040919091013590565b634e487b7160e01b600052604160045260246000fd5b604051601f8201601f1916810167ffffffffffffffff81118282101715614a4957614a49614a0a565b604052919050565b600067ffffffffffffffff831115614a6b57614a6b614a0a565b614a7e6020601f19601f86011601614a20565b9050828152838383011115614a9257600080fd5b828260208301376000602084830101529392505050565b600082601f830112614aba57600080fd5b61244183833560208501614a51565b600060208284031215614adb57600080fd5b813567ffffffffffffffff811115614af257600080fd5b612a0a84828501614aa9565b60008060408385031215614b1157600080fd5b8235614b1c8161495b565b91506020830135614b2c8161495b565b809150509250929050565b600067ffffffffffffffff821115614b5157614b51614a0a565b5060051b60200190565b600082601f830112614b6c57600080fd5b81356020614b81614b7c83614b37565b614a20565b82815260059290921b84018101918181019086841115614ba057600080fd5b8286015b84811015614bbb5780358352918301918301614ba4565b509695505050505050565b600060208284031215614bd857600080fd5b813567ffffffffffffffff811115614bef57600080fd5b612a0a84828501614b5b565b600082601f830112614c0c57600080fd5b81356020614c1c614b7c83614b37565b82815260059290921b84018101918181019086841115614c3b57600080fd5b8286015b84811015614bbb578035614c528161495b565b8352918301918301614c3f565b803563ffffffff8116811461497b57600080fd5b6000806000806000806000806000806101408b8d031215614c9357600080fd5b8a3567ffffffffffffffff80821115614cab57600080fd5b614cb78e838f01614aa9565b9b5060208d0135915080821115614ccd57600080fd5b614cd98e838f01614aa9565b9a5060408d0135915080821115614cef57600080fd5b614cfb8e838f01614aa9565b995060608d0135915080821115614d1157600080fd5b614d1d8e838f01614b5b565b985060808d0135915080821115614d3357600080fd5b614d3f8e838f01614b5b565b975060a08d0135915080821115614d5557600080fd5b614d618e838f01614bfb565b965060c08d0135915080821115614d7757600080fd5b50614d848d828e01614b5b565b945050614d9360e08c01614970565b9250614da26101008c01614c5f565b91506101208b013590509295989b9194979a5092959850565b600060208284031215614dcd57600080fd5b61244182614c5f565b60008060408385031215614de957600080fd5b823567ffffffffffffffff80821115614e0157600080fd5b614e0d86838701614b5b565b93506020850135915080821115614e2357600080fd5b50614e3085828601614b5b565b9150509250929050565b600080600060608486031215614e4f57600080fd5b833560028110614e5e57600080fd5b9250602084013567ffffffffffffffff811115614e7a57600080fd5b614e8686828701614b5b565b925050614e9560408501614c5f565b90509250925092565b60008060408385031215614eb157600080fd5b8235614ebc8161495b565b9150602083013567ffffffffffffffff811115614ed857600080fd5b614e3085828601614b5b565b60008060408385031215614ef757600080fd5b50508035926020909101359150565b8015158114610f3657600080fd5b60008060408385031215614f2757600080fd5b8235614f328161495b565b91506020830135614b2c81614f06565b600080600060608486031215614f5757600080fd5b8335614f628161495b565b925060208481013567ffffffffffffffff80821115614f8057600080fd5b818701915087601f830112614f9457600080fd5b8135614fa2614b7c82614b37565b81815260059190911b8301840190848101908a831115614fc157600080fd5b938501935b82851015614fdf57843582529385019390850190614fc6565b965050506040870135925080831115614ff757600080fd5b505061500586828701614b5b565b9150509250925092565b6000806000806080858703121561502557600080fd5b84356150308161495b565b935060208501356150408161495b565b925060408501359150606085013567ffffffffffffffff81111561506357600080fd5b8501601f8101871361507457600080fd5b61508387823560208401614a51565b91505092959194509250565b6000602082840312156150a157600080fd5b813561244181614f06565b600080604083850312156150bf57600080fd5b823591506020830135614b2c8161495b565b634e487b7160e01b600052602160045260246000fd5b6002811061510557634e487b7160e01b600052602160045260246000fd5b9052565b60208101610cfb82846150e7565b600181811c9082168061512b57607f821691505b60208210810361514b57634e487b7160e01b600052602260045260246000fd5b50919050565b600082516151638184602087016148df565b9190910192915050565b600080835461517b81615117565b6001828116801561519357600181146151a8576151d7565b60ff19841687528215158302870194506151d7565b8760005260208060002060005b858110156151ce5781548a8201529084019082016151b5565b50505082870194505b50929695505050505050565b601f821115610eeb57600081815260208120601f850160051c8101602086101561520a5750805b601f850160051c820191505b8181101561522957828155600101615216565b505050505050565b815167ffffffffffffffff81111561524b5761524b614a0a565b61525f816152598454615117565b846151e3565b602080601f831160018114615294576000841561527c5750858301515b600019600386901b1c1916600185901b178555615229565b600085815260208120601f198616915b828110156152c3578886015182559484019460019091019084016152a4565b50858210156152e15787850151600019600388901b60f8161c191681555b5050505050600190811b01905550565b634e487b7160e01b600052603260045260246000fd5b634e487b7160e01b600052601160045260246000fd5b81810381811115610cfb57610cfb615307565b6000600019820361534357615343615307565b5060010190565b80820180821115610cfb57610cfb615307565b600081518084526020808501945080840160005b8381101561538d57815187529582019590820190600101615371565b509495945050505050565b6153a281856150e7565b6060602082015260006153b8606083018561535d565b905063ffffffff83166040830152949350505050565b602081526000612441602083018461535d565b8082028115828204841417610cfb57610cfb615307565b60006020828403121561540a57600080fd5b5051919050565b600083516154238184602088016148df565b8351908301906154378183602088016148df565b01949350505050565b60008261545d57634e487b7160e01b600052601260045260246000fd5b500490565b60006020828403121561547457600080fd5b815161244181614f06565b60006001600160a01b038087168352808616602084015250836040830152608060608301526154b16080830184614903565b9695505050505050565b6000602082840312156154cd57600080fd5b81516124418161489456fea26469706673582212208b5d29bef4c09458a2b9302521e6fbc309b6c7afd71e80d0e7f83d62aa11c27e64736f6c63430008110033",
  "linkReferences": {},
  "deployedLinkReferences": {}
}