{
  "_format": "hh-sol-artifact-1",
  "contractName": "NFTixLaunchpad",
  "sourceName": "contracts/NFTixLaunchpad.sol",
  "abi": [
    {
      "inputs": [],
      "stateMutability": "nonpayable",
      "type": "constructor"
    },
    {
      "inputs": [],
      "name": "FallbackDisabled",
      "type": "error"
    },
    {
      "inputs": [],
      "name": "SameAddress",
      "type": "error"
    },
    {
      "inputs": [],
      "name": "ZeroAddress",
      "type": "error"
    },
    {
      "anonymous": false,
      "inputs": [
        {
          "indexed": true,
          "internalType": "address",
          "name": "ERC721Base",
          "type": "address"
        }
      ],
      "name": "ImplementationERC721Changed",
      "type": "event"
    },
    {
      "anonymous": false,
      "inputs": [
        {
          "indexed": false,
          "internalType": "uint8",
          "name": "version",
          "type": "uint8"
        }
      ],
      "name": "Initialized",
      "type": "event"
    },
    {
      "anonymous": false,
      "inputs": [
        {
          "indexed": true,
          "internalType": "address",
          "name": "_newClone",
          "type": "address"
        },
        {
          "indexed": true,
          "internalType": "address",
          "name": "_owner",
          "type": "address"
        }
      ],
      "name": "NewClone",
      "type": "event"
    },
    {
      "anonymous": false,
      "inputs": [
        {
          "indexed": true,
          "internalType": "address",
          "name": "previousOwner",
          "type": "address"
        },
        {
          "indexed": true,
          "internalType": "address",
          "name": "newOwner",
          "type": "address"
        }
      ],
      "name": "OwnershipTransferred",
      "type": "event"
    },
    {
      "anonymous": false,
      "inputs": [
        {
          "indexed": true,
          "internalType": "bytes32",
          "name": "role",
          "type": "bytes32"
        },
        {
          "indexed": true,
          "internalType": "bytes32",
          "name": "previousAdminRole",
          "type": "bytes32"
        },
        {
          "indexed": true,
          "internalType": "bytes32",
          "name": "newAdminRole",
          "type": "bytes32"
        }
      ],
      "name": "RoleAdminChanged",
      "type": "event"
    },
    {
      "anonymous": false,
      "inputs": [
        {
          "indexed": true,
          "internalType": "bytes32",
          "name": "role",
          "type": "bytes32"
        },
        {
          "indexed": true,
          "internalType": "address",
          "name": "account",
          "type": "address"
        },
        {
          "indexed": true,
          "internalType": "address",
          "name": "sender",
          "type": "address"
        }
      ],
      "name": "RoleGranted",
      "type": "event"
    },
    {
      "anonymous": false,
      "inputs": [
        {
          "indexed": true,
          "internalType": "bytes32",
          "name": "role",
          "type": "bytes32"
        },
        {
          "indexed": true,
          "internalType": "address",
          "name": "account",
          "type": "address"
        },
        {
          "indexed": true,
          "internalType": "address",
          "name": "sender",
          "type": "address"
        }
      ],
      "name": "RoleRevoked",
      "type": "event"
    },
    {
      "stateMutability": "payable",
      "type": "fallback"
    },
    {
      "inputs": [],
      "name": "Base",
      "outputs": [
        {
          "internalType": "address",
          "name": "",
          "type": "address"
        }
      ],
      "stateMutability": "view",
      "type": "function"
    },
    {
      "inputs": [],
      "name": "DEFAULT_ADMIN_ROLE",
      "outputs": [
        {
          "internalType": "bytes32",
          "name": "",
          "type": "bytes32"
        }
      ],
      "stateMutability": "view",
      "type": "function"
    },
    {
      "inputs": [
        {
          "internalType": "address",
          "name": "_newDefaultAdminAddress",
          "type": "address"
        }
      ],
      "name": "changeDefaultPlatformAdmin",
      "outputs": [],
      "stateMutability": "nonpayable",
      "type": "function"
    },
    {
      "inputs": [
        {
          "internalType": "address",
          "name": "_newAddress",
          "type": "address"
        }
      ],
      "name": "changeERC721Implementation",
      "outputs": [],
      "stateMutability": "nonpayable",
      "type": "function"
    },
    {
      "inputs": [
        {
          "internalType": "uint256",
          "name": "",
          "type": "uint256"
        }
      ],
      "name": "clones",
      "outputs": [
        {
          "internalType": "address",
          "name": "",
          "type": "address"
        }
      ],
      "stateMutability": "view",
      "type": "function"
    },
    {
      "inputs": [
        {
          "internalType": "string",
          "name": "_name",
          "type": "string"
        },
        {
          "internalType": "string",
          "name": "_symbol",
          "type": "string"
        },
        {
          "internalType": "string",
          "name": "_uri",
          "type": "string"
        },
        {
          "internalType": "uint256[]",
          "name": "_ticketPrices",
          "type": "uint256[]"
        },
        {
          "internalType": "uint256[]",
          "name": "_ticketRanges",
          "type": "uint256[]"
        },
        {
          "internalType": "address[]",
          "name": "_payees",
          "type": "address[]"
        },
        {
          "internalType": "uint256[]",
          "name": "_shares",
          "type": "uint256[]"
        },
        {
          "internalType": "uint32",
          "name": "mintingLimit",
          "type": "uint32"
        },
        {
          "internalType": "bytes32",
          "name": "_root",
          "type": "bytes32"
        }
      ],
      "name": "createERC721",
      "outputs": [
        {
          "internalType": "address",
          "name": "",
          "type": "address"
        }
      ],
      "stateMutability": "nonpayable",
      "type": "function"
    },
    {
      "inputs": [],
      "name": "defaultPlatformAdmin",
      "outputs": [
        {
          "internalType": "address",
          "name": "",
          "type": "address"
        }
      ],
      "stateMutability": "view",
      "type": "function"
    },
    {
      "inputs": [
        {
          "internalType": "bytes32",
          "name": "role",
          "type": "bytes32"
        }
      ],
      "name": "getRoleAdmin",
      "outputs": [
        {
          "internalType": "bytes32",
          "name": "",
          "type": "bytes32"
        }
      ],
      "stateMutability": "view",
      "type": "function"
    },
    {
      "inputs": [
        {
          "internalType": "bytes32",
          "name": "role",
          "type": "bytes32"
        },
        {
          "internalType": "address",
          "name": "account",
          "type": "address"
        }
      ],
      "name": "grantRole",
      "outputs": [],
      "stateMutability": "nonpayable",
      "type": "function"
    },
    {
      "inputs": [
        {
          "internalType": "bytes32",
          "name": "role",
          "type": "bytes32"
        },
        {
          "internalType": "address",
          "name": "account",
          "type": "address"
        }
      ],
      "name": "hasRole",
      "outputs": [
        {
          "internalType": "bool",
          "name": "",
          "type": "bool"
        }
      ],
      "stateMutability": "view",
      "type": "function"
    },
    {
      "inputs": [
        {
          "internalType": "address",
          "name": "BaseERC721",
          "type": "address"
        },
        {
          "internalType": "address",
          "name": "defaultPlatformAdmin_",
          "type": "address"
        }
      ],
      "name": "initialize",
      "outputs": [],
      "stateMutability": "nonpayable",
      "type": "function"
    },
    {
      "inputs": [],
      "name": "owner",
      "outputs": [
        {
          "internalType": "address",
          "name": "",
          "type": "address"
        }
      ],
      "stateMutability": "view",
      "type": "function"
    },
    {
      "inputs": [],
      "name": "renounceOwnership",
      "outputs": [],
      "stateMutability": "nonpayable",
      "type": "function"
    },
    {
      "inputs": [
        {
          "internalType": "bytes32",
          "name": "role",
          "type": "bytes32"
        },
        {
          "internalType": "address",
          "name": "account",
          "type": "address"
        }
      ],
      "name": "renounceRole",
      "outputs": [],
      "stateMutability": "nonpayable",
      "type": "function"
    },
    {
      "inputs": [
        {
          "internalType": "bytes32",
          "name": "role",
          "type": "bytes32"
        },
        {
          "internalType": "address",
          "name": "account",
          "type": "address"
        }
      ],
      "name": "revokeRole",
      "outputs": [],
      "stateMutability": "nonpayable",
      "type": "function"
    },
    {
      "inputs": [
        {
          "internalType": "bytes4",
          "name": "interfaceId",
          "type": "bytes4"
        }
      ],
      "name": "supportsInterface",
      "outputs": [
        {
          "internalType": "bool",
          "name": "",
          "type": "bool"
        }
      ],
      "stateMutability": "view",
      "type": "function"
    },
    {
      "inputs": [
        {
          "internalType": "address",
          "name": "newOwner",
          "type": "address"
        }
      ],
      "name": "transferOwnership",
      "outputs": [],
      "stateMutability": "nonpayable",
      "type": "function"
    },
    {
      "stateMutability": "payable",
      "type": "receive"
    }
  ],
  "bytecode": "0x608060405234801561001057600080fd5b506117c0806100206000396000f3fe6080604052600436106101125760003560e01c8063715018a6116100a5578063a217fddf11610074578063c7b5139111610059578063c7b5139114610396578063d547741f146103b6578063f2fde38b146103d657610149565b8063a217fddf14610361578063a306b6e81461037657610149565b8063715018a6146102c85780638da5cb5b146102dd5780638feab1e5146102fb57806391d148541461031b57610149565b80632f2ff15d116100e15780632f2ff15d1461024857806336568abe14610268578063485cc955146102885780635ea102b0146102a857610149565b806301ffc9a71461017b5780630e039916146101b0578063248a9ca3146101e85780632677b9941461022657610149565b36610149576040517f687b764e00000000000000000000000000000000000000000000000000000000815260040160405180910390fd5b6040517f687b764e00000000000000000000000000000000000000000000000000000000815260040160405180910390fd5b34801561018757600080fd5b5061019b61019636600461111a565b6103f6565b60405190151581526020015b60405180910390f35b3480156101bc57600080fd5b506101d06101cb36600461115c565b61048f565b6040516001600160a01b0390911681526020016101a7565b3480156101f457600080fd5b5061021861020336600461115c565b60009081526097602052604090206001015490565b6040519081526020016101a7565b34801561023257600080fd5b5061024661024136600461118c565b6104b9565b005b34801561025457600080fd5b506102466102633660046111a7565b610531565b34801561027457600080fd5b506102466102833660046111a7565b61055b565b34801561029457600080fd5b506102466102a33660046111d3565b6105ec565b3480156102b457600080fd5b5060fb546101d0906001600160a01b031681565b3480156102d457600080fd5b50610246610798565b3480156102e957600080fd5b506033546001600160a01b03166101d0565b34801561030757600080fd5b506101d06103163660046113b9565b6107ac565b34801561032757600080fd5b5061019b6103363660046111a7565b60009182526097602090815260408084206001600160a01b0393909316845291905290205460ff1690565b34801561036d57600080fd5b50610218600081565b34801561038257600080fd5b5060fd546101d0906001600160a01b031681565b3480156103a257600080fd5b506102466103b136600461118c565b6108f3565b3480156103c257600080fd5b506102466103d13660046111a7565b6109c1565b3480156103e257600080fd5b506102466103f136600461118c565b6109e6565b60007fffffffff0000000000000000000000000000000000000000000000000000000082167f7965db0b00000000000000000000000000000000000000000000000000000000148061048957507f01ffc9a7000000000000000000000000000000000000000000000000000000007fffffffff000000000000000000000000000000000000000000000000000000008316145b92915050565b60fc818154811061049f57600080fd5b6000918252602090912001546001600160a01b0316905081565b6104c1610a76565b6001600160a01b03811615806104e4575060fd546001600160a01b038281169116145b156105025760405163d92e233d60e01b815260040160405180910390fd5b60fd805473ffffffffffffffffffffffffffffffffffffffff19166001600160a01b0392909216919091179055565b60008281526097602052604090206001015461054c81610ad0565b6105568383610ada565b505050565b6001600160a01b03811633146105de5760405162461bcd60e51b815260206004820152602f60248201527f416363657373436f6e74726f6c3a2063616e206f6e6c792072656e6f756e636560448201527f20726f6c657320666f722073656c66000000000000000000000000000000000060648201526084015b60405180910390fd5b6105e88282610b7c565b5050565b600054610100900460ff161580801561060c5750600054600160ff909116105b806106265750303b158015610626575060005460ff166001145b6106985760405162461bcd60e51b815260206004820152602e60248201527f496e697469616c697a61626c653a20636f6e747261637420697320616c72656160448201527f647920696e697469616c697a656400000000000000000000000000000000000060648201526084016105d5565b6000805460ff1916600117905580156106bb576000805461ff0019166101001790555b6001600160a01b0383166106e25760405163d92e233d60e01b815260040160405180910390fd5b6001600160a01b0382166107095760405163d92e233d60e01b815260040160405180910390fd5b60fd80546001600160a01b0380851673ffffffffffffffffffffffffffffffffffffffff199283161790925560fb80549286169290911691909117905561074e610bff565b8015610556576000805461ff0019169055604051600181527f7f26b83ff96e1f2b6a682f133852f6798a09c465da95921460cefb38474024989060200160405180910390a1505050565b6107a0610a76565b6107aa6000610c84565b565b60006107b6610ce3565b60fb546000906107ce906001600160a01b0316610d3c565b9050806001600160a01b03166357d055ed8c8c8c8c8c8c8c60fd60009054906101000a90046001600160a01b03168d8d6040518b63ffffffff1660e01b81526004016108239a9998979695949392919061157a565b600060405180830381600087803b15801561083d57600080fd5b505af1158015610851573d6000803e3d6000fd5b505060fc805460018101825560009182527f371f36870d18f32a11fea0f144b021c8b407bb50f8e0267c711123f454b963c001805473ffffffffffffffffffffffffffffffffffffffff19166001600160a01b0386169081179091556040513394509092507f3bf919a220a0f12ddcaf77fd06ffa4b9c728617774936f0d78b452010319c8249190a390506108e6600160c955565b9998505050505050505050565b6108fb610a76565b6001600160a01b0381166109225760405163d92e233d60e01b815260040160405180910390fd5b60fb546001600160a01b039081169082160361096a576040517f367558c300000000000000000000000000000000000000000000000000000000815260040160405180910390fd5b60fb805473ffffffffffffffffffffffffffffffffffffffff19166001600160a01b0383169081179091556040517fd04f10b610233a1d4a7c6405e91287680343094a50b8ff2ca0759a62fc07a86790600090a250565b6000828152609760205260409020600101546109dc81610ad0565b6105568383610b7c565b6109ee610a76565b6001600160a01b038116610a6a5760405162461bcd60e51b815260206004820152602660248201527f4f776e61626c653a206e6577206f776e657220697320746865207a65726f206160448201527f646472657373000000000000000000000000000000000000000000000000000060648201526084016105d5565b610a7381610c84565b50565b6033546001600160a01b031633146107aa5760405162461bcd60e51b815260206004820181905260248201527f4f776e61626c653a2063616c6c6572206973206e6f7420746865206f776e657260448201526064016105d5565b610a738133610ddd565b60008281526097602090815260408083206001600160a01b038516845290915290205460ff166105e85760008281526097602090815260408083206001600160a01b03851684529091529020805460ff19166001179055610b383390565b6001600160a01b0316816001600160a01b0316837f2f8788117e7eff1d82e926ec794901d17c78024a50270940304540a733656f0d60405160405180910390a45050565b60008281526097602090815260408083206001600160a01b038516845290915290205460ff16156105e85760008281526097602090815260408083206001600160a01b0385168085529252808320805460ff1916905551339285917ff6391f5c32d9c69d2a47ea670b442974b53935d1edc7fd64eb21e047a839171b9190a45050565b600054610100900460ff16610c7c5760405162461bcd60e51b815260206004820152602b60248201527f496e697469616c697a61626c653a20636f6e7472616374206973206e6f74206960448201527f6e697469616c697a696e6700000000000000000000000000000000000000000060648201526084016105d5565b6107aa610e52565b603380546001600160a01b0383811673ffffffffffffffffffffffffffffffffffffffff19831681179093556040519116919082907f8be0079c531659141344cd1fd0a4f28419497f9722a3daafe3b4186f6b6457e090600090a35050565b600260c95403610d355760405162461bcd60e51b815260206004820152601f60248201527f5265656e7472616e637947756172643a207265656e7472616e742063616c6c0060448201526064016105d5565b600260c955565b6000763d602d80600a3d3981f3363d3d373d3d3d363d730000008260601b60e81c176000526e5af43d82803e903d91602b57fd5bf38260781b17602052603760096000f090506001600160a01b038116610dd85760405162461bcd60e51b815260206004820152601660248201527f455243313136373a20637265617465206661696c65640000000000000000000060448201526064016105d5565b919050565b60008281526097602090815260408083206001600160a01b038516845290915290205460ff166105e857610e1081610ed8565b610e1b836020610eea565b604051602001610e2c92919061166b565b60408051601f198184030181529082905262461bcd60e51b82526105d5916004016116ec565b600054610100900460ff16610ecf5760405162461bcd60e51b815260206004820152602b60248201527f496e697469616c697a61626c653a20636f6e7472616374206973206e6f74206960448201527f6e697469616c697a696e6700000000000000000000000000000000000000000060648201526084016105d5565b6107aa33610c84565b60606104896001600160a01b03831660145b60606000610ef9836002611715565b610f0490600261172c565b67ffffffffffffffff811115610f1c57610f1c6111fd565b6040519080825280601f01601f191660200182016040528015610f46576020820181803683370190505b5090507f300000000000000000000000000000000000000000000000000000000000000081600081518110610f7d57610f7d61173f565b60200101907effffffffffffffffffffffffffffffffffffffffffffffffffffffffffffff1916908160001a9053507f780000000000000000000000000000000000000000000000000000000000000081600181518110610fe057610fe061173f565b60200101907effffffffffffffffffffffffffffffffffffffffffffffffffffffffffffff1916908160001a905350600061101c846002611715565b61102790600161172c565b90505b60018111156110c4577f303132333435363738396162636465660000000000000000000000000000000085600f16601081106110685761106861173f565b1a60f81b82828151811061107e5761107e61173f565b60200101907effffffffffffffffffffffffffffffffffffffffffffffffffffffffffffff1916908160001a90535060049490941c936110bd81611755565b905061102a565b5083156111135760405162461bcd60e51b815260206004820181905260248201527f537472696e67733a20686578206c656e67746820696e73756666696369656e7460448201526064016105d5565b9392505050565b60006020828403121561112c57600080fd5b81357fffffffff000000000000000000000000000000000000000000000000000000008116811461111357600080fd5b60006020828403121561116e57600080fd5b5035919050565b80356001600160a01b0381168114610dd857600080fd5b60006020828403121561119e57600080fd5b61111382611175565b600080604083850312156111ba57600080fd5b823591506111ca60208401611175565b90509250929050565b600080604083850312156111e657600080fd5b6111ef83611175565b91506111ca60208401611175565b634e487b7160e01b600052604160045260246000fd5b604051601f8201601f1916810167ffffffffffffffff8111828210171561123c5761123c6111fd565b604052919050565b600082601f83011261125557600080fd5b813567ffffffffffffffff81111561126f5761126f6111fd565b6112826020601f19601f84011601611213565b81815284602083860101111561129757600080fd5b816020850160208301376000918101602001919091529392505050565b600067ffffffffffffffff8211156112ce576112ce6111fd565b5060051b60200190565b600082601f8301126112e957600080fd5b813560206112fe6112f9836112b4565b611213565b82815260059290921b8401810191818101908684111561131d57600080fd5b8286015b848110156113385780358352918301918301611321565b509695505050505050565b600082601f83011261135457600080fd5b813560206113646112f9836112b4565b82815260059290921b8401810191818101908684111561138357600080fd5b8286015b848110156113385761139881611175565b8352918301918301611387565b803563ffffffff81168114610dd857600080fd5b60008060008060008060008060006101208a8c0312156113d857600080fd5b893567ffffffffffffffff808211156113f057600080fd5b6113fc8d838e01611244565b9a5060208c013591508082111561141257600080fd5b61141e8d838e01611244565b995060408c013591508082111561143457600080fd5b6114408d838e01611244565b985060608c013591508082111561145657600080fd5b6114628d838e016112d8565b975060808c013591508082111561147857600080fd5b6114848d838e016112d8565b965060a08c013591508082111561149a57600080fd5b6114a68d838e01611343565b955060c08c01359150808211156114bc57600080fd5b506114c98c828d016112d8565b9350506114d860e08b016113a5565b91506101008a013590509295985092959850929598565b60005b8381101561150a5781810151838201526020016114f2565b50506000910152565b6000815180845261152b8160208601602086016114ef565b601f01601f19169290920160200192915050565b600081518084526020808501945080840160005b8381101561156f57815187529582019590820190600101611553565b509495945050505050565b600061014080835261158e8184018e611513565b90506020838203818501526115a3828e611513565b915083820360408501526115b7828d611513565b915083820360608501526115cb828c61153f565b915083820360808501526115df828b61153f565b84810360a08601528951808252828b0193509082019060005b8181101561161d5784516001600160a01b0316835293830193918301916001016115f8565b505084810360c0860152611631818a61153f565b935050505061164b60e08301866001600160a01b03169052565b63ffffffff93909316610100820152610120015298975050505050505050565b7f416363657373436f6e74726f6c3a206163636f756e74200000000000000000008152600083516116a38160178501602088016114ef565b7f206973206d697373696e6720726f6c652000000000000000000000000000000060179184019182015283516116e08160288401602088016114ef565b01602801949350505050565b6020815260006111136020830184611513565b634e487b7160e01b600052601160045260246000fd5b8082028115828204841417610489576104896116ff565b80820180821115610489576104896116ff565b634e487b7160e01b600052603260045260246000fd5b600081611764576117646116ff565b507fffffffffffffffffffffffffffffffffffffffffffffffffffffffffffffffff019056fea2646970667358221220d7a50ed28e20204fa55f175fd994c48198c3fec5ff30afd8c7fa550d9a33087864736f6c63430008110033",
  "linkReferences": {},
  "deployedLinkReferences": {}
}